:020000040800F2
:10000000305200205D020008313200080D2A00083D
:1000100029310008690B0008ED40000800000000CD
:100020000000000000000000000000009D0100082A
:10003000290C000800000000F90100082D37000815
:1000400077020008770200087702000877020008AC
:10005000770200087702000877020008770200089C
:10006000770200082B0C00087702000877020008CE
:10007000770200087702000877020008770200087C
:10008000770200087702000877020008770200086C
:100090006D0B00087702000877020008770200085D
:1000A000770200087702000877020008770200084C
:1000B0007702000877020008ED3700087702000891
:1000C000770200087702000877020008770200082C
:1000D000770200087702000877020008770200081C
:1000E000770200087702000877020008770200080C
:1000F00077020008770200087702000877020008FC
:1001000077020008770200087702000877020008EB
:1001100077020008770200087702000877020008DB
:10012000790B0008770200087702000877020008C0
:1001300077020008770200087702000877020008BB
:1001400077020008770200087702000877020008AB
:10015000770200087702000877020008770200089B
:10016000770200087702000877020008770200088B
:1001700077020008770200087702000800000000FC
:100180007702000877020008DFF80CD000F0D4FBFB
:10019000004800470D4C0008305200202C4B1968D5
:1001A0000868B0E8F04F80F30988BFF36F8F4FF015
:1001B000000080F3118870470000000008480068C4
:1001C000006880F308884FF0000080F3148862B65E
:1001D00061B6BFF34F8FBFF36F8F00DF00BF00BF6B
:1001E00008ED00E0DFF80C00016841F470010160E7
:1001F000704700BF88ED00E0EFF30980BFF36F8F19
:10020000134B1A681EF0100F08BF20ED108A20E96A
:10021000F04F106009B44FF0500080F31188BFF325
:100220004F8FBFF36F8F05F04DFE4FF0000080F34E
:10023000118809BC19680868B0E8F04F1EF0100F6B
:1002400008BFB0EC108A80F30988BFF36F8F704746
:100250004C010020EFF305807047000006488047FE
:1002600006480047FEE7FEE7FEE7FEE7FEE7FEE79B
:10027000FEE7FEE7FEE7FEE7DD370008890100083C
:100280002DE9F05F0546002092469B4688460646CB
:10029000814640241BE0284641464746224600F05E
:1002A0007CFA53465A46C01A914110D3114618465B
:1002B000224600F063FA2D1A67EB01084F462246EA
:1002C0000120002100F05AFA17EB00094E41201ED0
:1002D000A4F10104DFDC484631462A464346BDE826
:1002E000F09F40EA01039B0703D009E008C9121FF1
:1002F00008C0042AFAD203E011F8013B00F8013BE0
:10030000521EF9D27047D2B201E000F8012B491E0B
:10031000FBD270470022F6E710B513460A460446A2
:100320001946FFF7F0FF204610BD421E12F8013FAC
:10033000002BFBD111F8013B02F8013B002BF9D156
:100340007047421C10F8011B0029FBD1801A70472E
:100350002DE9FE4F804681EA0300C00F0C46009055
:1003600021F0004123F00045B8EB0200A94105D27D
:100370004046214690461C460B46024623F000406C
:10038000104347D0270DC7F30A00C3F30A51029068
:10039000401A019040286BDAC3F3130040F4801B2D
:1003A0000098924620B10023D2EB030A63EB0B0BBB
:1003B00001985946C0F14002504600F0DFF9064668
:1003C0000D4650465946019A00F0F7F910EB080027
:1003D0006141002487EA115284EAE7731A4340D04E
:1003E000009A62B3019A012A4FEA075215DC001BFA
:1003F00061EB02014FF0004202EA0752CDE90042F0
:10040000001C41F5801132462B4600F02EFA03B055
:10041000BDE8F08F40462146F9E7001B61EB020181
:10042000001C41F5801300185B412018A2F500174D
:1004300047EB030140EAD570B6196D4111E06D0834
:100440004FEA360645EAC0754FEA0752001B61EBDA
:100450000201001C41F5801149084FEA30000019E3
:10046000514132462B4603B0BDE8F04F00F0EEB9E3
:100470000098012240000023D0EB020263EBE073FE
:10048000009821464FEAE074B8EB000061EB0401EC
:10049000E9E783F000435BE781F0004158E72DE98D
:1004A000FE4F81EA030404F0004421F0004100946F
:1004B0004FF0000B23F0004350EA01045ED052EAF3
:1004C00003045BD0C3F30A54C1F30A552C44A4F2CD
:1004D000F3340194A0FB0254C1F3130141F48011E1
:1004E000C3F3130343F4801301FB024400FB034EE8
:1004F000840A970A44EA815447EA8357A4FB0768B1
:1005000002958D0A05FB07854FEA932C04FB0C54DA
:100510002705029D4FEA065847EA1637B5EB08054E
:100520006EEB070C870E920E47EA811742EA8312A0
:10053000A7FB0201B6EB0B0164EB00042B0D43EAB1
:100540000C335E1844EB1C50DA465146E7FB0201BF
:10055000C5F313044FEA0B3343EA14534FEA043252
:10056000019C43EA0603A4F10C040294009CCDE92B
:1005700000B400F07AF903B0BDE8F08F0020014626
:10058000F9E72DE9F04D81EA030404F0004B21F076
:10059000004514464FF0000A23F0004150EA0502DE
:1005A00020D054EA01021DD0C5F30A570246C5F314
:1005B0001303C1F31300C1F30A5640F4801543F44A
:1005C0008013A7EB0608101BD64608F2FD3873EB24
:1005D000050002D308F1010801E092185B41B8F16F
:1005E000000F03DA00200146BDE8F08D00204FF433
:1005F0008011064684460EE0171B73EB050705D3F2
:10060000121B63EB050306434CEA010C49084FEA51
:10061000300092185B4150EA0107EDD152EA030025
:1006200012D082EA040083EA0501084305D0101BBA
:10063000AB4106D20122002306E000224FF0004326
:1006400002E06FF0010253101AEB06004CEB085168
:1006500010EB0A0041EB0B01BDE8F04D00F0F6B8DD
:10066000C1F30A5210B5C1F3130140F2FF3341F454
:1006700080119A4201DA002010BD40F233439A42C1
:10068000A2F2334203DC524200F087F810BD9040E2
:1006900010BD00F0004230F000400AD0C10D01F55D
:1006A0006071C0F3160042EA0151C20840071143CD
:1006B000704700200146704730B5041E71F10004F8
:1006C00004DB4FF00044404264EB0101141E73F15F
:1006D000000405DB1C464FF00043524263EB040369
:1006E0008B4208BF824230BD30B5041E71F1000458
:1006F00004DB4FF00044404264EB0101141E73F12F
:10070000000405DB1C464FF00043524263EB040338
:10071000994208BF904230BD01F0004330B421F04F
:10072000004150EA010206D00A0DA2F56072C1F341
:100730001301002A02DC30BC00207047440F44EA59
:10074000C104C100E01830BC00EBC25000F047B853
:1007500030B50B46014600202022012409E021FA91
:1007600002F59D4205D303FA02F5491B04FA02F58E
:100770002844151EA2F10102F1DC30BD202A04DB61
:10078000203A00FA02F1002070479140C2F12003A4
:1007900020FA03F3194390407047202A04DB203AE3
:1007A00021FA02F00021704721FA02F3D040C2F191
:1007B00020029140084319467047202A06DBCB17D8
:1007C000203A41FA02F043EAE07306E041FA02F30C
:1007D000D040C2F1200291400843194670470029D9
:1007E000A8BF7047401C490008BF20F001007047B7
:1007F00010B4B0FA80FC00FA0CF050EA010404BF17
:1008000010BC704749B1CCF1200421FA04F411FA6C
:100810000CF118BF012121430843A3EB0C01CB1DB0
:100820004FEA00614FEA102042BF002010BC704721
:1008300000EBC35010440029A4BF10BC7047401CFB
:10084000490008BF20F0010010BC704710B5141E0D
:1008500073F1000408DA401C41F1000192185B4179
:100860001A4301D120F0010010BD2DE9F04D924650
:100870009B4611B1B1FA81F202E0B0FA80F2203267
:100880009046FFF77BFF04460F4640EA0A0041EA24
:100890000B0153465A46084313D0114653EA010050
:1008A00019D0C8F140025046FFF777FF05460E46C3
:1008B000504659464246FFF761FF084305D00120E4
:1008C00004E020463946BDE8F08D0020054346EAA5
:1008D000E0762C4337430A986305E40AA0EB08004E
:1008E0000022FD0A44EA47540A3002D5002001469E
:1008F000E9E7010510196941DDE908450019694179
:10090000BDE8F04DA2E7C1F30A52C1F3130140F272
:10091000FF3341F480119A4202DA00200146704709
:1009200040F233439A42A2F2334202DC5242FFF7D2
:1009300034BFFFF723BF0000064C074D06E0E06818
:1009400040F0010394E8070098471034AC42F6D316
:10095000FFF71EFC2C8400084C84000870B58C182E
:1009600010F8015B15F0070301D110F8013B2A11C3
:1009700006D110F8012B03E010F8016B01F8016BB0
:100980005B1EF9D12B0705D40023521E0DD401F8AC
:10099000013BFAE710F8013BCB1A921C03E013F875
:1009A000015B01F8015B521EF9D5A142D8D30020AA
:1009B00070BD10B50146806B026C12F0500F05D06F
:1009C000026CD20626D500F0DDF910BD016C41F4B1
:1009D0000071016401688A6812F0405F17D1027EDD
:1009E000AAB9CA6A12F4700F02D08A6852050ED4EE
:1009F0004A6822F020024A60016C21F4807101648F
:100A0000016CC90403D4016C41F00101016400F0E0
:100A1000B7F910BD806BC26CBDE8104008461047A6
:100A200010B5806B40210164416C41F004014164C8
:100A300000F0A8F910BD10B5806B00F0A2F910BD50
:100A4000464910B54A6822F440324A604A68436811
:100A50001A434A6001684A6822F480724A60016859
:100A60004A68036942EA03224A6001684A6822F040
:100A700040724A6001684A6883681A434A600168A4
:100A80008A6822F400628A6001688A68C3681A432F
:100A90008A60816A6FF07062D14201688A6822F0D0
:100AA00070628A6001688A680CD0836A1A438A601F
:100AB00001688A6822F040528A6001688A68C36AC5
:100AC0001A4301E022F040528A6001688A6822F0ED
:100AD00002028A6001688A68037E42EA43028A60F1
:100AE00090F82010002901684A680FD042F4006293
:100AF0004A6001684A6822F460424A6001684A68B4
:100B0000174C436A04EB43331A4301E022F40062BA
:100B10004A600168CA6A22F47002CA620168CA6A3D
:100B2000838B104C04EB03531A43CA6201688A6832
:100B300022F400728A6001688A6890F8303042EAD4
:100B400043228A6001688A6822F480628A600168B0
:100B50008A68406942EA8020886010BD0023014015
:100B600000E0FFFF0000F0FFFEE70000014800F09A
:100B70009CBB000078020020014800F0BFBD0000CF
:100B80001802002001681823CAB2103AB2FBF3F22F
:100B9000054B6FF30901032A9B5CC36500D9091D4E
:100BA0008165084670470000D06E000810B5014608
:100BB00000208B698A6A4FF0C07453B1B3F5005FAF
:100BC00015D072B1012A0CD0022A0AD0032A09D109
:100BD00004E01AB1012A06D0022A03D1C96AC90168
:100BE00000D5012010BDC96AA142FAD010BD002A6B
:100BF000F7D0012AF2D0022AF3D0032AF3D010BD95
:100C000030B50468256825F4802525600468636094
:100C10008368402B036803D099600068C26030BDD0
:100C20009A600068C16030BD7047082000F0F0BED7
:100C300072B6FEE778B50024009490F83C20012AB3
:100C400019D0012280F83C200A6807230568092A88
:100C500013D9EE680A3A02EB420293409E43EE60DB
:100C60000B788A680A3B03EB43039A400368DD680C
:100C70002A43DA6010E0022078BD2E6902EB4202BE
:100C800093409E432E610B788A6803EB43039A409E
:100C900003681D692A431A614A681F23072A13D271
:100CA00005686E6B521E02EB820293409E436E6398
:100CB0000B790A885B1E92B203EB83039A400368A8
:100CC0005D6B2A435A6327E005680D2A12D22E6B0A
:100CD000D21F02EB820293409E432E630B790A8857
:100CE000DB1F92B203EB83039A4003681D6B2A4318
:100CF0001A6311E0EE6A0D3A02EB820293409E43C2
:100D0000EE620B790A880D3B92B203EB83039A40A3
:100D10000368DD6A2A43DA62164B0568144A9D426D
:100D200006D10D68122D03D1556845F48005556034
:100D300005689D4218D10B68102B01D0112B13D1DF
:100D4000536843F400035360096810290CD10A4921
:100D50000A4A0968B1FBF2F101EB8101490000E0A8
:100D6000491E00910029FBD180F83C40002078BD4D
:100D700000230140002001402800002040420F00D5
:100D800070477047704770B504004FF0000503D0FE
:100D9000206C002610B107E0012070BD204600F055
:100DA0001DF8666484F83C60206CC00610D4206C8A
:100DB00020F4885040F0020020642046FFF740FEF7
:100DC0006664206C20F0020040F00100206400E026
:100DD000012584F83C60284670BD000070B586B0DF
:100DE000064614216846FFF795FA1D493068884287
:100DF00034D11C480025016841F48071016000680D
:100E000000F48070059017481438016841F0010122
:100E100001600068694600F001000590062000901E
:100E20000320CDE90105104800F0FEFD104C0F48ED
:100E3000C4E900050015A560C4E9035080006061A5
:100E40008000A0618011C4E907052046656200F0BA
:100E500025FD08B1FFF7ECFEB463A66306B070BDD4
:100E6000002001404438024000000240106402406B
:100E700018020020F8B5044600200E46009094F8B1
:100E80003C10012907D0012184F83C1021688B68AF
:100E9000DB0702D011E00220F8BD8B6843F00103AC
:100EA0008B604049404B0968B1FBF3F101EB410114
:100EB00000E0491E00910029FBD121688B68DB0509
:100EC00003D58B6823F480738B6021688B68DB0704
:100ED0005DD0236C40F20165AB4343F4807323641F
:100EE0004968490505D5216C21F4005141F4805130
:100EF0002164216CC90404D5616C21F00601616490
:100F000000E0606484F83C00A16B2948274DC86369
:100F1000A16B28480864A16B2748C86421686FF05A
:100F2000220008602068416841F0806141602068CB
:100F3000816841F4807181602168134632464C31EA
:100F4000A06B00F015FD68681C49C006206806D03B
:100F5000884224D1816811F0405F13D01FE088429D
:100F6000F8D0174A904203D1D1F80423D206F1D029
:100F7000144A904213D1D1F8041301F01F01102933
:100F8000E8D30CE0816841F08041816007E0206C8B
:100F900040F010002064606C40F0010060640020AC
:100FA000F8BD00002800002040420F00002301404F
:100FB000B3090008370A0008210A00080020014090
:100FC000002101400022014090F82020012A07D092
:100FD000022A05D0416A41F4802141620120704714
:100FE000006842690A43426100207047F0B590F8FA
:100FF00020500468A468012D05D0022D03D0416A59
:1010000041F480214DE014F0406F01D1E50045D559
:10101000C4F301640125A5401D608D684FF4C073C1
:101020009DB1CE6835434E6845EAC605066803EBB8
:101030000417F5514FF4C275076805EB04150E69E6
:101040007E51097D012905D009E00E88CD6845EA69
:101050004655EBE701684E5946F480764E511179BA
:10106000D2F805504FF4C67641EA0521056806EB33
:101070000416A9511178D2F801204FF4C47541EA41
:101080000221026805EB04155151006803EB0411BD
:10109000425842F0010242500020F0BD416A41F442
:1010A000001141620120F0BD10B590F82020012A06
:1010B00007D0022A05D0416A41F480214162012013
:1010C00010BD3B48D0F8002242F00102C0F80022D7
:1010D000D0F8002222F47C52C0F80022D0F800227E
:1010E0004B6A42EA0322C0F800220A7D02F01F0385
:1010F00001229A40D0F81C329343C0F81C32CB69CD
:10110000B3B9D0F80C329343C0F80C328C894B68D9
:1011100064F31F434C6900EBC404C4F840320C89EB
:101120000B6864F31F434C6900EBC404C4F84432F9
:10113000CB69012B16D1D0F80C321343C0F80C3216
:101140000C884B6864F31F434C6900EBC404C4F87B
:1011500040320C89CB6864F31F434C6900EBC40434
:10116000C4F844328B69002BD0F804320ED01343FC
:10117000C0F804320B69002BD0F8143208D01343A6
:10118000C0F81432096A012904D008E09343EFE75C
:101190009343F5E7D0F81C121143C0F81C12D0F8A5
:1011A000001221F00101C0F80012002010BD000063
:1011B00000640040704770B590F82040012C05D0C5
:1011C000022C03D0416A41F4802128E0046809B36D
:1011D0002469A40720D04FF4D874056804EB0114E7
:1011E0002D5915F00405956005682D591AD0ED08A4
:1011F000556005682C5904F00204D4604FF4DA7489
:10120000056804EB01142E5906F00F06082E0CD3C6
:1012100008250DE0E468DCE7416A41F40011416211
:10122000012070BD6D0D1560E3E72D5905F00F0528
:10123000156105682D59C5F30725956105682C5979
:10124000240C54614FF4DC72046802EB0112A458C0
:101250001C700468A458240A5C700468A458240C08
:101260009C700468A258120EDA704FF4DE720468A3
:1012700002EB0112A4581C710468A458240A5C7182
:101280000468A458240C9C710468A258120EDA71E8
:10129000006829B1016941F020010161002070BDA1
:1012A000C16841F02001C160F8E72DE9F05F054613
:1012B000006800244669D0F804908768D0F80CB024
:1012C000D0F810A0D0F81880F10748D0F90714D052
:1012D00001218160B80703D5284600F008FA0CE028
:1012E000780702D54FF4006407E0380702D54FF4C1
:1012F000805402E0284600F0F9F9F80516D529686F
:101300004FF480708860B80503D5284600F0F1F9E5
:101310000CE0780502D544F4005407E0380502D506
:1013200044F4804402E0284600F0E2F9F80316D5C0
:1013300029684FF480308860B80303D5284600F050
:10134000DAF90CE0780302D544F4004407E03803EE
:1013500002D544F4803402E0284600F0CBF930078F
:1013600007D55FEACB6004D52968102044F40074E7
:10137000C86070074FF0080707D55FEA0B7004D507
:101380002868C760284600F059F9B00706D52868D4
:10139000C068800702D0284600F052F9700607D5D1
:1013A0005FEACA6004D52968102044F480640861AB
:1013B000B00607D55FEA0A7004D528680761284699
:1013C00000F064F9F00606D528680069800702D0AD
:1013D000284600F05CF9B00308D55FEAC96005D57E
:1013E000296810204860284600F052F9F00307D51C
:1013F0005FEA097004D528684760284600F07CF948
:10140000300446D55FEA497040D5F00504D55FEA5F
:10141000C87001D044F00104B00504D55FEA8870BB
:1014200001D544F00204700504D55FEA487001D587
:1014300044F00404300529D518F0700F26D008F0C8
:101440007000402815D006DC102809D020280AD0CA
:10145000302816D10AE050280ED0602811D10EE0B5
:1014600044F008040DE044F010040AE044F02004C5
:1014700007E044F0400404E044F0800401E044F458
:1014800080742868816921F07001816129680420D5
:101490004860002C05D0686A204368622846FFF740
:1014A00089FEBDE8F09F70B5040003D094F82000D9
:1014B00010B104E0012070BD204600F081F82068E2
:1014C000016841F00101016000F0B0FB054605260E
:1014D00004E000F0ABFB401B0A2811D820684068EC
:1014E000C007F6D02068016821F00201016000F019
:1014F0009DFB05460BE000F099FB401B0A2806D92E
:10150000606A40F40030606284F82060D2E72068AE
:1015100040688007EFD4207E0128206801683DD014
:1015200021F080010160607E01282068016838D0C8
:1015300021F040010160A07E01282068016833D0BD
:1015400021F020010160E07E0128206801682ED092
:1015500041F010010160207F01282068016829D036
:1015600021F008010160607F01282068016824D013
:1015700021F004010160D4E902010843D4E9041216
:10158000114308436168491E08432168C86100206F
:101590006062012084F82000002070BD41F08001CD
:1015A000C0E741F04001C5E741F02001CAE721F062
:1015B0001001CFE741F00801D4E741F00401D9E779
:1015C00010B586B0044614216846FEF7A3FE1849FC
:1015D0002068884229D117480021026842F0007231
:1015E0000260006800F00070059012481038026830
:1015F00042F001020260006800F0010005904FF423
:10160000C05000900220CDE9010103200390092081
:1016100004906946084800F007FA002205211420CA
:1016200000F032FD142000F021FD06B010BD0000D6
:101630000064004040380240000002407047000053
:1016400000B589B007AB6A460021FFF7B4FD00285A
:1016500016D19DED070ADFED0B0A0B48B8EEC00A64
:1016600080EE201AF2EE040A80ED001ABDF9201077
:1016700000EE101AB8EEC00A80EE201A80ED011AB2
:1016800009B000BD00007A442C000020704770476C
:101690007047000070B5044690F82000012804D07F
:1016A000606A40F40020606218E0022084F82000A4
:1016B0002068016821F00101016000F0B7FA0546D9
:1016C0000EE000BF00F0B2FA401B0A2808D9606A99
:1016D00040F400306062052084F82000012070BDD5
:1016E00020684068C007EDD1606270BD70477047E8
:1016F0007047704770477047704700002DE9F84306
:1017000004464FF00009CDF8009063484FF416519D
:10171000A56D0068B0FBF1F72E6894F85C10082006
:1017200000FA01F131420FD021680A6852070BD547
:101730000A6822F004020A6094F85C108840A860ED
:10174000606D40F00100606594F85C104FF0010896
:1017500008FA01F0304208D021684969090604D529
:10176000A860606D40F00200606594F85C10042091
:101770008840304208D021680968890704D5A860EC
:10178000606D40F00400606594F85C1010208840A3
:10179000304218D021680968090714D5A86020686C
:1017A0000168490304D50068000308D5A16C07E06F
:1017B0000168C90503D4016821F008010160216CAA
:1017C00009B12046884794F85C10202088403042B8
:1017D00031D021680968C9062DD5A86094F8350074
:1017E00005282068016806D0490347D50068000332
:1017F0001DD4616C1CE021F0160101602068416974
:1018000021F080014161206C08B9A06C20B12068F2
:10181000016821F00801016094F85C103F208840C5
:10182000A86084F8358084F83490216D1FE0E16B66
:1018300009B120468847606D00282BD0606DC00735
:1018400014D0052084F835002068016821F00101DA
:1018500001600098401C0090B84203D820680068DE
:10186000C007F6D184F8358084F83490E16C002903
:1018700010D001B02046BDE8F04308470168C90513
:10188000D5D4016821F01001016084F8358084F816
:101890003490CCE7BDE8F883280000202DE9F04122
:1018A000044600F0C3F906465CB1022084F8350016
:1018B000002584F834502068016821F0010101609E
:1018C0000DE00120BDE8F08100F0B0F9801B052893
:1018D00005D920206065032084F83500F2E72068F0
:1018E0000068C007F0D12268116820480140D4E99F
:1018F00001031843D4E9033633431843636918439B
:10190000A3691843E3691843236A18430843616ACB
:10191000042903D1D4E90B1319430843106020684C
:101920004069666A20F0070130460E43012704280B
:101930000CD1A06A0643E06A40B12046FFF736F9B1
:1019400020B14020606584F83570BAE720684661B0
:101950002046FFF717F994F85C203F219140816001
:10196000656584F835700020ACE700003F8010F01A
:101970002DE9F0410446866D90F8340000250128D9
:101980000DD0012084F8340094F835700020012F28
:1019900007D084F8340002252846BDE8F0810220F3
:1019A000FBE7022784F8357060652046FFF728F9C9
:1019B00094F85C103F208840B0602068016841F0D6
:1019C00016010160206C20B12068016841F0080117
:1019D00001602068016841F001010160DCE700005E
:1019E00070B5044600F022F90546601C02D0044898
:1019F0000078044400F01AF9401BA042FAD370BDED
:101A00001C000020082801D101F0C2B97047000075
:101A1000044910B50A68024202D00860FFF7F2FFDD
:101A200010BD0000143C01402DE9F84FDFF8BCA1C7
:101A30000022012503264FF00F090AF1040BAAF139
:101A4000040E00BF0B6805FA02F42340A34270D1D4
:101A50000F7907F00307012F01D0022F16D18768F5
:101A60004FEA420806FA08FC27EA0C07D1F80CC036
:101A70000CFA08FC4CEA070CC0F808C04768A743FA
:101A80000C79C4F3001494403C4344600C79E44363
:101A9000A4070AD0C4684FEA420C06FA0CF7BC430C
:101AA0008F6807FA0CF72743C7600C7904F003042A
:101AB000022C12D1D40800EB840CDCF8204057072C
:101AC000FF0E09FA07F824EA0804D1F8108008FA92
:101AD00007F848EA0408CCF8208004684FEA420C72
:101AE00006FA0CF7BC430F7907F0030707FA0CF767
:101AF000274307604C6814F4403F70D03C4C276883
:101B000047F480472760246822F0030704F48044E8
:101B10000094384C07EB040CDCF8084897074FEAB0
:101B2000177809FA08F7BC43334FB84202D10027AF
:101B300024E054E0314FB84201D101271EE0304F7C
:101B4000B84201D1022719E02E4FB84201D1032734
:101B500014E02D4FB84201D104270FE02B4FB842BB
:101B600001D105270AE02A4FB84201D1062705E036
:101B7000284FB84201D1072700E0082707FA08F7E5
:101B80002743CCF80878DAF800405746D1F804C06B
:101B90009C435FEACC2C00D51C433C60DBF8004042
:101BA0005F46D1F804C09C435FEA8C2C00D51C43EF
:101BB0003C60DEF800407746D1F804C09C435FEA01
:101BC0008C3C00D51C433C60084F083F3C68D1F872
:101BD00004C09C435FEACC3C00D51C433C60521CD3
:101BE000102AFFF42FAFBDE8F88F0000083C014039
:101BF000443802400030014000000240000402402E
:101C000000080240000C0240001002400014024094
:101C100000180240001C02400069084000D001206A
:101C200070470AB1816170470904FBE70148806889
:101C3000704700001C00002070B5040025D094F807
:101C40003D00002520B984F83C50204600F050F9B2
:101C5000242084F83D002068016821F00101016022
:101C60002068016841F4004101602068016821F4A6
:101C70000041016000F0F4FA4D4A6168914201D8D8
:101C80004C4900E04C49884201D2012070BD4B49CB
:101C90002368B0FBF1F15E6826F03F060E435E60FC
:101CA0006368934206D94FF4967359434FF47A739D
:101CB000B1FBF3F12368491C1E6A26F03F0631434D
:101CC00019626168914210D84900401EB0FBF1F2E0
:101CD000521CC2F30B02042A01D2042022E0B0FB02
:101CE000F1F0401CC0F30B001CE0A268F2B301EB62
:101CF000C10303EB0116431EB3FBF6F35B1C43F475
:101D000080431B0549D092B301EBC10202EB0111E4
:101D1000401EB0FBF1F0401CC0F30B0040F48040CB
:101D200040F400402168CA694CF6FF739A4310439F
:101D3000C861D4E9071001432068026822F0C0029C
:101D400011430160D4E9030101432068826848F22D
:101D5000FF339A4311438160D4E9050108432168A8
:101D6000CA6822F0FF021043C86001E00EE016E0EE
:101D70002068016841F0010101602564202084F899
:101D80003D00256384F83E50002070BD01EB410604
:101D9000431EB3FBF6F35B1CB3E70120C2E701EB84
:101DA0004101401EB0FBF1F0401CC0F30B00B7E74F
:101DB000A086010080841E0000093D0040420F0003
:101DC0002DE9FF4F83B09A46DDE91197934604460B
:101DD000DDF84080FFF72AFF054694F83D002028F3
:101DE0007FD11923012240492046009500F0A6FE2C
:101DF000002876D194F83C00012872D0012084F8A4
:101E00003C0020680168C90703D1016841F0010165
:101E100001602068016821F400610160212084F8DC
:101E20003D00402084F83E0000262664C4F824804B
:101E3000A4F82A90608D20852C48E062CDE90075D9
:101E400053465A462046049900F0F8FD70B930E038
:101E50002A463946204600F017FF58B1206C042866
:101E600004D12068016841F400710160012007B0CD
:101E7000BDE8F08F606A216800780861606A401CE4
:101E80006062218D491E89B22185628D521E628554
:101E900022685369DB435B070BD469B1007810619A
:101EA000606A401C6062208D401E2085608D401E4F
:101EB0006085208D0028CBD12A463946204600F087
:101EC00011FE0028CAD154F83D0B016841F400719D
:101ED0000160202004F81E09E67766770020C6E737
:101EE000FFE70220C3E70000020010000000FFFF30
:101EF00010B586B0044614216846FEF70BFA134964
:101F00002068884220D112480021026842F0020273
:101F10000260006800F002000590C02000901220CE
:101F2000CDE901010320039004200490694609488B
:101F3000FFF77AFD06481030016841F40011016096
:101F4000006800F40010059006B010BD0054004079
:101F5000303802400004024002488168027811448F
:101F6000816070471C0000200B4810B5016841F4E7
:101F700000710160016841F480610160016841F411
:101F800080710160032000F09FF80F2000F006F838
:101F900000F050F8002010BD003C024030B505466E
:101FA0001F4887B00024016841F004010160006807
:101FB00006A900F00400009001A800F031F904988F
:101FC000A8B100F04DF940001649174AB0FBF1F1F5
:101FD0001648491E026040F2E732C0E90324C0E916
:101FE0000114846100F044FB040003D015E000F00C
:101FF00037F9E9E70D4800F069FB04000DD11E2018
:1020000000F034F8102D07D2002229461E2000F0DF
:102010003BF80748056000E0012407B0204630BDCA
:102020004038024040420F00000800403C030020BE
:10203000200000200C4882B0016841F4804101601A
:10204000006800F4804000900748001F016841F0DC
:10205000805101600068002200F0805000900F2144
:10206000901E02B000F010B844380240002809DB8E
:1020700000F01F02012191404009800000F1E020A2
:10208000C0F8001170470000F0B40E4B1B680C46FE
:10209000C3F30223C3F10705042D00D90425191D3C
:1020A000072901D2002300E0DB1E012606FA05F114
:1020B000491E214099409E40761E16403143F0BC97
:1020C00002F04AB80CED00E0064900F0070208688B
:1020D0004FF6FF03184040EA0220034A104308600D
:1020E000704700000CED00E00000FA052DE9F04714
:1020F0000E46050065D0DFF81481D8F80000F7B26D
:1021000000F00700B04207D288F80070D8F800004D
:1021100000F00700B04254D128683D4C810712D529
:10212000400703D5206840F4E0502060287800077D
:1021300003D5206840F4604020602068A96820F042
:10214000F000084320602878C0072DD03049686827
:102150000839012812D0022813D0032811D00968A9
:10216000890700292DDA216821F00301014321604C
:10217000FFF75CFD814641F2883A0EE00968890369
:10218000EFE709688901ECE7FFF750FDA0EB0901D3
:10219000514502D90320BDE8F0872068696800F046
:1021A0000C00B0EB810FEFD1D8F80010404601F0E1
:1021B0000701B14207D90770006800F00700B0427C
:1021C00001D00120E7E72878400705D52068E968B5
:1021D00020F4E050084320602878000706D52068E6
:1021E000296920F4604040EAC100206000F058F8FE
:1021F0002168084AC1F30311515CC84006490860D0
:1022000006480068FFF7CAFE0020C4E7003C024011
:1022100008380240D86E0008280000202000002066
:102220000F2202600C4A136803F003034360136833
:1022300003F0F0038360136803F4E053C360126893
:102240004FF4E05303EAD20202610448006800F050
:10225000070008607047000008380240003C024058
:102260000448054900680968044AC1F38221515CA9
:10227000C84070472800002008380240E86E000877
:102280000448054900680968044AC1F34231515CB9
:10229000C84070472800002008380240E86E000857
:1022A000154810B5006810F00C02144813D0411006
:1022B000042A0FD0082A0ED10F4C241F226823684D
:1022C00002F03F025B0207D52068C0F38810A0FB34
:1022D000010106E0084610BD2168C1F38811A1FB89
:1022E00000010023FDF7CCFF2168C1F30141491C27
:1022F0004900B0FBF1F010BD083802400024F400A2
:102300002DE9F84F04006ED02078DFF84C93C00719
:10231000A9F104054AD009F104000168C1F3810163
:10232000012908D00068C0F3810002280AD1D9F839
:102330000000400206D52868800337D56068002871
:10234000E1D033E06068B0F5803F10D0B0F5A02F49
:10235000286810D020F480302860286820F480207D
:1023600028606068A8B1FFF761FC06460DE02868A8
:1023700040F48030F4E740F480202860F7E700BFA5
:10238000FFF754FC801B642873D828688003F7D5B6
:102390000CE0FFF74BFC064605E000BFFFF746FCEC
:1023A000801B6428F0D828688003F7D42078DFF8F1
:1023B000AC8280074FF0000A3ED5A748001D016897
:1023C00011F00C0F08D00068C0F3810002280BD177
:1023D000D9F80000400207D42868800716D5E068C5
:1023E000012800D112E033E1E068B8B10120C8F85B
:1023F0000000FFF71BFC064605E000BFFFF716FCD8
:10240000801B0228C0D828688007F7D52868216972
:1024100020F0F80040EAC10028600DE0C8F800A0F4
:10242000FFF704FC064604E0FFF700FC801B0228CF
:102430001FD828688007F7D42078000722D5864F58
:1024400087486169703771B101210160FFF7EEFBC8
:10245000064604E0FFF7EAFB801B022809D838682B
:102460008007F7D50EE0C0F800A0FFF7DFFB0646B7
:1024700005E082E0FFF7DAFB801B02287DD8386890
:102480008007F7D42078400768D5DFF8CCB1002763
:102490000BF13C0BDBF80000C0000BD4DBF80010A4
:1024A00041F08051CBF80010DBF80000012700F06C
:1024B000805000906B4E3068C00510D4306840F4F6
:1024C00080703060FFF7B2FB009005E0FFF7AEFBD5
:1024D0000099401A022850D83068C005F6D55E4EE3
:1024E000A0686C3601280FD00528306810D020F085
:1024F00001003060306820F004003060A068B8B19E
:10250000FFF794FB00900FE0306840F00100F4E723
:1025100040F004003060F7E7FFF788FB0099411AAC
:1025200041F28830814266D830688007F4D50EE0E9
:10253000FFF77CFB009007E0FFF778FB0099411A5A
:1025400041F28830814256D830688007F4D42FB1E8
:10255000DBF8001021F08051CBF80010A069C8B35F
:102560003D49091D0968C1F3810102294AD00228A9
:10257000504607D0C8F8600000E03CE0FFF756FB8B
:1025800004463BE04746C8F86000FFF74FFB0646AD
:1025900005E000BFFFF74AFB801B02282BD8286804
:1025A0008001F7D4D4E907010843A16A2E4A4908FB
:1025B00002EB0141626A41EA8211084394F82C104F
:1025C00040EA0161C9F8001001203866FFF72EFBD0
:1025D000044606E03EE000BFFFF728FB001B022890
:1025E00009D828688001F7D534E000BFFFF71EFB4B
:1025F000001B022802D90320BDE8F88F286880015B
:10260000F4D427E00128F7D0D9F80000E26900F4FB
:10261000800191421CD1226A00F03F01914217D102
:1026200047F6C071626A0140B1EB821F10D1A26A05
:102630004FF0FF3300F4403103EB5202B1EB024F95
:1026400006D194F82C1000F07060B0EB016F01D04F
:102650000120D1E70020CFE70438024000004742C4
:10266000800E4742007000400000FFFF7047704737
:1026700010B5040003D094F83D0010B107E001202C
:1026800010BD002084F83C00204600F01EF8022017
:1026900084F83D00211D206801F0AEF8012084F887
:1026A000460084F83E0084F83F0084F8400084F837
:1026B000410084F8420084F8430084F8440084F820
:1026C000450084F83D00002010BD704790F83D1093
:1026D000012901D001207047022180F83D100168D6
:1026E000CA6842F00102CA6000681149884214D0E9
:1026F000B0F1804F11D00F4988420ED00E49884268
:102700000BD00E49884208D00D49884205D00D49AA
:10271000884202D00C49884204D1816801F0070147
:10272000062903D0016841F00101016000207047D3
:10273000000001400004004000080040000C004080
:1027400000040140004001400018004070472DE99E
:10275000F04104460068C66805694FF00007A90704
:1027600013D5B10711D5F91E01610120207720682A
:1027700080698007204602D0FFF7E8FF04E000F000
:102780007EF8204600F07CF82777680716D570079A
:1027900014D521686FF004000861022020772068BA
:1027A000806910F4407F204602D0FFF7CFFF04E09D
:1027B00000F065F8204600F063F82777280715D564
:1027C000300713D521686FF00800086104202077D6
:1027D0002068C0698007204602D0FFF7B7FF04E0F9
:1027E00000F04DF8204600F04BF82777E80616D5A4
:1027F000F00614D521686FF01000086108202077DA
:102800002068C06910F4407F204602D0FFF79EFF89
:1028100004E000F034F8204600F032F82777E807AB
:1028200008D0F00706D021686FF00100086120464B
:1028300000F028F8280608D5300606D521686FF084
:10284000800008612046FFF711FF680608D5700672
:1028500006D521686FF040000861204600F01CF8A2
:10286000A8060AD5B00608D521686FF020000861D7
:102870002046BDE8F041FFF7FABEBDE8F0817047A1
:102880007047000000680349884201D1FFF764BB2C
:102890007047000000080040704770B5040004D085
:1028A00094F84100002510B106E0012070BD84F8C5
:1028B0004050204600F024F8242084F8410020688D
:1028C000C16821F40051C160204601F029F8206858
:1028D000016921F4904101612068416921F02A01D8
:1028E00041612068C16841F40051C16065642020E5
:1028F00084F8410084F842006563002070BD000048
:1029000010B586B0044614216846FDF703FD14494E
:102910002068884221D113480021026842F0100249
:102920000260006800F0100005900E48143802683C
:1029300042F001020260006800F0010005904FF4CF
:10294000C06000900220CDE9010103200390072020
:10295000049069460448FFF767F806B010BD000010
:102960000010014044380240000002402DE9F843C5
:10297000044690F84100984616460D46202802D09D
:102980000220BDE8F88385B17EB10020606421207B
:1029900084F84100FFF74AF9A6848146E684A068DE
:1029A0002027B0F5805F02D003E00120E9E720692D
:1029B00010B12E4600250EE000260CE080212046B6
:1029C00001F034F8A8B9C6B116F8010B21684860C7
:1029D000E08C401EE084E08C4B464FF00002CDF8C6
:1029E00000800028EAD14FF04001204601F01EF897
:1029F00040B184F841700320C3E735F8020BC0F3FF
:102A00000800E3E784F841700020BAE7FEE70168B8
:102A10004A69D24352050FD46FF480624A610021A3
:102A200040F8301F202242738173026942F0040291
:102A30000261017301207047002070472DE9F843BF
:102A4000044600680D46DDE9089701689846164679
:102A500041F4807101604B4600224FF00111204685
:102A6000009700F06BF848B120680068C00502D5F7
:102A70004FF4007020640320BDE8F883216805F05E
:102A8000FE0008613B464A461549204600F09EF884
:102A900088B920684169806900903A4649462046D5
:102AA00000F0F2F848B1206C042804D120680168D5
:102AB00041F4007101600120DEE7F5B2B8F1010FC9
:102AC00009D02168300A08613A464946204600F09C
:102AD000DBF80028E7D1206805610020CCE7000082
:102AE0000200010070B516460D4604461EE0204661
:102AF000FFF78DFF08B1012070BD681C16D0FFF7ED
:102B000095F8801BA84200D885B920684069C04369
:102B100040070BD5002044F8300F20216173A073CB
:102B2000216941F0200121612073E4E720684069B8
:102B3000C0434007DBD4002070BD00002DE9F04702
:102B4000984617460D460446C1F30746DDF8209027
:102B50002AE000BFB8F1FF3F26D0FFF767F8A0EBEF
:102B60000901414502D8B8F1000F1DD12068012E9E
:102B700016D0806925EA00000004000C12D0002065
:102B8000B84211D1002044F8300F20216173A073A6
:102B9000216941F02001216120730120BDE8F08707
:102BA0004069E7E70120EBE72068012E0AD0806941
:102BB00025EA00000004000C06D00020B842C9D06D
:102BC0000020EBE74069F3E70120F7E72DE9F04744
:102BD000984616460D4604464FF000094FF0200A6D
:102BE000C1F3074723E020684069C043400515D47E
:102BF0002068016841F40071016021686FF4806011
:102C00004861C4F8309084F83DA084F83E90216C6F
:102C100041F00401216484F83C9021E0701C06D04E
:102C2000FFF704F8A0EB0800B04203D816B1012F5B
:102C30001FD021E02068012F15D0806925EA00000F
:102C40000004000C18D000BF44F8309F84F80DA099
:102C500084F80E90216941F02001216184F80C90E4
:102C60000120BDE8F087406925EA00000004000C5F
:102C7000EAD12068406901E02068806925EA000007
:102C80000004000CAFD1ECE770B516460D460446C3
:102C90001EE02046FFF7BBFE08B1012070BD681C96
:102CA00016D0FEF7C3FF801BA84200D885B9206864
:102CB0004069C04300060BD5002044F8300F2021A6
:102CC0006173A073216941F0200121612073E4E761
:102CD00020684069C0430006DBD4002070BD0000BE
:102CE00070B502004FF0000003D52D20524208704D
:102CF00001200A2392FBF3F403FB142492FBF3F26A
:102D000030340C54401C002AF4D10A540B782D2B7B
:102D100001D10122401C00EBD07500BFB2EB650F62
:102D20000EDA831A0B448C5C13F8016D34448C5416
:102D30001E78A41B1C708B5C1B1B8B54521CEDE774
:102D4000084670BD642202490248FEF793B80000AD
:102D500084030020D001002030B500210B4C0B462D
:102D60000A4600BF54F82150491CC9B22B4454F8FC
:102D70002150491CC9B22A446429F3D33224B3FB3D
:102D8000F4F1B2FBF4F2C0E9002130BD840300206D
:102D900010B508210648FEF73FFF012807D0054877
:102DA000002210210068BDE8104003F031B910BDC9
:102DB00000000240140000201CB5104C40F6AC5539
:102DC0004FF4FA766846FFF7C7FFDDE90010B1421D
:102DD00001D201210AE0A94201D9022106E0A8425C
:102DE00001D9042102E0B04203D20821206803F097
:102DF000C9F8642002F00AFFE4E700001400002094
:102E00007FB500251A48009501950295174903954D
:102E1000016001244FF480310461C0E9011504769A
:102E200080F820501349C0E90A150226C661C56022
:102E300080F830404461FDF7A6FF08B1FDF7F8FEC9
:102E4000009469460A48CDE90145FDF7F3FE08B153
:102E5000FDF7EEFE0096694605480196FDF7EAFE8D
:102E6000002801D0FDF7E4FE7FBD000000200140F6
:102E7000D00100200100000F0F4810B50D4901607E
:102E80000621416000214FF400328160C0E9031245
:102E900012014261017641768176C17601774177F0
:102EA000FEF701FB002803D0BDE81040FDF7C0BECF
:102EB00010BD00000064004078020020094808B5F9
:102EC000016841F4800101600068002200F4800084
:102ED000009005213820FFF7D7F8BDE808403820DA
:102EE000FFF7C4B8303802402DE9FC4100F0E0F9AA
:102EF000FFF728FF00F019F926A001F01DF90322C1
:102F00000021012003F0A0F9294C03220021E060F8
:102F1000012003F099F9206100220421012003F02F
:102F200093F9606000220421012003F08DF9A06074
:102F3000204A0021204801F0AFFEA06121461B205D
:102F4000CDE90001002380221CA1204803F050FDA0
:102F500000251A20CDE900054FF480772B463A462C
:102F60001BA11D4803F044FD1926CDE9006500238F
:102F70003A461AA11D4803F03BFDCDE90065002348
:102F800080221BA11E4803F033FD02F0EDFF6061BB
:102F9000BDE8FC8145766572797468696E67206961
:102FA0007320496E69746564A3A10D0A00000000D6
:102FB00000000020AC6E0008253700084D6F746FCC
:102FC000725069645461736B000000008D31000819
:102FD00055495461736B0000053F00085549416332
:102FE00074696F6E5F5461736B000000A13A000852
:102FF0004A6F79737469636B5461736B00000000EE
:10300000B92D000870B586B014216846FDF782F925
:1030100024480024016841F080010160016801F04A
:1030200080010591016841F001010160016801F032
:1030300001010591016841F00201016000681A4E2A
:1030400000F002004FF480750590002229463046BA
:10305000FEF7E7FD082000904FF444100190022095
:10306000029069463046FEF7DFFC00950125CDE968
:103070000154694630460394FEF7D6FC20200090A8
:103080004FF48810CDE9010569460848FEF7CCFCED
:10309000002205210920FEF7F7FF0920FEF7E6FFD1
:1030A00006B070BD3038024000000240000402400B
:1030B0000D4810B50B4901600C49416000214FF4E7
:1030C00080428160C0E9031241618161C161016296
:1030D000FEF7B2FD002803D0BDE81040FDF7A8BD03
:1030E00010BD000000540040A0020020A086010096
:1030F0000C4810B50A4901604FF4E13141600021EC
:1031000081600C22C160C0E904128161C161FFF7D6
:10311000C4FB002803D0BDE81040FDF789BD10BDF9
:1031200000100140F4020020FEE700F065B8000046
:10313000DFED102A9FED103A00B5B0EE622AF0EEF6
:10314000621AB0EE431ADFED0D0A9FED0D0A0D482D
:1031500000F0CBF90B48B0EE622AF0EE621AB6EE40
:10316000001AF0EE430A9FED080A24305DF804EBE4
:1031700000F0BBB900401C460000000017B7D13872
:103180006F12033C140500200000204208B59FED9B
:10319000160A8DED000AFFF7CBFF144C00231A46E8
:1031A0001946206803F0E8F8114E124D4FF0FF3732
:1031B0003946206803F026FB00226946306803F098
:1031C000EBF9D5EC020A9DED000A01F049FC012063
:1031D00000F042FA00231A461946206803F0CCF8A2
:1031E000012002F013FDE3E7000000000C000020C6
:1031F000040000202C00002000B58BB0002001212D
:10320000CDE906010891009001900290039005908D
:10321000049069460548FDF747FF0448FEF73AFA6F
:1032200002210248FDF7D0FE0BB000BD780200205D
:10323000FEE7002000F020B82DE9F0479846174639
:10324000824600260C46DDF8209010E021465046CC
:1032500000F088F8554606E019F80600761C00F0E4
:1032600059FF6D1CEDB2BD42F6D3641CE4B2444577
:10327000ECD3BDE8F087000070B506465FF00004AF
:1032800004F1B000C0B200F033FF022000F030FFC4
:10329000102000F02DFF0025304600F03BFF6D1C94
:1032A000EDB2802DF8D3641CE4B2082CE8D370BDD5
:1032B00010B56420FEF794FBAE2000F019FF20202B
:1032C00000F016FF102000F013FFB02000F010FFF8
:1032D000C82000F00DFF022000F00AFF102000F0CF
:1032E00007FF402000F004FF812000F001FFFF20D5
:1032F00000F0FEFEA12000F0FBFEA62000F0F8FE8C
:10330000A82000F0F5FE3F2000F0F2FEA42000F01F
:10331000EFFED32000F0ECFE002000F0E9FED52007
:1033200000F0E6FEF02000F0E3FED92000F0E0FE21
:10333000222000F0DDFEDA2000F0DAFE122000F09C
:10334000D7FEDB2000F0D4FE202000F0D1FE8D203F
:1033500000F0CEFE142000F0CBFEBDE81040AF2000
:1033600000F0C6BE10B50446B031C8B200F0C0FED1
:10337000102040EA141000F0BBFE04F00F00BDE87E
:10338000104040F0010000F0B3BE00002DE9F0470E
:10339000002591468A460446012B22D0DFF8BC80E6
:1033A000022B24D155E02038C7B27E2C04D90AF173
:1033B0000100002400F0FF0A51462046FFF7D2FF2B
:1033C00007EB4700002608EB4007B85D00F0A2FEBF
:1033D000761CF6B2062EF8D3A41D6D1CE4B2EDB235
:1033E00001E0DFF87C8019F805000028DBD1BDE89A
:1033F000F0872038C7B2782C04D90AF101000024E4
:1034000000F0FF0A51462046FFF7ACFF5FF00006D0
:1034100006EB071118F8010000F07CFE761CF6B2EE
:10342000082EF5D30AF10100C1B22046FFF79AFF3A
:103430005FF0000606EB071101EB0800007A00F0D0
:1034400069FE761CF6B2082EF4D308346D1CE4B283
:10345000EDB219F805000028CBD1C8E73872000892
:103460001070000890ED031A70EE600A80ED041AE7
:10347000C0ED030A30EEC10A90ED021A90ED012A68
:1034800020EE011A90ED000A60EE801A90ED050A18
:1034900000EE820A80ED050AD0ED060AB4EEE00ADD
:1034A000F1EE10FA06DCF1EE600AB4EEE00AF1EE9D
:1034B00010FA01D2C0ED050A31EE810AD0ED050AFD
:1034C00030EE200A80ED070AD0ED080AB4EEE00ADB
:1034D000F1EE10FA06DCF1EE600AB4EEE00AF1EE6D
:1034E00010FA01D2C0ED070A7047C0ED061A80ED50
:1034F000082A80EC030A70471CB51548C478684652
:1035000001F076FB9DF8000002281CD003281AD099
:10351000042818D00E49B0310D2C17D0641CE4B229
:1035200001EBC40010F8080C0228F5D00328F3D0F2
:103530000428F1D001F00AFB204602F06DF802F0F9
:10354000FFF800201CBD4FF0FF301CBD0124E7E751
:103550003400002070B50F480D4D002490F8030092
:1035600015F8241081420DD101F0F0FA094805EB5D
:1035700084010C308078405C02F04EF802F0E0F8F4
:10358000002070BD641C052CEADB4FF0FF3070BDDD
:10359000AF8300083400002070B50F480D4D0024A3
:1035A000C278012005EB84010B5C934209D101F044
:1035B000CDFA15F8240002F02FF802F0C1F800202F
:1035C00070BD401C0428EFDB641C052CE9DB4FF0C8
:1035D000FF3070BDAF830008340000201CB51548D3
:1035E000C478684601F004FB9DF8000002281CD056
:1035F00003281AD0042818D00E49B031012C17D056
:10360000641EE4B201EBC40010F8080C0228F5D0E7
:103610000328F3D00428F1D001F098FA204601F0F5
:10362000FBFF02F08DF800201CBD4FF0FF301CBDE9
:103630000D24E7E7340000200648272101715721B7
:103640004171002181710621C17141700221017017
:10365000704700003400002000B589B00021DFED84
:10366000130A08220291CDE9031220EE200A0691E6
:10367000079106A9BDEEC00A01EB4001042806D857
:103680005001009010EE100A21F8020C06E04FF4F1
:103690000070009010EE100A21F80A0C08AB06AA80
:1036A00069460348FDF7A2FC09B000BD00007A445A
:1036B000780200201CB5684601F09AFA9DF80000D7
:1036C000012802D04FF0FF301CBD9DF802109DF87C
:1036D0000100012901D0491EC8B201F085FF01F0A7
:1036E00061FA02F059F800201CBD1CB5684601F0D3
:1036F0007FFA9DF80000012802D04FF0FF301CBD7A
:103700009DF801109DF80200884201D1012001E0DE
:10371000401CC0B201F068FF01F044FA02F03CF82E
:1037200000201CBD012002F071FAFBE710B54FF03C
:10373000E020006903F0B4F9012803D0BDE810408F
:1037400002F06CBD10BD000030B593B0302168466A
:10375000FCF7E0FD14210CA8FCF7DCFD1D4800255A
:10376000016841F080510160006800F080501190C4
:103770001948016841F4804101600068022400F4A6
:103780008040119001200090000401908001CDE95B
:10379000064008AA0420A82182E813000B9068467E
:1037A000FEF7AEFD08B172B6FEE70CA90F2081E866
:1037B00031004FF4A0500F904FF48050109005212D
:1037C0000CA8FEF793FC002801D072B6FEE713B0F8
:1037D00030BD0000403802400070004002480168DF
:1037E00041F470010160704788ED00E00148FEF788
:1037F000AEBF00003C030020F0B50268294C2A4D02
:103800002A4E2B4F2B4B4FF0804CA04209D06045E5
:1038100007D0A84205D0B04203D0B84201D09842A8
:1038200004D122F0700E4A6842EA0E02A0421BD078
:10383000604519D0A84217D0B04215D0B84213D075
:10384000984211D01C4DA8420ED01C4DA8420BD05E
:103850001B4DA84208D01B4DA84205D01A4DA842C6
:1038600002D01A4DA84203D122F44075CA682A43F7
:103870004D6922F080022A4302608A68C2620A68A7
:103880008262A04201D0984201D1096901630121FD
:1038900041610169C90703D0016921F0010101619A
:1038A000F0BD00000000014000040040000800409E
:1038B000000C004000040140004001400044014071
:1038C0000048014000180040001C0040002000405B
:1038D00001680C3151E8002F22F4907241E8002376
:1038E000002BF5D10168143151E8002F22F00102BC
:1038F00041E80023002BF5D1016B012909D10168B2
:103900000C3151E8002F22F0100241E80023002B77
:10391000F5D1202180F8421000210163704700009A
:1039200070B5044600680169E26821F44051114312
:1039300001612169A068E269084361691143084394
:103940002168CA6849F20C639A430243CA6020683E
:103950004169A26921F440711143416131492068F4
:10396000884202D03049884202D1FEF789FC01E04A
:10397000FEF776FCE2690023192164253226B2F5B0
:10398000004F626828D0A0FB0101930F9200FCF762
:1039900077FC0146B0FBF5F06FF01802504301EBE5
:1039A000800006EB0010B0FBF5F000F0F002B1FB78
:1039B000F5F002EB0012B1FBF5F06FF0180358437D
:1039C00001EB800006EB0010B0FBF5F000F00F00FB
:1039D00021681044886070BDA0FB010192185B4112
:1039E000FCF74EFC0146B0FBF5F00201B1FBF5F02F
:1039F0006FF01803584301EB800006EBC000B0FBEA
:103A0000F5F000F0F80002EB4002B1FBF5F058438E
:103A100001EB800006EBC000B0FBF5F000F0070002
:103A2000D6E7000000100140001401402DE9F843E2
:103A3000984617460D460446089E24E0701C22D086
:103A4000FEF7F4F8A0EB0800B0421AD8CEB1206817
:103A5000C168490717D5802D15D0402D13D00168B6
:103A6000C94309070FD4016800254068009020462B
:103A7000FFF72EFF0820606484F840500120BDE865
:103A8000F8830320FBE72068006835EA000004D0D3
:103A90000020B842D2D00020F1E70120F9E7000071
:103AA0002DED0C8B8AB0DFEDEF8AEF4ECDED018A64
:103AB000CDED008A4FF0FF359FEDECCB9FEDEDBBD8
:103AC0009FEDEE9B9FEDEFABF04FDFF8C4B3DFF857
:103AD000C483DFF8C4A3F14C2946206802F092FEAB
:103AE0002A466946306802F057FD01F089F88146A0
:103AF00004A801F07DF80498C0B2022807D004A8F9
:103B000001F076F80498C0B203287CD0A2E1A9F1B4
:103B100002000628FAD2DFE800F023034C4D61AC26
:103B20000098FCF7B6FD53EC1B2BFCF7B5FC41EC01
:103B30001D0B3868FCF7ADFD53EC1D2BFCF7D4FDD5
:103B4000E4D29DED000A02230022B1EE400A8DED81
:103B5000010A01A9D8F8000002F00EFC022022E0C0
:103B60000098FCF796FD53EC1C2BFCF795FC41EC00
:103B70001D0B3868FCF78DFD53EC1D2BFCF79CFDED
:103B8000C4D20098FCF785FD53EC192BFCF784FC9C
:103B9000FCF7C2FD01900223002201A9D8F8000021
:103BA00002F0EAFB032001F09DFE4FF47A7002F070
:103BB0002DF84FE10098FCF76CFD9FEDB91B53EC1D
:103BC000112BFCF769FC41EC1D0B3868FCF761FD1B
:103BD00053EC1D2BFCF770FD98D25BE00098FCF7CE
:103BE00058FD9FEDB11B53EC112BFCF755FC41EC3C
:103BF0001D0B3868FCF74DFD53EC1D2BFCF774FDD5
:103C0000009813D200E054E0FCF743FD53EC1A2B6C
:103C1000FCF742FCFCF780FD01900223002201A981
:103C2000D8F8000002F0A8FB0520BCE7FCF731FD46
:103C300053EC1C2BFCF730FC41EC1D0B3868FCF7F7
:103C400028FD53EC1D2BFCF737FDB2D20098FCF792
:103C500020FD53EC192BFCF71FFCFCF75DFD0190D8
:103C60000223002201A9D8F8000002F085FB0720FA
:103C700099E70098FCF70DFD53EC1B2BFCF70CFCAF
:103C800041EC1D0B3868FCF704FD53EC1D2BFCF7D1
:103C90002BFD8ED29DED000A02230022B1EE400AD8
:103CA0008DED010A01A9D8F8000002F065FB06209D
:103CB00079E704A800F09CFF9DED008A18EE100A39
:103CC000FCF7E7FC53EC1A2BFCF7E6FBFCF724FDB2
:103CD000069018EE100AFCF7DCFC53EC192BFCF7ED
:103CE000DBFBFCF719FD079097ED000A30EE080AA0
:103CF000B1EE400A10EE100AFCF7CBFC9FED6C1BF6
:103D000053EC112BFCF7CBFB9FED6B1B53EC112BF2
:103D1000FCF71EFBFCF700FD08EE100A684918EEE0
:103D2000100A88427CD818EE100A584578DA00212B
:103D3000DAF8000002F066FD0120B0EE680AFFF735
:103D40008BFC97ED000A02238DED010A002201A9E8
:103D5000D8F8000002F010FBB5EEC08AF1EE10FAC0
:103D600001D200200BE018EE100A5649884201DD0E
:103D7000642004E0BCEEC80A10EE100AC0B201F0E4
:103D800033FC4846B9F10B0F3ED00C2803D0B9F1F3
:103D90000D0F39D119E002A800F02AFF0298C0F3F4
:103DA000074000EE100AB8EE400A10EE100AFCF7C9
:103DB00070FC9FED451B53EC112BFCF770FBFCF7DF
:103DC0004FFCC0B201F058FC1EE002A800F010FF4A
:103DD0000298C0F3074000EE100AB8EE400A10EE59
:103DE000100AFCF756FC9FED3A1B53EC112BFCF725
:103DF00056FB9FED391B53EC112BFCF7A9FAFCF78E
:103E00002FFCC0B201F014FC01F00EFD02A800F07E
:103E1000EFFE0298000C40B201F05AFC1AE0FFE7F6
:103E200018EE100A884203D90223002206A906E0F0
:103E300018EE100A58450DDB0223002207A9D8F816
:103E4000000002F099FA00231A461946DAF8000039
:103E500002F092FA00231A461946206802F08CFA02
:103E60003AE6000000000000080000200827435444
:103E7000FB21E9BF320D337F7CD902C0EA2E4454C6
:103E8000FB2109C0EA2E4454FB2109402C000020EC
:103E90000000D242040000200C000020100000208E
:103EA000320D337F7CD9024008274354FB21E93F80
:103EB000FE468BABBBD42F40000000000000494001
:103EC0000000A0C00000C8426666666666660440E0
:103ED0009A9999999999D93F0000000000003440BF
:103EE00010B5FFF7E5F9FFF7A4F9FFF7A5FB0120EF
:103EF00001F092FB01F024FCBDE810404FF47A7011
:103F000001F084BE2DED068B88B09FED6C0A8DED1F
:103F1000010A8DED040AFFF7E3FF9FED699B9FED1A
:103F20006A8B6B4E6B4C4FF0FF3502A800F060FEC1
:103F3000029810F0FF0014D0012812D00095002341
:103F400001220F21206802F06BF82946306802F048
:103F500059FC02A800F04CFE0298C0B203287DD0A4
:103F6000A1E00095002301221F21206802F058F8EB
:103F70000028DAD0410702D5FFF7BEFA89E0010731
:103F800002D5FFF72BFB84E0810702D5FFF792FBF8
:103F90007FE0C10702D0FFF7A8FB7AE0C00678D522
:103FA0004D48002201A9006802F0F6FA00F028FE50
:103FB000FFF7D0FA00F024FE074602A800F018FE32
:103FC0000298C0B2022807D002A800F011FE0298A1
:103FD000C0B2032824D04FE0BF1E062F4CD2DFE82A
:103FE00007F010174B0310170198FCF752FB53EC26
:103FF000182B41EC100B00BF51EC100BFCF74CFAE6
:1040000037E09DED010AB1EE400A8DED040A33E080
:104010000198FCF73EFB41EC100B53EC192BEBE73E
:104020000198FCF736FB41EC1A0B02A800F0E0FD0A
:104030000298C0F3074000EE100AB8EE400AB1EE55
:10404000400A10EE100AFCF724FB53EC182BFCF787
:1040500026FA9FED221B53EC112B00E01CE0FCF72D
:1040600090FA53EC182BFCF773F953EC1A2BFCF76E
:1040700010FAFCF751FB04901A480223002204A90D
:10408000006802F079F900231A461946306802F0F8
:1040900073F94FF42F700AE0134800231A461946AB
:1040A000006802F069F9FFF777FA4FF4FA7001F04F
:1040B000ADFD1F21206801F037FF36E7000000004A
:1040C000EA2E4454FB2109C0EA2E4454FB21094046
:1040D0001000002014000020040000200000000058
:1040E00000004940080000200C000020FEE700000E
:1040F00001B584B00121642204A88DE807000B46B5
:10410000002278210248FDF75BFE05B000BD0000EB
:10411000A002002001B584B00121642204A88DE82A
:1041200007000B46402278210248FDF749FE05B002
:1041300000BD0000A00200200FB4054B10B503A97C
:10414000044A029800F0DAF810BC5DF814FB000095
:10415000D94B0008CC0100200907090E002804DB18
:1041600000F1E02080F80014704700F00F0000F12B
:10417000E02080F8141D704702E008C8121F08C133
:10418000002AFAD170477047002001E001C1121FD8
:10419000002AFBD1704700002DE9FF5FDDE9022016
:1041A000010DDDF838B0024318D044F61050A1F2EA
:1041B000FF3141430D140F98012820D0A5EB0B00CF
:1041C000401C5FEA000A4FF00004474EDFF81C91E4
:1041D000A046504616D5CAF1000728E00F980124E2
:1041E00043A2012808D0002100980F9BC0E90021BC
:1041F000C0E90243BDE8FF9F6FEA0B01F4E7CBF192
:104200000000DEE7074612E0F80707D022463346F3
:1042100040464946FCF743F98046894622463346E4
:1042200010461946FCF73BF904460E467F10002F56
:10423000EAD1DDE90201BAF1000F42464B4602DA4B
:10424000FCF72DF901E0FCF79CF904460E4600222C
:10425000284BFCF749FA03D84FF0FF30014607E03E
:104260000022254B20463146FCF772F8FCF74BFB49
:10427000102409E0002C0ADB0A220023FCF700F8D6
:10428000019B30321A55641E50EA0102F2D1641CBF
:10429000019AC4F1110314440F9A012A03D0012298
:1042A00008430DD10AE0084304D000204FF0110B61
:1042B0000F9080E7A3EB0B056D1E0DE05B4504DD61
:1042C0004FF0000205F1010504E003DA4FF00002AF
:1042D000A5F10105002AECD000980F99C0E9023140
:1042E000C0E9004586E70000000024400000F03FE0
:1042F000300000000000F0430000E03F2DE9FF4FD8
:1043000095B09B468946064600250FE2252877D1C1
:1043100000242746F84A0121059400E0044316F8DA
:10432000013F203B01FA03F01042F7D130782A28F0
:1043300011D06FF02F033078A0F13002092A16D87F
:10434000059A44F0020402EB820203EB420210449D
:10435000761C0590EFE759F8042B0592002A03DA42
:10436000504244F40054059044F00204761C307826
:104370002E2816D116F8010F44F004042A280DD077
:104380006FF02F023078A0F13003092B09D807EB2A
:10439000870302EB4303C718761CF3E759F8047B45
:1043A000761C30786C280FD006DC4C2817D0682893
:1043B0000DD06A2814D104E0742810D07A280FD1C7
:1043C0000DE044F400140AE044F4801401E044F4E5
:1043D00040147278824202D104F58014761C761C57
:1043E000307866280BD013DC582877D009DC0028F9
:1043F00075D04528F6D04628F4D047281AD19DE13B
:1044000018E0632835D0642879D0652812D195E169
:10441000702873D008DC6728F1D069286FD06E2827
:104420000DD06F2806D1B5E073282CD0752875D033
:10443000782874D05A46179990476D1C75E1C4F3DB
:104440000250022809D003280DD0D9F80010042802
:104450000DD00D6009F1040967E1D9F80010EA17E1
:10446000C1E90052F6E7D9F800100D80F2E70D70AF
:10447000F0E719F8041B8DF8001000208DF80100FA
:10448000EA46012003E059F804AB4FF0FF30610722
:104490004FF0000102D40DE008F101018846B94255
:1044A0000FDA8045F8DB1AF808100029F4D108E08B
:1044B00008F1010188468142FADB1AF80810002948
:1044C000F6D105985B46A0EB080721463846179AB7
:1044D00000F094FA284400EB080507E04DE029E1DC
:1044E0000DE01AF8010B5A4617999047B8F10108E8
:1044F000F7D25B4621463846179A13E142E00A227A
:104500000092C4F302524FF0000A022A08D059F870
:1045100004CB032A4FEAEC710AD00DE029E02AE02F
:1045200009F1070121F00702F2E802C1914609E012
:104530000FFA8CFC4FEAEC71042A03D14FFA8CFC81
:104540004FEAEC71002907DA0A460021DCF1000C81
:1045500061EB02012D2202E0220504D52B228DF809
:104560000420012203E0E20701D02022F7E7904671
:1045700059E00A2102E010220DE010214FF0000A5C
:1045800000910BE010224FF0000A44F004040827C9
:10459000009203E008224FF0000A0092C4F3025296
:1045A000022A05D059F804CB0021032A08D009E0DB
:1045B00009F1070121F00702F2E802C1914605E086
:1045C0001FFA8CFC042A01D10CF0FF0C4FF00008FC
:1045D000220728D5702806D0009B83F0100353EAE9
:1045E0000A0305D00EE040228DF80420012208E0E5
:1045F0005CEA010206D030228DF804208DF8050017
:1046000002229046009B83F0080353EA0A030AD172
:104610005CEA010201D1620705D530228DF8042041
:104620004FF001087F1E582804D034A003900EA834
:1046300002900DE036A0F9E753466046009AFBF77A
:104640001FFE84460398825C0298401E029002700E
:104650005CEA0100F0D1029806A9081A00F1200ACC
:10466000600702D524F4803400E00127574502DDBD
:10467000A7EB0A0000E0002000EB0A01009005987B
:104680004144401A0590E00306D45B462146179A40
:10469000059800F0B3F90544002706E001A85A4642
:1046A000C05D179990476D1C7F1C4745F6DBE00302
:1046B0000CD55B462146179A059800F09FF90544F2
:1046C00004E030205A46179990476D1C0099481E07
:1046D00000900029F5DC08E0029802995A4600781B
:1046E000491C0291179990476D1CBAF10001AAF17B
:1046F000010AF1DC65E100000928010030313233A4
:10470000343536373839616263646566000000000D
:1047100030313233343536373839414243444546F7
:104720000000000000F058F90544761C307800289D
:104730007FF4ECAD19B02846BDE8F08F620700D4D5
:10474000062709F1070222F0070CFCE80223E146E4
:1047500003F000485FEA080C02D00FF2702C0DE065
:104760005FEA045C02D50FF2682C07E05FEAC47CC4
:1047700002D00FF2602C01E0AFF2700C4FF0FF3866
:1047800023F00043CDF850C065280CD006DC452846
:1047900009D046281DD047283DD13DE0662818D0D5
:1047A00067287ED138E00021112F01DB112000E0C5
:1047B000781CCDE9000106A90EA8FFF7EDFCDDE9A4
:1047C0000F010E9A03910021009207F1010A049152
:1047D0004DE04FF000400097CDE9011006A90EA86A
:1047E000FFF7DAFCDDE90F0203920E9B119900221C
:1047F000DDF80CA00093049211B9791C00EB010ABA
:10480000B7EB0A0004D4C0F1FF3007F1010A0490AD
:10481000AAEB0700019044E0012F00DA01270021F4
:10482000112F01DD112000E03846CDE9000106A975
:104830000EA8FFF7B1FCDDE90F010E9A03910021EC
:1048400004910092BA4621070CD40399514500DA2D
:104850008A46BAF1010F05DD009AAAF10101515C07
:10486000302908D0B84202DA10F1040F06DA01212B
:10487000CDE9011015E0AAF10101E9E7002805DC06
:10488000049901440491AAEB000102E0411C514546
:1048900000DD8A460499401A401C01904FF0004008
:1048A0000290200704D40198504501DBCDF8048024
:1048B00000208DF84F0002980DF14F07B0F1004F26
:1048C00025D02B200E9002984FF0020800280CDA19
:1048D000404202902D200E9007E00A210298FBF73B
:1048E00037FF3031029007F8011DB8F10001A8F13F
:1048F0000108F2DC02980028EFD1791E0E980870AA
:10490000307800F0200040F0450007F8020D12A8B2
:10491000C01B00F107081498007800B1012000EBDB
:104920000A01019801EBE07105984144401A401ECC
:104930000590E00306D45B462146179A059800F0DF
:104940005DF805441498007818B15A4617999047B5
:104950006D1CE00324D55B462146179A059800F0AC
:104960004DF805441CE00498002807DBDDE903014D
:10497000884203DD0098405C179901E017993020C8
:104980005A469047049805F10105401C049001988F
:10499000401E019004D12E205A46179990476D1C55
:1049A000BAF10001AAF1010ADDDC05E017F8010BFC
:1049B0005A46179990476D1CB8F10001A8F10108FB
:1049C000F4DC5B462146179A0598ABE62D00000003
:1049D0002B000000200000002DE9F04104460025D6
:1049E0001E461746880404D405E039462020B04707
:1049F0006D1C641EF9D52846BDE8F0812DE9F04113
:104A0000044600251E469046C80301D5302700E025
:104A10002027880404D505E041463846B0476D1C80
:104A2000641EF9D52846BDE8F081000070B50B4D35
:104A30002878032802D04FF0FF3070BD03210E20EC
:104A4000FEF790FC002403E0FF20FFF763FB641CEB
:104A5000A878A042F8DA002070BD000040000020D5
:104A600000B5F0EE412A0848FEF7FCFC0648F0EEDF
:104A7000620A90ED070A2438FEF7F4FC0248243855
:104A800090ED070A00BD00003805002070B5002435
:104A9000A01DC1B20020FEF765FC00250020FFF735
:104AA00039FB6D1CEDB2102DF8D3641CE4B2022C5E
:104AB000EED30024A01DC1B27020FEF753FC0025E8
:104AC0000020FFF727FB6D1CEDB2102DF8D3641CFE
:104AD000E4B2022CEED370BD70B500242146002054
:104AE000FEF740FC00250020FFF714FB6D1CEDB223
:104AF000102DF8D3641CE4B2022CEFD370BD10B5B6
:104B000003210C20FEF72EFC00240020FFF702FBFF
:104B1000641CE4B2672CF8D910BD000070B50A4ED1
:104B20000024B0792044C1B23079FEF71BFC002587
:104B30000020FFF7EFFA6D1CEDB2302DF8D3641CA6
:104B4000E4B2062CEDD370BD34000020144810B53B
:104B50000078032804D0012816D0022817D018E0C6
:104B6000322001F053F8FFF7B7FF322001F04EF882
:104B7000FFF7C5FF322001F049F800F013F8BDE857
:104B80001040322001F042B8FFF780FF01E0FFF74C
:104B9000A3FFFFF7C3FFBDE8104000F003B800001B
:104BA0004000002070B50B4E002470782044C1B244
:104BB000307AFEF7D7FB002504E00020FFF7AAFAC1
:104BC0006D1CEDB2707A8542F7D3641CE4B2022CFE
:104BD000EBD370BD3400002013B54FF6FF730122F4
:104BE00069460248FDF7C2FE00981CBDF402002091
:104BF000024AD2E90312C0E90012704734000020D3
:104C00000148C0787047000034000020FDF7ACF97F
:104C1000FEF79AFDFEF7F6F9FEF750F9FEF72CF9CC
:104C2000FEF766FAFEF7ECF8FEF742FA00F006F837
:104C3000FEF75AF900F014F8FEE70000EFF30580E4
:104C400010B16FF0050070470448016811B14FF0D2
:104C5000FF30704701210160002070479C01002057
:104C600010B5EFF3058010B16FF0050010BD0848D6
:104C70000168012902D04FF0FF3010BD054A002124
:104C800082F8141D0221016001F0D0F8002010BD4F
:104C90009C0100200BE000E02DE9FF410B464FF0A6
:104CA0000005EFF30581039549BB40B38027182128
:104CB00000244AB3166806B1344696691EB13146DF
:104CC000761E382E02D21679F60703D0002004B0E3
:104CD000BDE8F081566906B1B708D2F808C0BCF14A
:104CE000000F0DD0D5685C2D18D312693AB136B1DA
:104CF0008DE806103A46214601F0A7FE03900DE02C
:104D0000D6685EB912694AB903AACDE90012BAB2EF
:104D1000214601F06DFE012800D003950398D6E7E7
:104D20002DE9F041134C0F460546E6682068001D4A
:104D300000F02AFE681C07D137B12168BDE8F041B8
:104D40000D48091D00F07EBE20683544B54245601F
:104D5000216805D2A06BBDE8F041091D00F05ABEE4
:104D6000606B091D00F056FEA06A854200D2A56264
:104D7000BDE8F0814C0100204C0A00202DE9F041F3
:104D8000054600F06BFE2D4CA068401CA06020681A
:104D90002B4F10B1606930B32BE02560A06801286B
:104DA00027D1002606EB860007EB800000F024FEEA
:104DB000761C382EF6D3234800F01EFE214814300E
:104DC00000F01AFE1F48283000F016FE1D483C3047
:104DD00000F012FE1B48503000F00EFE19486063D0
:104DE0001430A06305E02068E96AC06A884200D8F0
:104DF0002560606A401C60626864E86A21698842D4
:104E000000D9206100EB800007EB8000291D00F035
:104E100019FE00F043FE606900280CD02068E96AA2
:104E2000C06A884207D208494FF080500860BFF33B
:104E30004F8FBFF36F8FBDE8F08100004C01002061
:104E40009C050020FC09002004ED00E038B500F0CE
:104E500005FE104C2068C8B90F4800F0CDFD0E4883
:104E6000143000F0C9FD0C48E060143020610A4B9A
:104E70000020F03B009003F1500210210A2001F0C5
:104E800004FA206010B105A100F08AFEBDE83840A8
:104E900000F004BE88010020500B0020546D7251B8
:104EA0000000000030B4026C0B46002A0BD0C16831
:104EB0001144C1608468A14201D30168C16030BC63
:104EC0001846FBF70EBA30BC70472DE9F041856BF0
:104ED000174604460026026C82B1C7B1E068FBF7B2
:104EE00000FAE168206C091AE1602268914202D25E
:104EF000A168081AE060022F16D017E02068A8B950
:104F0000A06801F045FE06460020A0600EE0606843
:104F1000FBF7E7F9216C606808446060A16888428B
:104F200004D32068606001E005B16D1E6D1CA563AF
:104F30003046BDE8F08110B5044690F8590058B1EC
:104F400001280CD002280FD0502080F31188BFF325
:104F50004F8FBFF36F8FFEE7206B00F0B3FD20464D
:104F6000BDE8104000F0AEBD10BD000010484FF489
:104F70007051420706D0C01D0D4920F00700411AAC
:104F8000C1F570510B4A00230144C2E900030839FE
:104F9000183A21F0070111604B600B600B1AC0E951
:104FA000001393604FF00040536050617047000061
:104FB00030120020B8010020144E154CA6F29C4778
:104FC0004FF08058DFF84C9012E000BF00F046FD33
:104FD000F068C568281D00F0D7FCA068401EA060DE
:104FE0006068401E606000F059FD2846FFF7A3FF8F
:104FF00060680028EAD138680128F9D9C9F800802A
:10500000BFF34F8FBFF36F8FF2E70000380A002025
:105010004C01002004ED00E070B51D46049C51B128
:10502000C4F80020C4E90F010121204601F060F915
:1050300084F84C5070BD2460F4E700002DE9F05F67
:105040008846DDE90B941546834691009A460A9EF0
:10505000A522206BFBF757F96FF00301206B01EBE2
:105060008501084420F00707780707D0502080F317
:105070001188BFF34F8FBFF36F8FFEE70025B8F1A4
:10508000000F0FD05FF00000221818F8001082F80F
:10509000341018F8001011B1401C1028F4D384F813
:1050A000435001E084F83450382E00D33726E662AE
:1050B000C4E91365201D00F0AAFC04F1180000F0FB
:1050C000A6FC2461C6F138006462A061656584F8BD
:1050D000585052465946384600F070FA2060B9F1EF
:1050E000000F01D0C9F80040BDE8F09F30B511496C
:1050F00000E011460A688242FBD34B685C18844288
:1051000003D1406818444860084643681C1894421C
:1051100009D1084C183C2468A24209D052681A44AC
:1051200042600A6812680260814200D0086030BDA7
:105130000460F9E7B801002070B5002441600B4D10
:105140000061914206D8D11A8269914206D2011DAE
:10515000286907E09A4203D2994201D3012403E06F
:10516000011DE86800F056FC204670BD8801002053
:1051700010B5044600F072FCA06B28B15FF000048B
:1051800000F08CFC204610BD0124F9E730B589B051
:105190003C4D6EE00498002806DADDE90601059A28
:1051A00090470498002864DB069C606910B1201DBC
:1051B00000F0EAFB03A800F0D7F8024604980A289A
:1051C00057D2DFE800F00505052D334A05052D33DC
:1051D00094F8280040F0010084F828000599A0699F
:1051E000059B01442046FFF7A7FF68B3216A2046CC
:1051F000884794F8280040073BD500200090059888
:10520000A169002342181946204601F007FED8B9CB
:10521000502080F31188BFF34F8FBFF36F8FFEE7ED
:1052200014F8280F20F00100207022E094F82800E4
:1052300040F0010084F828000598A06128B1811889
:1052400013462046FFF778FF13E0502080F31188C3
:10525000BFF34F8FBFF36F8FFEE794F828008107ED
:1052600003D4204600F02EFC03E020F0010084F877
:105270002800002204A9286801F028FA002889D112
:1052800009B030BD880100202DE9FC410F460546DC
:1052900000F010FE01A800F067F80446019818B16C
:1052A00001F02AFDBDE8FC81254EAFB130690068F0
:1052B000D0B30027291B3A46306800F085FC01F086
:1052C0001BFD0028EED11F494FF080500860BFF34E
:1052D0004F8FBFF36F8FE5E7A542EBD801F00CFDD0
:1052E000F0682746C068C468201D00F04DFB94F8A4
:1052F0002800410719D5A0692B4641193A46204696
:10530000FFF71AFFA8B100200346014600902A4685
:10531000204601F083FD60B9502080F31188BFF36F
:105320004F8FBFF36F8FFEE707E020F0010084F896
:105330002800216A20468847B4E70127BAE7000021
:105340008801002004ED00E00648416B096829B19E
:10535000416BC968C9684968816270474FF0FF3185
:10536000FAE700004C01002070B5054601F0A6FBED
:10537000064E0446B068844203D200F009F80120CA
:1053800000E0002028602046B46070BD8801002045
:10539000F8B5194D20E0C068C4680668201D00F00B
:1053A000F3FA216A2046884794F82800400713D56D
:1053B000A0693044B04206D924616060211DE868CC
:1053C00000F028FB08E0002003460146009032462A
:1053D000204601F023FD38B1E86801680029DAD1E0
:1053E0002969C5E90310F8BD502080F31188BFF387
:1053F0004F8FBFF36F8FFEE7880100200848406899
:10540000401C4FF0500080F3118804D0BFF34F8F41
:10541000BFF36F8FFEE7BFF34F8FBFF36F8FFEE7D2
:10542000C00100200346002012B1994302D070470A
:105430000B42FCD001207047074CE068016841B185
:10544000C0680021D0F80000FFF71EFFFFF79EFEA6
:10545000F3E701210020F7E7880100202DE9F04162
:10546000044600F0FBFA94F9455004F1240609E0E3
:10547000606A48B1304601F007FC08B100F0F4FB67
:105480006D1E6DB2002DF3DC4FF0FF3684F84560E1
:1054900000F004FB00F0E2FA94F9445004F1100724
:1054A00009E0206948B1384601F0EEFB08B100F090
:1054B000DBFB6D1E6DB2002DF3DC84F84460BDE8AB
:1054C000F04100F0EBBA00002DE9F041054600275D
:1054D00000F0F0FC324E306808B9FFF747FD706904
:1054E00005424ED1C5B3083568070ED005F0070058
:1054F000C0F108000544680707D0502080F31188E8
:10550000BFF34F8FBFF36F8FFEE72DB370688542F7
:1055100037D82348183001460C6801E020460C4675
:105520006168A94202D221680029F7D131688C4212
:1055300027D007682168016060680837411B10297F
:105540000FD96019420708D0502080F31188BFF3AB
:105550004F8FBFF36F8FFEE713E041606560FFF789
:10556000C5FD61687068401A7060B268904200D2F0
:10557000B060706901430020C4E90001F068401C7C
:10558000F06001F0B9FB780707D0502080F3118854
:10559000BFF34F8FBFF36F8FFEE73846BDE8F08152
:1055A000A00100200449086818B10868026D521C67
:1055B00002650868704700004C01002010B5031F09
:1055C0004FF080741C601B1F21F001011960191F2E
:1055D000044B0B6014390A60091F6FF00202443853
:1055E0000A6010BDFD5300080A490A78012A05D156
:1055F0004A78824202D24FF0FF30704788700549E6
:10560000A431A1F1B002D27801EBC20101F8060C7D
:105610000020704740000020044901EBC003B0396E
:1056200053E90223C1E90323C8707047E400002056
:10563000142801D33C2800D9142000EE100A034896
:10564000B8EE400A80ED000A7047000038050020DF
:10565000084A02EBC00252F8080CC3B2012B05D174
:10566000C0F30720884201D8981E704702F8061C34
:1056700000207047E400002010B504468120FEF7AA
:1056800037FD2046BDE81040FEF732BD08B5094899
:1056900000900823102206210020FDF7CDFD0548CB
:1056A000082320380090802206217020FDF7C4FDD9
:1056B00008BD00008F83000808B504480021009051
:1056C000022310220846FDF7B7FD08BD8F830008AE
:1056D0001FB50021174A00910191D2E90012CDE9CE
:1056E000021215494FF0FF340978032902D02046F1
:1056F00004B010BD6946FDF7F3FA10A16846FAF749
:1057000014FE694602A8FAF710FE02A8FAF719FE7D
:105710000949C0060C39000E4872C0F1800004EB44
:105720006000C0B208720B7802AA4978FDF72EFE1D
:105730000020DDE768830008400000202000000012
:1057400038B5144C2078032804D0012810D0022842
:1057500011D012E0FFF7B0FF322000F057FA00F04E
:10576000A7F8FFF763F9BDE83840322000F04EBAE1
:10577000FFF78CFF01E0FFF79FFF00F00DF8606876
:10578000009004480C38C379427981790079FDF79B
:1057900053FD38BD400000202DE9F041214E4FF06F
:1057A000FF37A6F10C043178E07804F1140500EB22
:1057B000400005EB8000012919D050F80C0CFAF7D5
:1057C000C0FDC006000E6072C0F1800007EB6000F3
:1057D000C0B22072E17801EB410105EB810151F883
:1057E0000C2C23786178BDE8F041FDF7CFBDB1788E
:1057F00000EB810050F8100CFAF7A3FDC006000E74
:105800006072C0F1800007EB6000C0B22072E178E6
:10581000B27801EB410105EB810101EB820151F806
:10582000102CDEE7400000202DE9F0411F4E3078BB
:10583000032803D04FF0FF30BDE8F0811B4FB17853
:105840000C3FB8780A1A55B2002D10DD00F10E0099
:10585000C0B24FF00301FDF785FD002404E0FF20F6
:10586000FEF758FC641CE4B2AC42F8DD10E00FDA3D
:105870000E31C8B20321FDF775FD0024C5F1010505
:1058800004E0C320FEF746FC641CE4B2A542F8DA4B
:1058900003217320FDF766FDFF20FEF73BFCFF2090
:1058A000FEF738FCB078B8700020C5E74000002053
:1058B00010B503210C20FDF755FD00240FE074B155
:1058C000012C0CD0662C0AD0672C08D05FF0C300E6
:1058D000FEF720FC641CE4B2672CF0D910BDFF2059
:1058E000F6E700002DE9F84FDFF8949004464FF0FA
:1058F000FF3899F8000043464146022802D0084686
:10590000BDE8F88FDFF878A01E4DAAF10C0A002040
:105910009AF80370012205EB800600BF16F802C05A
:10592000BC4501D1034604E0A44502D1014602F082
:10593000FF0B521C042AF1DB401C0528EADB8B42DA
:1059400001D04046DCE715F821005946FFF780FEFC
:10595000FFF728F9FFF7E2F82046FFF75DFEFFF7B3
:105960001BFFD9F8040000909AF807309AF8052038
:105970009AF806109AF80400FDF75EFC0020BFE7D5
:1059800040000020AF830008D0E9013201699A602D
:10599000D0E901235A604A68824201D182684A6094
:1059A000002202610868401E086008687047000015
:1059B000044908680A688069D26A0968C2F1380235
:1059C0008A6170474C010020034B036003F15C00C7
:1059D0000860802010607047780B0020044B036043
:1059E00003F15C0008604FF48070106070470000A5
:1059F000D40D002000F0C6BA00F108014FF0FF32CC
:105A0000C0E90112C16001610021016070470021FD
:105A10000161704730B50B685A1C02D000F10802D2
:105A200002E0026904E02246546825689D42FAD9E2
:105A300053684B6099608A60516008610168491C35
:105A4000016030BD42684A6093688B60936859601A
:105A5000916008610168491C01607047502080F323
:105A60001188BFF34F8FBFF36F8F0A494868401CFE
:105A7000486001280CD10848006810F0FF0F07D0DB
:105A8000502080F31188BFF34F8FBFF36F8FFEE775
:105A900070470000C001002004ED00E0084948689C
:105AA00028B1401E486001D180F311887047502012
:105AB00080F31188BFF34F8FBFF36F8FFEE70000B5
:105AC000C001002070B500282AD0164DA0F10804AE
:105AD00060686969084207D1502080F31188BFF3DC
