:020000040800F2
:10000000485200205D02000801320008DD29000886
:10001000F9300008390B00082540000800000000F6
:100020000000000000000000000000009D0100082A
:10003000F90B000800000000F90100081D37000856
:1000400077020008770200087702000877020008AC
:10005000770200087702000877020008770200089C
:1000600077020008FB0B00087702000877020008FF
:10007000770200087702000877020008770200087C
:10008000770200087702000877020008770200086C
:100090003D0B00087702000877020008770200088D
:1000A000770200087702000877020008770200084C
:1000B0007702000877020008DD37000877020008A1
:1000C000770200087702000877020008770200082C
:1000D000770200087702000877020008770200081C
:1000E000770200087702000877020008770200080C
:1000F00077020008770200087702000877020008FC
:1001000077020008770200087702000877020008EB
:1001100077020008770200087702000877020008DB
:10012000490B0008770200087702000877020008F0
:1001300077020008770200087702000877020008BB
:1001400077020008770200087702000877020008AB
:10015000770200087702000877020008770200089B
:10016000770200087702000877020008770200088B
:1001700077020008770200087702000800000000FC
:100180007702000877020008DFF80CD000F0BCFB13
:1001900000480047214B0008485200202C4B1968AA
:1001A0000868B0E8F04F80F30988BFF36F8F4FF015
:1001B000000080F3118870470000000008480068C4
:1001C000006880F308884FF0000080F3148862B65E
:1001D00061B6BFF34F8FBFF36F8F00DF00BF00BF6B
:1001E00008ED00E0DFF80C00016841F470010160E7
:1001F000704700BF88ED00E0EFF30980BFF36F8F19
:10020000134B1A681EF0100F08BF20ED108A20E96A
:10021000F04F106009B44FF0500080F31188BFF325
:100220004F8FBFF36F8F05F075FD4FF0000080F327
:10023000118809BC19680868B0E8F04F1EF0100F6B
:1002400008BFB0EC108A80F30988BFF36F8F704746
:1002500060010020EFF305807047000006488047EA
:1002600006480047FEE7FEE7FEE7FEE7FEE7FEE79B
:10027000FEE7FEE7FEE7FEE7CD370008890100084C
:100280002DE9F05F0546002092469B4688460646CB
:10029000814640241BE0284641464746224600F05E
:1002A00064FA53465A46C01A914110D31146184673
:1002B000224600F04BFA2D1A67EB01084F46224602
:1002C0000120002100F042FA17EB00094E41201EE8
:1002D000A4F10104DFDC484631462A464346BDE826
:1002E000F09F40EA01039B0703D009E008C9121FF1
:1002F00008C0042AFAD203E011F8013B00F8013BE0
:10030000521EF9D27047D2B201E000F8012B491E0B
:10031000FBD270470022F6E710B513460A460446A2
:100320001946FFF7F0FF204610BD421E12F8013FAC
:10033000002BFBD111F8013B02F8013B002BF9D156
:100340007047421C10F8011B0029FBD1801A70472E
:100350002DE9FE4F804681EA0300C00F0C46009055
:1003600021F0004123F00045B8EB0200A94105D27D
:100370004046214690461C460B46024623F000406C
:10038000104347D0270DC7F30A00C3F30A51029068
:10039000401A019040286BDAC3F3130040F4801B2D
:1003A0000098924620B10023D2EB030A63EB0B0BBB
:1003B00001985946C0F14002504600F0C7F9064680
:1003C0000D4650465946019A00F0DFF910EB08003F
:1003D0006141002487EA115284EAE7731A4340D04E
:1003E000009A62B3019A012A4FEA075215DC001BFA
:1003F00061EB02014FF0004202EA0752CDE90042F0
:10040000001C41F5801132462B4600F016FA03B06D
:10041000BDE8F08F40462146F9E7001B61EB020181
:10042000001C41F5801300185B412018A2F500174D
:1004300047EB030140EAD570B6196D4111E06D0834
:100440004FEA360645EAC0754FEA0752001B61EBDA
:100450000201001C41F5801149084FEA30000019E3
:10046000514132462B4603B0BDE8F04F00F0D6B9FB
:100470000098012240000023D0EB020263EBE073FE
:10048000009821464FEAE074B8EB000061EB0401EC
:10049000E9E783F000435BE781F0004158E72DE98D
:1004A000FE4F81EA030404F0004421F0004100946F
:1004B0004FF0000B23F0004350EA01045ED052EAF3
:1004C00003045BD0C3F30A54C1F30A552C44A4F2CD
:1004D000F3340194A0FB0254C1F3130141F48011E1
:1004E000C3F3130343F4801301FB024400FB034EE8
:1004F000840A970A44EA815447EA8357A4FB0768B1
:1005000002958D0A05FB07854FEA932C04FB0C54DA
:100510002705029D4FEA065847EA1637B5EB08054E
:100520006EEB070C870E920E47EA811742EA8312A0
:10053000A7FB0201B6EB0B0164EB00042B0D43EAB1
:100540000C335E1844EB1C50DA465146E7FB0201BF
:10055000C5F313044FEA0B3343EA14534FEA043252
:10056000019C43EA0603A4F10C040294009CCDE92B
:1005700000B400F062F903B0BDE8F08F002001463E
:10058000F9E72DE9F04D81EA030404F0004B21F076
:10059000004514464FF0000A23F0004150EA0502DE
:1005A00020D054EA01021DD0C5F30A570246C5F314
:1005B0001303C1F31300C1F30A5640F4801543F44A
:1005C0008013A7EB0608101BD64608F2FD3873EB24
:1005D000050002D308F1010801E092185B41B8F16F
:1005E000000F03DA00200146BDE8F08D00204FF433
:1005F0008011064684460EE0171B73EB050705D3F2
:10060000121B63EB050306434CEA010C49084FEA51
:10061000300092185B4150EA0107EDD152EA030025
:1006200012D082EA040083EA0501084305D0101BBA
:10063000AB4106D20122002306E000224FF0004326
:1006400002E06FF0010253101AEB06004CEB085168
:1006500010EB0A0041EB0B01BDE8F04D00F0DEB8F5
:1006600000F0004230F000400AD0C10D01F5607189
:10067000C0F3160042EA0151C20840071143704717
:10068000002001467047000030B5041E71F10004DF
:1006900004DB4FF00044404264EB0101141E73F18F
:1006A000000405DB1C464FF00043524263EB040399
:1006B0008B4208BF824230BD30B5041E71F1000488
:1006C00004DB4FF00044404264EB0101141E73F15F
:1006D000000405DB1C464FF00043524263EB040369
:1006E000994208BF904230BD01F0004330B421F080
:1006F000004150EA010206D00A0DA2F56072C1F372
:100700001301002A02DC30BC00207047440F44EA89
:10071000C104C100E01830BC00EBC25000F047B883
:1007200030B50B46014600202022012409E021FAC1
:1007300002F59D4205D303FA02F5491B04FA02F5BE
:100740002844151EA2F10102F1DC30BD202A04DB91
:10075000203A00FA02F1002070479140C2F12003D4
:1007600020FA03F3194390407047202A04DB203A13
:1007700021FA02F00021704721FA02F3D040C2F1C1
:1007800020029140084319467047202A06DBCB1708
:10079000203A41FA02F043EAE07306E041FA02F33C
:1007A000D040C2F120029140084319467047002909
:1007B000A8BF7047401C490008BF20F001007047E7
:1007C00010B4B0FA80FC00FA0CF050EA010404BF47
:1007D00010BC704749B1CCF1200421FA04F411FA9D
:1007E0000CF118BF012121430843A3EB0C01CB1DE1
:1007F0004FEA00614FEA102042BF002010BC704752
:1008000000EBC35010440029A4BF10BC7047401C2B
:10081000490008BF20F0010010BC704710B5141E3D
:1008200073F1000408DA401C41F1000192185B41A9
:100830001A4301D120F0010010BD2DE9F04D924680
:100840009B4611B1B1FA81F202E0B0FA80F2203297
:100850009046FFF77BFF04460F4640EA0A0041EA54
:100860000B0153465A46084313D0114653EA010080
:1008700019D0C8F140025046FFF777FF05460E46F3
:10088000504659464246FFF761FF084305D0012014
:1008900004E020463946BDE8F08D0020054346EAD5
:1008A000E0762C4337430A986305E40AA0EB08007E
:1008B0000022FD0A44EA47540A3002D500200146CE
:1008C000E9E7010510196941DDE9084500196941A9
:1008D000BDE8F04DA2E7C1F30A52C1F3130140F2A3
:1008E000FF3341F480119A4202DA0020014670473A
:1008F00040F233439A42A2F2334202DC5242FFF703
:1009000034BFFFF723BF0000064C074D06E0E06848
:1009100040F0010394E8070098471034AC42F6D346
:10092000FFF736FCE08500080086000870B58C18DB
:1009300010F8015B15F0070301D110F8013B2A11F3
:1009400006D110F8012B03E010F8016B01F8016BE0
:100950005B1EF9D12B0705D40023521E0DD401F8DC
:10096000013BFAE710F8013BCB1A921C03E013F8A5
:10097000015B01F8015B521EF9D5A142D8D30020DA
:1009800070BD10B50146806B026C12F0500F05D09F
:10099000026CD20626D500F0DDF910BD016C41F4E1
:1009A0000071016401688A6812F0405F17D1027E0D
:1009B000AAB9CA6A12F4700F02D08A6852050ED41E
:1009C0004A6822F020024A60016C21F480710164BF
:1009D000016CC90403D4016C41F00101016400F011
:1009E000B7F910BD806BC26CBDE8104008461047D7
:1009F00010B5806B40210164416C41F004014164F9
:100A000000F0A8F910BD10B5806B00F0A2F910BD80
:100A1000464910B54A6822F440324A604A68436841
:100A20001A434A6001684A6822F480724A60016889
:100A30004A68036942EA03224A6001684A6822F070
:100A400040724A6001684A6883681A434A600168D4
:100A50008A6822F400628A6001688A68C3681A435F
:100A60008A60816A6FF07062D14201688A6822F000
:100A700070628A6001688A680CD0836A1A438A604F
:100A800001688A6822F040528A6001688A68C36AF5
:100A90001A4301E022F040528A6001688A6822F01D
:100AA00002028A6001688A68037E42EA43028A6021
:100AB00090F82010002901684A680FD042F40062C3
:100AC0004A6001684A6822F460424A6001684A68E4
:100AD000174C436A04EB43331A4301E022F40062EB
:100AE0004A600168CA6A22F47002CA620168CA6A6E
:100AF000838B104C04EB03531A43CA6201688A6863
:100B000022F400728A6001688A6890F8303042EA04
:100B100043228A6001688A6822F480628A600168E0
:100B20008A68406942EA8020886010BD0023014045
:100B300000E0FFFF0000F0FFFEE70000014800F0CA
:100B40009CBB00008C020020014800F0BFBD0000EB
:100B50002C02002001681823CAB2103AB2FBF3F24B
:100B6000054B6FF30901032A9B5CC36500D9091D7E
:100B70008165084670470000206D000810B50146E9
:100B800000208B698A6A4FF0C07453B1B3F5005FDF
:100B900015D072B1012A0CD0022A0AD0032A09D139
:100BA00004E01AB1012A06D0022A03D1C96AC90198
:100BB00000D5012010BDC96AA142FAD010BD002A9B
:100BC000F7D0012AF2D0022AF3D0032AF3D010BDC5
:100BD00030B50468256825F48025256004686360C5
:100BE0008368402B036803D099600068C26030BD01
:100BF0009A600068C16030BD7047082000F0F0BE08
:100C000072B6FEE778B50024009490F83C20012AE3
:100C100019D0012280F83C200A6807230568092AB8
:100C200013D9EE680A3A02EB420293409E43EE600B
:100C30000B788A680A3B03EB43039A400368DD683C
:100C40002A43DA6010E0022078BD2E6902EB4202EE
:100C500093409E432E610B788A6803EB43039A40CE
:100C600003681D692A431A614A681F23072A13D2A1
:100C700005686E6B521E02EB820293409E436E63C8
:100C80000B790A885B1E92B203EB83039A400368D8
:100C90005D6B2A435A6327E005680D2A12D22E6B3A
:100CA000D21F02EB820293409E432E630B790A8887
:100CB000DB1F92B203EB83039A4003681D6B2A4348
:100CC0001A6311E0EE6A0D3A02EB820293409E43F2
:100CD000EE620B790A880D3B92B203EB83039A40D4
:100CE0000368DD6A2A43DA62164B0568144A9D429E
:100CF00006D10D68122D03D1556845F48005556065
:100D000005689D4218D10B68102B01D0112B13D10F
:100D1000536843F400035360096810290CD10A4951
:100D20000A4A0968B1FBF2F101EB8101490000E0D8
:100D3000491E00910029FBD180F83C40002078BD7D
:100D400000230140002001402800002040420F0005
:100D500070477047704770B504004FF0000503D02E
:100D6000206C002610B107E0012070BD204600F085
:100D70001DF8666484F83C60206CC00610D4206CBA
:100D800020F4885040F0020020642046FFF740FE27
:100D90006664206C20F0020040F00100206400E056
:100DA000012584F83C60284670BD000070B586B00F
:100DB000064614216846FFF7ADFA1D49306888429F
:100DC00034D11C480025016841F48071016000683D
:100DD00000F48070059017481438016841F0010153
:100DE00001600068694600F001000590062000904F
:100DF0000320CDE90105104800F0FEFD104C0F481E
:100E0000C4E900050015A560C4E9035080006061D5
:100E10008000A0618011C4E907052046656200F0EA
:100E200025FD08B1FFF7ECFEB463A66306B070BD04
:100E3000002001404438024000000240106402409B
:100E40002C020020F8B5044600200E46009094F8CD
:100E50003C10012907D0012184F83C1021688B68DF
:100E6000DB0702D011E00220F8BD8B6843F00103DC
:100E70008B604049404B0968B1FBF3F101EB410144
:100E800000E0491E00910029FBD121688B68DB0539
:100E900003D58B6823F480738B6021688B68DB0734
:100EA0005DD0236C40F20165AB4343F4807323644F
:100EB0004968490505D5216C21F4005141F4805160
:100EC0002164216CC90404D5616C21F006016164C0
:100ED00000E0606484F83C00A16B2948274DC8639A
:100EE000A16B28480864A16B2748C86421686FF08B
:100EF000220008602068416841F0806141602068FC
:100F0000816841F4807181602168134632464C311A
:100F1000A06B00F015FD68681C49C006206806D06B
:100F2000884224D1816811F0405F13D01FE08842CD
:100F3000F8D0174A904203D1D1F80423D206F1D059
:100F4000144A904213D1D1F8041301F01F01102963
:100F5000E8D30CE0816841F08041816007E0206CBB
:100F600040F010002064606C40F0010060640020DC
:100F7000F8BD00002800002040420F00002301407F
:100F800083090008070A0008F10900080020014051
:100F9000002101400022014090F82020012A07D0C2
:100FA000022A05D0416A41F4802141620120704744
:100FB000006842690A43426100207047F0B590F82A
:100FC00020500468A468012D05D0022D03D0416A89
:100FD00041F480214DE014F0406F01D1E50045D58A
:100FE000C4F301640125A5401D608D684FF4C073F2
:100FF0009DB1CE6835434E6845EAC605066803EBE9
:101000000417F5514FF4C275076805EB04150E6916
:101010007E51097D012905D009E00E88CD6845EA99
:101020004655EBE701684E5946F480764E511179EA
:10103000D2F805504FF4C67641EA0521056806EB63
:101040000416A9511178D2F801204FF4C47541EA71
:101050000221026805EB04155151006803EB0411ED
:10106000425842F0010242500020F0BD416A41F472
:10107000001141620120F0BD10B590F82020012A36
:1010800007D0022A05D0416A41F480214162012043
:1010900010BD3B48D0F8002242F00102C0F8002207
:1010A000D0F8002222F47C52C0F80022D0F80022AE
:1010B0004B6A42EA0322C0F800220A7D02F01F03B5
:1010C00001229A40D0F81C329343C0F81C32CB69FD
:1010D000B3B9D0F80C329343C0F80C328C894B680A
:1010E00064F31F434C6900EBC404C4F840320C891C
:1010F0000B6864F31F434C6900EBC404C4F844322A
:10110000CB69012B16D1D0F80C321343C0F80C3246
:101110000C884B6864F31F434C6900EBC404C4F8AB
:1011200040320C89CB6864F31F434C6900EBC40464
:10113000C4F844328B69002BD0F804320ED013432C
:10114000C0F804320B69002BD0F8143208D01343D6
:10115000C0F81432096A012904D008E09343EFE78C
:101160009343F5E7D0F81C121143C0F81C12D0F8D5
:10117000001221F00101C0F80012002010BD000093
:1011800000640040704770B590F82040012C05D0F5
:10119000022C03D0416A41F4802128E0046809B39D
:1011A0002469A40720D04FF4D874056804EB011417
:1011B0002D5915F00405956005682D591AD0ED08D4
:1011C000556005682C5904F00204D4604FF4DA74B9
:1011D000056804EB01142E5906F00F06082E0CD3F7
:1011E00008250DE0E468DCE7416A41F40011416242
:1011F000012070BD6D0D1560E3E72D5905F00F0559
:10120000156105682D59C5F30725956105682C59A9
:10121000240C54614FF4DC72046802EB0112A458F0
:101220001C700468A458240A5C700468A458240C38
:101230009C700468A258120EDA704FF4DE720468D3
:1012400002EB0112A4581C710468A458240A5C71B2
:101250000468A458240C9C710468A258120EDA7118
:10126000006829B1016941F020010161002070BDD1
:10127000C16841F02001C160F8E72DE9F05F054643
:10128000006800244669D0F804908768D0F80CB054
:10129000D0F810A0D0F81880F10748D0F90714D082
:1012A00001218160B80703D5284600F008FA0CE058
:1012B000780702D54FF4006407E0380702D54FF4F1
:1012C000805402E0284600F0F9F9F80516D529689F
:1012D0004FF480708860B80503D5284600F0F1F916
:1012E0000CE0780502D544F4005407E0380502D537
:1012F00044F4804402E0284600F0E2F9F80316D5F1
:1013000029684FF480308860B80303D5284600F080
:10131000DAF90CE0780302D544F4004407E038031E
:1013200002D544F4803402E0284600F0CBF93007BF
:1013300007D55FEACB6004D52968102044F4007417
:10134000C86070074FF0080707D55FEA0B7004D537
:101350002868C760284600F059F9B00706D5286804
:10136000C068800702D0284600F052F9700607D501
:101370005FEACA6004D52968102044F480640861DB
:10138000B00607D55FEA0A7004D5286807612846C9
:1013900000F064F9F00606D528680069800702D0DD
:1013A000284600F05CF9B00308D55FEAC96005D5AE
:1013B000296810204860284600F052F9F00307D54C
:1013C0005FEA097004D528684760284600F07CF978
:1013D000300446D55FEA497040D5F00504D55FEA90
:1013E000C87001D044F00104B00504D55FEA8870EC
:1013F00001D544F00204700504D55FEA487001D5B8
:1014000044F00404300529D518F0700F26D008F0F8
:101410007000402815D006DC102809D020280AD0FA
:10142000302816D10AE050280ED0602811D10EE0E5
:1014300044F008040DE044F010040AE044F02004F5
:1014400007E044F0400404E044F0800401E044F488
:1014500080742868816921F0700181612968042005
:101460004860002C05D0686A204368622846FFF770
:1014700089FEBDE8F09F70B5040003D094F8200009
:1014800010B104E0012070BD204600F081F8206812
:10149000016841F00101016000F0B0FB054605263E
:1014A00004E000F0ABFB401B0A2811D8206840681C
:1014B000C007F6D02068016821F00201016000F049
:1014C0009DFB05460BE000F099FB401B0A2806D95E
:1014D000606A40F40030606284F82060D2E72068DF
:1014E00040688007EFD4207E0128206801683DD045
:1014F00021F080010160607E01282068016838D0F9
:1015000021F040010160A07E01282068016833D0ED
:1015100021F020010160E07E0128206801682ED0C2
:1015200041F010010160207F01282068016829D066
:1015300021F008010160607F01282068016824D043
:1015400021F004010160D4E902010843D4E9041246
:10155000114308436168491E08432168C86100209F
:101560006062012084F82000002070BD41F08001FD
:10157000C0E741F04001C5E741F02001CAE721F092
:101580001001CFE741F00801D4E741F00401D9E7A9
:1015900010B586B0044614216846FEF7BBFE184914
:1015A0002068884229D117480021026842F0007261
:1015B0000260006800F00070059012481038026860
:1015C00042F001020260006800F0010005904FF453
:1015D000C05000900220CDE90101032003900920B2
:1015E00004906946084800F007FA002205211420FB
:1015F00000F032FD142000F021FD06B010BD000007
:101600000064004040380240000002407047000083
:1016100000B589B007AB6A460021FFF7B4FD00288A
:1016200016D19DED070ADFED0B0A0B48B8EEC00A94
:1016300080EE201AF2EE040A80ED001ABDF92010A7
:1016400000EE101AB8EEC00A80EE201A80ED011AE2
:1016500009B000BD00007A442C000020704770479C
:101660007047000070B5044690F82000012804D0AF
:10167000606A40F40020606218E0022084F82000D4
:101680002068016821F00101016000F0B7FA054609
:101690000EE000BF00F0B2FA401B0A2808D9606AC9
:1016A00040F400306062052084F82000012070BD05
:1016B00020684068C007EDD1606270BD7047704718
:1016C0007047704770477047704700002DE9F84336
:1016D00004464FF00009CDF8009063484FF41651CE
:1016E000A56D0068B0FBF1F72E6894F85C10082037
:1016F00000FA01F131420FD021680A6852070BD578
:101700000A6822F004020A6094F85C108840A8601D
:10171000606D40F00100606594F85C104FF00108C6
:1017200008FA01F0304208D021684969090604D559
:10173000A860606D40F00200606594F85C100420C1
:101740008840304208D021680968890704D5A8601C
:10175000606D40F00400606594F85C1010208840D3
:10176000304218D021680968090714D5A86020689C
:101770000168490304D50068000308D5A16C07E09F
:101780000168C90503D4016821F008010160216CDA
:1017900009B12046884794F85C10202088403042E8
:1017A00031D021680968C9062DD5A86094F83500A4
:1017B00005282068016806D0490347D50068000362
:1017C0001DD4616C1CE021F01601016020684169A4
:1017D00021F080014161206C08B9A06C20B1206823
:1017E000016821F00801016094F85C103F208840F6
:1017F000A86084F8358084F83490216D1FE0E16B97
:1018000009B120468847606D00282BD0606DC00765
:1018100014D0052084F835002068016821F001010A
:1018200001600098401C0090B84203D8206800680E
:10183000C007F6D184F8358084F83490E16C002933
:1018400010D001B02046BDE8F04308470168C90543
:10185000D5D4016821F01001016084F8358084F846
:101860003490CCE7BDE8F883280000202DE9F04152
:10187000044600F0C3F906465CB1022084F8350046
:10188000002584F834502068016821F001010160CE
:101890000DE00120BDE8F08100F0B0F9801B0528C3
:1018A00005D920206065032084F83500F2E7206820
:1018B0000068C007F0D12268116820480140D4E9CF
:1018C00001031843D4E903363343184363691843CB
:1018D000A3691843E3691843236A18430843616AFC
:1018E000042903D1D4E90B1319430843106020687D
:1018F0004069666A20F0070130460E43012704283C
:101900000CD1A06A0643E06A40B12046FFF736F9E1
:1019100020B14020606584F83570BAE720684661E0
:101920002046FFF717F994F85C203F219140816031
:10193000656584F835700020ACE700003F8010F04A
:101940002DE9F0410446866D90F834000025012809
:101950000DD0012084F8340094F835700020012F58
:1019600007D084F8340002252846BDE8F081022023
:10197000FBE7022784F8357060652046FFF728F9F9
:1019800094F85C103F208840B0602068016841F006
:1019900016010160206C20B12068016841F0080147
:1019A00001602068016841F001010160DCE700008E
:1019B00070B5044600F022F90546601C02D00448C8
:1019C0000078044400F01AF9401BA042FAD370BD1D
:1019D0001C000020082801D101F0C2B970470000A6
:1019E000044910B50A68024202D00860FFF7F2FF0E
:1019F00010BD0000143C01402DE9F84FDFF8BCA1F8
:101A00000022012503264FF00F090AF1040BAAF169
:101A1000040E00BF0B6805FA02F42340A34270D104
:101A20000F7907F00307012F01D0022F16D1876825
:101A30004FEA420806FA08FC27EA0C07D1F80CC066
:101A40000CFA08FC4CEA070CC0F808C04768A7432A
:101A50000C79C4F3001494403C4344600C79E44393
:101A6000A4070AD0C4684FEA420C06FA0CF7BC433C
:101A70008F6807FA0CF72743C7600C7904F003045A
:101A8000022C12D1D40800EB840CDCF8204057075C
:101A9000FF0E09FA07F824EA0804D1F8108008FAC2
:101AA00007F848EA0408CCF8208004684FEA420CA2
:101AB00006FA0CF7BC430F7907F0030707FA0CF797
:101AC000274307604C6814F4403F70D03C4C2768B3
:101AD00047F480472760246822F0030704F4804419
:101AE0000094384C07EB040CDCF8084897074FEAE1
:101AF000177809FA08F7BC43334FB84202D10027E0
:101B000024E054E0314FB84201D101271EE0304FAC
:101B1000B84201D1022719E02E4FB84201D1032764
:101B200014E02D4FB84201D104270FE02B4FB842EB
:101B300001D105270AE02A4FB84201D1062705E066
:101B4000284FB84201D1072700E0082707FA08F715
:101B50002743CCF80878DAF800405746D1F804C09B
:101B60009C435FEACC2C00D51C433C60DBF8004072
:101B70005F46D1F804C09C435FEA8C2C00D51C431F
:101B80003C60DEF800407746D1F804C09C435FEA31
:101B90008C3C00D51C433C60084F083F3C68D1F8A2
:101BA00004C09C435FEACC3C00D51C433C60521C03
:101BB000102AFFF42FAFBDE8F88F0000083C014069
:101BC000443802400030014000000240000402405E
:101BD00000080240000C02400010024000140240C5
:101BE00000180240001C02400069084000D001209B
:101BF00070470AB1816170470904FBE701488068BA
:101C0000704700001C00002070B5040025D094F837
:101C10003D00002520B984F83C50204600F050F9E2
:101C2000242084F83D002068016821F00101016052
:101C30002068016841F4004101602068016821F4D6
:101C40000041016000F0F4FA4D4A6168914201D808
:101C50004C4900E04C49884201D2012070BD4B49FB
:101C60002368B0FBF1F15E6826F03F060E435E602C
:101C70006368934206D94FF4967359434FF47A73CD
:101C8000B1FBF3F12368491C1E6A26F03F0631437D
:101C900019626168914210D84900401EB0FBF1F210
:101CA000521CC2F30B02042A01D2042022E0B0FB32
:101CB000F1F0401CC0F30B001CE0A268F2B301EB92
:101CC000C10303EB0116431EB3FBF6F35B1C43F4A5
:101CD00080431B0549D092B301EBC10202EB011115
:101CE000401EB0FBF1F0401CC0F30B0040F48040FC
:101CF00040F400402168CA694CF6FF739A431043D0
:101D0000C861D4E9071001432068026822F0C002CC
:101D100011430160D4E9030101432068826848F25D
:101D2000FF339A4311438160D4E9050108432168D8
:101D3000CA6822F0FF021043C86001E00EE016E01E
:101D40002068016841F0010101602564202084F8C9
:101D50003D00256384F83E50002070BD01EB410634
:101D6000431EB3FBF6F35B1CB3E70120C2E701EBB4
:101D70004101401EB0FBF1F0401CC0F30B00B7E77F
:101D8000A086010080841E0000093D0040420F0033
:101D90002DE9FF4F83B09A46DDE91197934604463B
:101DA000DDF84080FFF72AFF054694F83D00202823
:101DB0007FD11923012240492046009500F0A6FE5C
:101DC000002876D194F83C00012872D0012084F8D4
:101DD0003C0020680168C90703D1016841F0010196
:101DE00001602068016821F400610160212084F80D
:101DF0003D00402084F83E0000262664C4F824807C
:101E0000A4F82A90608D20852C48E062CDE9007509
:101E100053465A462046049900F0F8FD70B930E068
:101E20002A463946204600F017FF58B1206C042896
:101E300004D12068016841F400710160012007B0FD
:101E4000BDE8F08F606A216800780861606A401C14
:101E50006062218D491E89B22185628D521E628584
:101E600022685369DB435B070BD469B100781061CA
:101E7000606A401C6062208D401E2085608D401E7F
:101E80006085208D0028CBD12A463946204600F0B7
:101E900011FE0028CAD154F83D0B016841F40071CD
:101EA0000160202004F81E09E67766770020C6E767
:101EB000FFE70220C3E70000020010000000FFFF60
:101EC00010B586B0044614216846FEF723FA13497C
:101ED0002068884220D112480021026842F00202A4
:101EE0000260006800F002000590C02000901220FF
:101EF000CDE90101032003900420049069460948BC
:101F0000FFF77AFD06481030016841F400110160C6
:101F1000006800F40010059006B010BD00540040A9
:101F200030380240000402400248816802781144BF
:101F3000816070471C0000200B4810B5016841F417
:101F400000710160016841F480610160016841F441
:101F500080710160032000F09FF80F2000F006F868
:101F600000F050F8002010BD003C024030B505469E
:101F70001F4887B00024016841F004010160006837
:101F800006A900F00400009001A800F031F90498BF
:101F9000A8B100F04DF940001649174AB0FBF1F125
:101FA0001648491E026040F2E732C0E90324C0E946
:101FB0000114846100F044FB040003D015E000F03C
:101FC00037F9E9E70D4800F069FB04000DD11E2048
:101FD00000F034F8102D07D2002229461E2000F010
:101FE0003BF80748056000E0012407B0204630BDFB
:101FF0004038024040420F000008004050030020DB
:10200000200000200C4882B0016841F4804101604A
:10201000006800F4804000900748001F016841F00C
:10202000805101600068002200F0805000900F2174
:10203000901E02B000F010B844380240002809DBBE
:1020400000F01F02012191404009800000F1E020D2
:10205000C0F8001170470000F0B40E4B1B680C462E
:10206000C3F30223C3F10705042D00D90425191D6C
:10207000072901D2002300E0DB1E012606FA05F144
:10208000491E214099409E40761E16403143F0BCC7
:1020900001F0FEBF0CED00E0064900F00702086801
:1020A0004FF6FF03184040EA0220034A104308603D
:1020B000704700000CED00E00000FA052DE9F04744
:1020C0000E46050065D0DFF81481D8F80000F7B29D
:1020D00000F00700B04207D288F80070D8F800007E
:1020E00000F00700B04254D128683D4C810712D55A
:1020F000400703D5206840F4E050206028780007AE
:1021000003D5206840F4604020602068A96820F072
:10211000F000084320602878C0072DD03049686857
:102120000839012812D0022813D0032811D00968D9
:10213000890700292DDA216821F00301014321607C
:10214000FFF75CFD814641F2883A0EE00968890399
:10215000EFE709688901ECE7FFF750FDA0EB090103
:10216000514502D90320BDE8F0872068696800F076
:102170000C00B0EB810FEFD1D8F80010404601F011
:102180000701B14207D90770006800F00700B042AC
:1021900001D00120E7E72878400705D52068E968E5
:1021A00020F4E050084320602878000706D5206816
:1021B000296920F4604040EAC100206000F058F82E
:1021C0002168084AC1F30311515CC8400649086000
:1021D00006480068FFF7CAFE0020C4E7003C024042
:1021E00008380240286D0008280000202000002048
:1021F0000F2202600C4A136803F003034360136864
:1022000003F0F0038360136803F4E053C3601268C3
:102210004FF4E05303EAD20202610448006800F080
:10222000070008607047000008380240003C024088
:102230000448054900680968044AC1F38221515CD9
:10224000C84070472800002008380240386D000858
:102250000448054900680968044AC1F34231515CE9
:10226000C84070472800002008380240386D000838
:10227000154810B5006810F00C02144813D0411036
:10228000042A0FD0082A0ED10F4C241F226823687D
:1022900002F03F025B0207D52068C0F38810A0FB64
:1022A000010106E0084610BD2168C1F38811A1FBB9
:1022B00000010023FDF7E4FF2168C1F30141491C3F
:1022C0004900B0FBF1F010BD083802400024F400D2
:1022D0002DE9F84F04006ED02078DFF84C93C0074A
:1022E000A9F104054AD009F104000168C1F3810194
:1022F000012908D00068C0F3810002280AD1D9F86A
:102300000000400206D52868800337D560680028A1
:10231000E1D033E06068B0F5803F10D0B0F5A02F79
:10232000286810D020F480302860286820F48020AD
:1023300028606068A8B1FFF761FC06460DE02868D8
:1023400040F48030F4E740F480202860F7E700BFD5
:10235000FFF754FC801B642873D828688003F7D5E6
:102360000CE0FFF74BFC064605E000BFFFF746FC1C
:10237000801B6428F0D828688003F7D42078DFF821
:10238000AC8280074FF0000A3ED5A748001D0168C7
:1023900011F00C0F08D00068C0F3810002280BD1A7
:1023A000D9F80000400207D42868800716D5E068F5
:1023B000012800D112E033E1E068B8B10120C8F88B
:1023C0000000FFF71BFC064605E000BFFFF716FC08
:1023D000801B0228C0D828688007F7D528682169A3
:1023E00020F0F80040EAC10028600DE0C8F800A025
:1023F000FFF704FC064604E0FFF700FC801B022800
:102400001FD828688007F7D42078000722D5864F88
:1024100087486169703771B101210160FFF7EEFBF8
:10242000064604E0FFF7EAFB801B022809D838685B
:102430008007F7D50EE0C0F800A0FFF7DFFB0646E7
:1024400005E082E0FFF7DAFB801B02287DD83868C0
:102450008007F7D42078400768D5DFF8CCB1002793
:102460000BF13C0BDBF80000C0000BD4DBF80010D4
:1024700041F08051CBF80010DBF80000012700F09C
:10248000805000906B4E3068C00510D4306840F426
:1024900080703060FFF7B2FB009005E0FFF7AEFB05
:1024A0000099401A022850D83068C005F6D55E4E13
:1024B000A0686C3601280FD00528306810D020F0B5
:1024C00001003060306820F004003060A068B8B1CE
:1024D000FFF794FB00900FE0306840F00100F4E754
:1024E00040F004003060F7E7FFF788FB0099411ADD
:1024F00041F28830814266D830688007F4D50EE01A
:10250000FFF77CFB009007E0FFF778FB0099411A8A
:1025100041F28830814256D830688007F4D42FB118
:10252000DBF8001021F08051CBF80010A069C8B38F
:102530003D49091D0968C1F3810102294AD00228D9
:10254000504607D0C8F8600000E03CE0FFF756FBBB
:1025500004463BE04746C8F86000FFF74FFB0646DD
:1025600005E000BFFFF74AFB801B02282BD8286834
:102570008001F7D4D4E907010843A16A2E4A49082B
:1025800002EB0141626A41EA8211084394F82C107F
:1025900040EA0161C9F8001001203866FFF72EFB00
:1025A000044606E03EE000BFFFF728FB001B0228C0
:1025B00009D828688001F7D534E000BFFFF71EFB7B
:1025C000001B022802D90320BDE8F88F286880018B
:1025D000F4D427E00128F7D0D9F80000E26900F42C
:1025E000800191421CD1226A00F03F01914217D133
:1025F00047F6C071626A0140B1EB821F10D1A26A36
:102600004FF0FF3300F4403103EB5202B1EB024FC5
:1026100006D194F82C1000F07060B0EB016F01D07F
:102620000120D1E70020CFE70438024000004742F4
:10263000800E4742007000400000FFFF7047704767
:1026400010B5040003D094F83D0010B107E001205C
:1026500010BD002084F83C00204600F01EF8022047
:1026600084F83D00211D206801F0BEF8012084F8A7
:10267000460084F83E0084F83F0084F8400084F867
:10268000410084F8420084F8430084F8440084F850
:10269000450084F83D00002010BD704790F83D10C3
:1026A000012901D001207047022180F83D10016806
:1026B000CA6842F00102CA6000681149884214D019
:1026C000B0F1804F11D00F4988420ED00E49884298
:1026D0000BD00E49884208D00D49884205D00D49DB
:1026E000884202D00C49884204D1816801F0070178
:1026F000062903D0016841F0010101600020704704
:10270000000001400004004000080040000C0040B0
:1027100000040140004001400018004070472DE9CE
:10272000F04104460068C66805694FF00007A90734
:1027300013D5B10711D5F91E01610120207720685A
:1027400080698007204602D0FFF7E8FF04E000F030
:102750007EF8204600F07CF82777680716D57007CA
:1027600014D521686FF004000861022020772068EA
:10277000806910F4407F204602D0FFF7CFFF04E0CD
:1027800000F065F8204600F063F82777280715D594
:10279000300713D521686FF0080008610420207706
:1027A0002068C0698007204602D0FFF7B7FF04E029
:1027B00000F04DF8204600F04BF82777E80616D5D4
:1027C000F00614D521686FF010000861082020770A
:1027D0002068C06910F4407F204602D0FFF79EFFBA
:1027E00004E000F034F8204600F032F82777E807DC
:1027F00008D0F00706D021686FF00100086120467C
:1028000000F028F8280608D5300606D521686FF0B4
:10281000800008612046FFF711FF680608D57006A2
:1028200006D521686FF040000861204600F01CF8D2
:10283000A8060AD5B00608D521686FF02000086107
:102840002046BDE8F041FFF7FABEBDE8F0817047D1
:102850007047000000680349884201D1FFF764BB5C
:102860007047000000080040704770B5040004D0B5
:1028700094F84100002510B106E0012070BD84F8F5
:102880004050204600F024F8242084F841002068BD
:10289000C16821F40051C160204601F039F8206878
:1028A000016921F4904101612068416921F02A0108
:1028B00041612068C16841F40051C1606564202015
:1028C00084F8410084F842006563002070BD000078
:1028D00010B586B0044614216846FDF71BFD144967
:1028E0002068884221D113480021026842F010027A
:1028F0000260006800F0100005900E48143802686D
:1029000042F001020260006800F0010005904FF4FF
:10291000C06000900220CDE9010103200390072050
:10292000049069460448FFF767F806B010BD000040
:102930000010014044380240000002402DE9F843F5
:10294000044690F84100984616460D46202802D0CD
:102950000220BDE8F88385B17EB1002060642120AB
:1029600084F84100FFF74AF9A6848146E684A0680E
:102970002027B0F5805F02D003E00120E9E720695D
:1029800010B12E4600250EE000260CE080212046E6
:1029900001F044F8A8B9C6B116F8010B21684860E7
:1029A000E08C401EE084E08C4B464FF00002CDF8F6
:1029B00000800028EAD14FF04001204601F02EF8B7
:1029C00040B184F841700320C3E735F8020BC0F32F
:1029D0000800E3E784F841700020BAE7FEE70168E9
:1029E0004A69D24352050FD46FF480624A610021D4
:1029F00040F8301F202242738173026942F00402C2
:102A00000261017301207047002070472DE9F843EF
:102A1000044600680D46DDE90897016898461646A9
:102A200041F4807101604B4600224FF001112046B5
:102A3000009700F06BF848B120680068C00502D527
:102A40004FF4007020640320BDE8F883216805F08E
:102A5000FE0008613B464A461549204600F09EF8B4
:102A600088B920684169806900903A464946204605
:102A700000F0F2F848B1206C042804D12068016805
:102A800041F4007101600120DEE7F5B2B8F1010FF9
:102A900009D02168300A08613A464946204600F0CC
:102AA000DBF80028E7D1206805610020CCE70000B2
:102AB0000200010070B516460D4604461EE0204691
:102AC000FFF78DFF08B1012070BD681C16D0FFF71D
:102AD00095F8801BA84200D885B920684069C0439A
:102AE00040070BD5002044F8300F20216173A073FC
:102AF000216941F0200121612073E4E720684069E9
:102B0000C0434007DBD4002070BD00002DE9F04732
:102B1000984617460D460446C1F30746DDF8209057
:102B20002AE000BFB8F1FF3F26D0FFF767F8A0EB1F
:102B30000901414502D8B8F1000F1DD12068012ECE
:102B400016D0806925EA00000004000C12D0002095
:102B5000B84211D1002044F8300F20216173A073D6
:102B6000216941F02001216120730120BDE8F08737
:102B70004069E7E70120EBE72068012E0AD0806971
:102B800025EA00000004000C06D00020B842C9D09D
:102B90000020EBE74069F3E70120F7E72DE9F04774
:102BA000984616460D4604464FF000094FF0200A9D
:102BB000C1F3074723E020684069C043400515D4AE
:102BC0002068016841F40071016021686FF4806041
:102BD0004861C4F8309084F83DA084F83E90216CA0
:102BE00041F00401216484F83C9021E0701C06D07F
:102BF000FFF704F8A0EB0800B04203D816B1012F8C
:102C00001FD021E02068012F15D0806925EA00003F
:102C10000004000C18D000BF44F8309F84F80DA0C9
:102C200084F80E90216941F02001216184F80C9014
:102C30000120BDE8F087406925EA00000004000C8F
:102C4000EAD12068406901E02068806925EA000037
:102C50000004000CAFD1ECE770B516460D460446F3
:102C60001EE02046FFF7BBFE08B1012070BD681CC6
:102C700016D0FEF7C3FF801BA84200D885B9206894
:102C80004069C04300060BD5002044F8300F2021D6
:102C90006173A073216941F0200121612073E4E791
:102CA00020684069C0430006DBD4002070BD0000EE
:102CB00070B502004FF0000003D52D20524208707D
:102CC00001200A2392FBF3F403FB142492FBF3F29A
:102CD00030340C54401C002AF4D10A540B782D2BAC
:102CE00001D10122401C00EBD07500BFB2EB650F93
:102CF0000EDA831A0B448C5C13F8016D34448C5447
:102D00001E78A41B1C708B5C1B1B8B54521CEDE7A4
:102D1000084670BD642202490248FEF793B80000DD
:102D200098030020E401002030B500210B4C0B4635
:102D30000A4600BF54F82150491CC9B22B4454F82C
:102D40002150491CC9B22A446429F3D33224B3FB6D
:102D5000F4F1B2FBF4F2C0E9002130BD9803002089
:102D600010B508210648FEF73FFF012807D00548A7
:102D7000002210210068BDE8104003F071B810BDBA
:102D800000000240140000201CB5104C40F6AC5569
:102D90004FF4FA766846FFF7C7FFDDE90010B1424D
:102DA00001D201210AE0A94201D9022106E0A8428C
:102DB00001D9042102E0B04203D20821206803F0C7
:102DC00009F8642002F04AFEE4E700001400002045
:102DD0007FB500251A48009501950295174903957E
:102DE000016001244FF480310461C0E901150476CB
:102DF00080F820501349C0E90A150226C661C56053
:102E000080F830404461FDF7A6FF08B1FDF7F8FEF9
:102E1000009469460A48CDE90145FDF7F3FE08B183
:102E2000FDF7EEFE0096694605480196FDF7EAFEBD
:102E3000002801D0FDF7E4FE7FBD00000020014026
:102E4000E40100200100000F0F4810B50D4901609A
:102E50000621416000214FF400328160C0E9031275
:102E600012014261017641768176C1760177417720
:102E7000FEF701FB002803D0BDE81040FDF7C0BEFF
:102E800010BD0000006400408C020020094808B515
:102E9000016841F4800101600068002200F48000B4
:102EA000009005213820FFF7D7F8BDE8084038200A
:102EB000FFF7C4B8303802402DE9FC4100F0E0F9DA
:102EC000FFF728FF00F019F926A001F0D1F803223E
:102ED0000021012003F0E0F8294C03220021E060EA
:102EE000012003F0D9F8206100220421012003F021
:102EF000D3F8606000220421012003F0CDF8A06027
:102F0000204A0021204801F051FEA06121461B20EB
:102F1000CDE90001002380221CA1204803F090FC91
:102F200000251A20CDE900054FF480772B463A465C
:102F30001BA11D4803F084FC1926CDE90065002380
:102F40003A461AA11D4803F07BFCCDE90065002339
:102F500080221BA11E4803F073FC02F02DFF60616C
:102F6000BDE8FC8145766572797468696E67206991
:102F70007320496E69746564A3A10D0A0000000006
:102F800000000020FC6C0008153700084D6F746FBE
:102F9000725069645461736B000000005D31000879
:102FA00055495461736B00005D3E0008554941630B
:102FB00074696F6E5F5461736B000000913A000892
:102FC0004A6F79737469636B5461736B000000001E
:102FD000892D000870B586B014216846FDF79AF96E
:102FE00024480024016841F080010160016801F07B
:102FF00080010591016841F001010160016801F063
:1030000001010591016841F00201016000681A4E5A
:1030100000F002004FF480750590002229463046EA
:10302000FEF7E7FD082000904FF4441001900220C5
:10303000029069463046FEF7DFFC00950125CDE998
:103040000154694630460394FEF7D6FC20200090D8
:103050004FF48810CDE9010569460848FEF7CCFC1D
:10306000002205210920FEF7F7FF0920FEF7E6FF01
:1030700006B070BD3038024000000240000402403B
:103080000D4810B50B4901600C49416000214FF417
:1030900080428160C0E9031241618161C1610162C6
:1030A000FEF7B2FD002803D0BDE81040FDF7A8BD33
:1030B00010BD000000540040B4020020A0860100B2
:1030C0000C4810B50A4901604FF4E131416000211C
:1030D00081600C22C160C0E904128161C161FFF707
:1030E000C4FB002803D0BDE81040FDF789BD10BD2A
:1030F0000010014008030020FEE700F065B8000062
:10310000DFED102A9FED103A00B5B0EE622AF0EE26
:10311000621AB0EE431ADFED0D0A9FED0D0A0D485D
:1031200000F0CBF90B48B0EE622AF0EE621AB6EE70
:10313000001AF0EE430A9FED080A24305DF804EB14
:1031400000F0BBB900401C460000000017B7D138A2
:103150006F12033C280500200000144208B59FEDC3
:10316000160A8DED000AFFF7CBFF144C00231A4618
:103170001946206803F028F8114E124D4FF0FF3722
:103180003946206803F066FA00226946306803F089
:103190002BF9D5EC020A9DED000A01F0FFFB01209E
:1031A00000F052FA00231A461946206803F00CF882
:1031B000012002F053FCE3E7000000000C000020B7
:1031C000040000202C00002000B58BB0002001215D
:1031D000CDE90601089100900190029003900590BE
:1031E000049069460548FDF747FF0448FEF73AFAA0
:1031F00002210248FDF7D0FE0BB000BD8C0200207A
:10320000FEE7002000F020B82DE9F0479846174669
:10321000824600260C46DDF8209010E021465046FC
:1032200000F088F8554606E019F80600761C00F014
:103230000DFF6D1CEDB2BD42F6D3641CE4B24445F3
:10324000ECD3BDE8F087000070B506465FF00004DF
:1032500004F1B000C0B200F0E7FE022000F0E4FE8E
:10326000102000F0E1FE0025304600F0EFFE6D1C5E
:10327000EDB2802DF8D3641CE4B2082CE8D370BD05
:1032800010B56420FEF794FBAE2000F0CDFE2020A8
:1032900000F0CAFE102000F0C7FEB02000F0C4FE0F
:1032A000C82000F0C1FE022000F0BEFE102000F099
:1032B000BBFE402000F0B8FE812000F0B5FEFF20EC
:1032C00000F0B2FEA12000F0AFFEA62000F0ACFEA0
:1032D000A82000F0A9FE3F2000F0A6FEA42000F0E8
:1032E000A3FED32000F0A0FE002000F09DFED5201C
:1032F00000F09AFEF02000F097FED92000F094FE36
:10330000222000F091FEDA2000F08EFE122000F064
:103310008BFEDB2000F088FE202000F085FE8D2053
:1033200000F082FE142000F07FFEBDE81040AF20C8
:1033300000F07ABE10B50446B031C8B200F074FE99
:10334000102040EA141000F06FFE04F00F00BDE8FA
:10335000104040F0010000F067BE00002DE9F0478A
:10336000002591468A460446012B22D0DFF8BC8016
:10337000022B24D155E02038C7B27E2C04D90AF1A3
:103380000100002400F0FF0A51462046FFF7D2FF5B
:1033900007EB4700002608EB4007B85D00F056FE3B
:1033A000761CF6B2062EF8D3A41D6D1CE4B2EDB265
:1033B00001E0DFF87C8019F805000028DBD1BDE8CA
:1033C000F0872038C7B2782C04D90AF10100002414
:1033D00000F0FF0A51462046FFF7ACFF5FF0000601
:1033E00006EB071118F8010000F030FE761CF6B26B
:1033F000082EF5D30AF10100C1B22046FFF79AFF6B
:103400005FF0000606EB071101EB0800007A00F000
:103410001DFE761CF6B2082EF4D308346D1CE4B2FF
:10342000EDB219F805000028CBD1C8E78870000874
:10343000606E000890ED031A70EE600A80ED041AC9
:10344000C0ED030A30EEC10A90ED021A90ED012A98
:1034500020EE011A90ED000A60EE801A90ED050A48
:1034600000EE820A80ED050AD0ED060AB4EEE00A0D
:10347000F1EE10FA06DCF1EE600AB4EEE00AF1EECD
:1034800010FA01D2C0ED050A31EE810AD0ED050A2D
:1034900030EE200A80ED070AD0ED080AB4EEE00A0B
:1034A000F1EE10FA06DCF1EE600AB4EEE00AF1EE9D
:1034B00010FA01D2C0ED070A7047C0ED061A80ED80
:1034C000082A80EC030A70471CB51348C478684684
:1034D00001F018FB9DF80000022818D0032816D030
:1034E0000D49BC310E2C15D0641CE4B201EBC400B4
:1034F00010F8080C0228F5D00328F3D001F0C4FA24
:10350000204602F013F802F053F800201CBD4FF0E3
:10351000FF301CBD0124E9E73400002070B50F48DE
:103520000D4D002490F8030015F8241081420DD1B0
:1035300001F0AAFA094805EB84010C308078405C60
:1035400001F0F4FF02F034F8002070BD641C052C7B
:10355000EADB4FF0FF3070BD5F85000834000020CB
:1035600070B51A48C2780B2A12D0194D00240120D8
:1035700005EB84010B5C93421ED101F085FA15F82E
:10358000240000BF01F0D2FF02F012F8002070BD4D
:10359000322002F063FA01F03DFA322002F05EFAC6
:1035A00001F04BFA322002F059FA01F085FA32208C
:1035B00002F054FA0820E5E7401C0428DADB641C1A
:1035C000052CD4DB4FF0FF3070BD0000340000202C
:1035D0005F8500081CB51348C478684601F092FA6C
:1035E0009DF80000022818D0032816D00D49BC31E0
:1035F000012C15D0641EE4B201EBC40010F8080CD5
:103600000228F5D00328F3D001F03EFA204601F05D
:103610008DFF01F0CDFF00201CBD4FF0FF301CBD21
:103620000E24E9E7340000200648272101715721C4
:103630004171002181710621C17141700221017027
:10364000704700003400002000B589B00021DFED94
:10365000130A08220291CDE9031220EE200A0691F6
:10366000079106A9BDEEC00A01EB4001042806D867
:103670005001009010EE100A21F8020C06E04FF401
:103680000070009010EE100A21F80A0C08AB06AA90
:1036900069460348FDF792FC09B000BD00007A447A
:1036A0008C0200201CB5684601F02CFA9DF8000041
:1036B000012802D04FF0FF301CBD9DF802109DF88C
:1036C0000100012901D0491EC8B201F017FF01F025
:1036D000F3F901F0A3FF00201CBD1CB5684601F002
:1036E00011FA9DF80000012802D04FF0FF301CBDF8
:1036F0009DF801109DF80200884201D1012001E0EF
:10370000401CC0B201F0FAFE01F0D6F901F086FFCC
:1037100000201CBD012002F0A1F9FBE710B54FF01D
:10372000E020006903F0E4F8012803D0BDE8104070
:1037300002F09CBC10BD000030B593B0302168464B
:10374000FCF7E8FD14210CA8FCF7E4FD1D4800255A
:10375000016841F080510160006800F080501190D4
:103760001948016841F4804101600068022400F4B6
:103770008040119001200090000401908001CDE96B
:10378000064008AA0420A82182E813000B9068468E
:10379000FEF79EFD08B172B6FEE70CA90F2081E886
:1037A00031004FF4A0500F904FF48050109005213D
:1037B0000CA8FEF783FC002801D072B6FEE713B018
:1037C00030BD0000403802400070004002480168EF
:1037D00041F470010160704788ED00E00148FEF798
:1037E0009EBF000050030020F0B50268294C2A4D0E
:1037F0002A4E2B4F2B4B4FF0804CA04209D06045F6
:1038000007D0A84205D0B04203D0B84201D09842B8
:1038100004D122F0700E4A6842EA0E02A0421BD088
:10382000604519D0A84217D0B04215D0B84213D085
:10383000984211D01C4DA8420ED01C4DA8420BD06E
:103840001B4DA84208D01B4DA84205D01A4DA842D6
:1038500002D01A4DA84203D122F44075CA682A4307
:103860004D6922F080022A4302608A68C2620A68B7
:103870008262A04201D0984201D10969016301210D
:1038800041610169C90703D0016921F001010161AA
:10389000F0BD0000000001400004004000080040AE
:1038A000000C004000040140004001400044014081
:1038B0000048014000180040001C0040002000406B
:1038C00001680C3151E8002F22F4907241E8002386
:1038D000002BF5D10168143151E8002F22F00102CC
:1038E00041E80023002BF5D1016B012909D10168C2
:1038F0000C3151E8002F22F0100241E80023002B88
:10390000F5D1202180F842100021016370470000AA
:1039100070B5044600680169E26821F44051114322
:1039200001612169A068E2690843616911430843A4
:103930002168CA6849F20C639A430243CA6020684E
:103940004169A26921F44071114341613149206804
:10395000884202D03049884202D1FEF779FC01E06A
:10396000FEF766FCE2690023192164253226B2F5D0
:10397000004F626828D0A0FB0101930F9200FCF772
:103980007FFC0146B0FBF5F06FF01802504301EBED
:10399000800006EB0010B0FBF5F000F0F002B1FB88
:1039A000F5F002EB0012B1FBF5F06FF0180358438D
:1039B00001EB800006EB0010B0FBF5F000F00F000B
:1039C00021681044886070BDA0FB010192185B4122
:1039D000FCF756FC0146B0FBF5F00201B1FBF5F037
:1039E0006FF01803584301EB800006EBC000B0FBFA
:1039F000F5F000F0F80002EB4002B1FBF5F058439F
:103A000001EB800006EBC000B0FBF5F000F0070012
:103A1000D6E7000000100140001401402DE9F843F2
:103A2000984617460D460446089E24E0701C22D096
:103A3000FEF7E4F8A0EB0800B0421AD8CEB1206837
:103A4000C168490717D5802D15D0402D13D00168C6
:103A5000C94309070FD4016800254068009020463B
:103A6000FFF72EFF0820606484F840500120BDE875
:103A7000F8830320FBE72068006835EA000004D0E3
:103A80000020B842D2D00020F1E70120F9E7000081
:103A90002DED0C8B86B0DFEDD18AD14ECDED008AB5
:103AA000CDED018A4FF0FF359FEDCEBB9FEDCFAB43
:103AB0009FEDD09B9FEDD1CBD24FDFF84CB3DFF819
:103AC0004C93DFF84C83DFF84CA3D34C2946206895
:103AD00002F0C0FD2A4601A9306802F085FC01F021
:103AE00019F8801E0A287DD2DFE800F02A057C54F0
:103AF0007DD97C7C7CEB0198FCF7B2FD53EC1A2B52
:103B0000FCF7CAFC41EC1D0B3868FCF7A9FD53EC2F
:103B10001D2BFCF7D1FDE6D29DED010A0223002208
:103B2000B1EE400A8DED000A6946D8F8000002F0B7
:103B30004BFB00F0A9FF022001F0F8FC012127E077
:103B40000198FCF78DFD53EC1B2BFCF7A5FC41EC19
:103B50001D0B3868FCF784FD53EC1D2BFCF794FD1E
:103B6000C1D20198FCF77CFD53EC192BFCF794FCB7
:103B7000FCF7BAFD0090022300226946D8F8000045
:103B800002F022FB00F080FF032001F0CFFC0221B5
:103B900001207BE00198FCF763FD9FEDA01B53EC37
:103BA000112BFCF779FC41EC1D0B3868FCF758FD34
:103BB00053EC1D2BFCF768FD95D200BF9DED010A6B
:103BC00002230022B1EE400A8DED000A6946D8F8C2
:103BD000000002F0F9FA00F057FF062001F0A6FC01
:103BE000022152E0D8E00198FCF73AFD9FED8D1BD1
:103BF00053EC112BFCF750FC41EC1D0B3868FCF723
:103C00002FFD53EC1D2BFCF757FD019816D2FCF746
:103C100027FD53EC1C2BFCF73FFCFCF765FD0090E7
:103C2000022300226946D8F8000002F0CDFA00F025
:103C30002BFF052001F07AFC012126E0FCF710FDA6
:103C400053EC1B2BFCF728FC41EC1D0B3868FCF7F0
:103C500007FD53EC1D2BFCF717FDADD20198FCF7C7
:103C6000FFFC53EC192BFCF717FCFCF73DFD009013
:103C7000022300226946D8F8000002F0A5FA00F0FD
:103C800003FF072001F052FC0321042001F05AFC3D
:103C900001F08EFC4FF47A7001F0E0FE97E001989D
:103CA000FCF7DEFC53EC1A2BFCF7F6FB41EC1D0B8A
:103CB0003868FCF7D5FC53EC1D2BFCF7FDFC6BD2F0
:103CC0007CE704A800F01EFF9DED018A18EE100AA3
:103CD000FCF7C6FC53EC1C2BFCF7DEFBFCF704FDE9
:103CE000029018EE100AFCF7BBFC53EC192BFCF702
:103CF000D3FBFCF7F9FC039097ED000A30EE080ABD
:103D0000B1EE400A10EE100AFCF7AAFC9FED471B2B
:103D100053EC112BFCF7C3FB9FED461B53EC112B0F
:103D2000FCF716FBFCF7E0FC08EE100A18EE100A90
:103D3000584532D818EE100A48452EDA0021DAF834
:103D4000000002F087FC0120B0EE680AFFF77CFC5F
:103D500097ED000A02238DED000A00226946D8F88B
:103D6000000002F031FAB5EEC08AF1EE10FA01D28D
:103D700000200BE018EE100A3049884201DD642073
:103D800004E0BCEEC80A10EE100AC0B201F0B6FBA7
:103D900001F08CFC01F0E8FC19E018EE100A58451F
:103DA00003D90223002202A906E018EE100A4845B2
:103DB0000DDB0223002203A9D8F8000002F004FA68
:103DC00000231A461946DAF8000002F0FDF9002334
:103DD0001A461946206802F0F7F977E6000000005D
:103DE0000800002008274354FB21E9BF320D337F30
:103DF0007CD902C0EA2E4454FB2109C0EA2E445467
:103E0000FB2109402C0000200000A0C00000D2428D
:103E1000040000200C00002010000020320D337F31
:103E20007CD9024008274354FB21E93FFE468BAB77
:103E3000BBD42F4000000000000049400000C842F1
:103E400010B5FFF71DFAFFF7DCF9FFF7EDFB0120D6
:103E500001F06CFBBDE8104001F0AABB2DED068B14
:103E600088B09FED640A8DED010A8DED040AFFF71D
:103E7000E7FF9FED619B9FED628B634E634C4FF0BC
:103E8000FF3502A800F03EFE029810F0FF0011D0AE
:103E900001280FD00095002301220F21206801F096
:103EA000E7FF2946306802F0D5FB00F033FE0B280F
:103EB0007DD093E00095002301221F21206801F0AE
:103EC000D7FF0028DDD0410702D5FFF7FDFA49E012
:103ED000010702D5FFF77EFB44E0810702D5FFF71B
:103EE000E1FB3FE0C10702D0FFF7F7FB3AE0C00675
:103EF00038D54748002201A9006802F075FA00F0A1
:103F000009FEFFF70BFB00F005FE801E0A281CD2FD
:103F1000DFE800F0052B1B0C052B1B1B1B339DED55
:103F2000010AB1EE400A8DED040A0EE00198FCF79B
:103F300097FB53EC182B41EC100B00BF51EC100B0E
:103F4000FCF7AAFAFCF7D0FB0490324802230022C7
:103F500004A9006802F038F900231A4619463068AF
:103F600002F032F94FF42F703CE00198FCF778FB37
:103F700041EC100B53EC192BE0E70198FCF770FBB8
:103F800041EC1A0B02A800F0BDFD0298C0F30740F7
:103F900000EE100AB8EE400AB1EE400A10EE100A28
:103FA000FCF75EFB53EC182BFCF779FA00E00EE00F
:103FB0009FED191B53EC112BFCF7E3FA53EC182B74
:103FC000FCF7C6F953EC1A2BFCF763FABAE714486E
:103FD00000231A461946006802F0F6F8FFF7C0FA07
:103FE0004FF4FA7001F03AFD1F21206801F0C4FE81
:103FF00047E7000000000000EA2E4454FB2109C0FE
:10400000EA2E4454FB210940100000201400002037
:1040100004000020080000200000000000004940CB
:104020000C000020FEE7000001B584B001216422ED
:1040300004A88DE807000B46002278210248FDF70E
:10404000A7FE05B000BD0000B402002001B584B099
:104050000121642204A88DE807000B464022782144
:104060000248FDF795FE05B000BD0000B402002037
:104070000FB4054B10B503A9044A029800F0DAF812
:1040800010BC5DF814FB0000ED4A0008E0010020C0
:104090000907090E002804DB00F1E02080F8001475
:1040A000704700F00F0000F1E02080F8141D704709
:1040B00002E008C8121F08C1002AFAD170477047F1
:1040C000002001E001C1121F002AFBD1704700004F
:1040D0002DE9FF5FDDE90220010DDDF838B0024374
:1040E00018D044F61050A1F2FF3141430D140F983F
:1040F000012820D0A5EB0B00401C5FEA000A4FF01E
:104100000004474EDFF81C91A046504616D5CAF170
:10411000000728E00F98012443A2012808D00021BD
:1041200000980F9BC0E90021C0E90243BDE8FF9F52
:104130006FEA0B01F4E7CBF10000DEE7074612E07F
:10414000F80707D02246334640464946FCF7A7F910
:10415000804689462246334610461946FCF79FF9A9
:1041600004460E467F10002FEAD1DDE90201BAF1C4
:10417000000F42464B4602DAFCF791F901E0FCF7EA
:1041800000FA04460E460022284BFCF795FA03D8A5
:104190004FF0FF30014607E00022254B2046314614
:1041A000FCF7D6F8FCF797FB102409E0002C0ADB9B
:1041B0000A220023FCF764F8019B30321A55641E72
:1041C00050EA0102F2D1641C019AC4F111031444B3
:1041D0000F9A012A03D0012208430DD10AE00843B7
:1041E00004D000204FF0110B0F9080E7A3EB0B05DC
:1041F0006D1E0DE05B4504DD4FF0000205F1010589
:1042000004E003DA4FF00002A5F10105002AECD02A
:1042100000980F99C0E90231C0E9004586E7000027
:10422000000024400000F03F300000000000F04398
:104230000000E03F2DE9FF4F95B09B4689460646BA
:1042400000250FE2252877D100242746F84A0121CE
:10425000059400E0044316F8013F203B01FA03F007
:104260001042F7D130782A2811D06FF02F03307820
:10427000A0F13002092A16D8059A44F0020402EB94
:10428000820203EB42021044761C0590EFE759F8D6
:10429000042B0592002A03DA504244F4005405909E
:1042A00044F00204761C30782E2816D116F8010F3F
:1042B00044F004042A280DD06FF02F023078A0F1CA
:1042C0003003092B09D807EB870302EB4303C71818
:1042D000761CF3E759F8047B761C30786C280FD0F5
:1042E00006DC4C2817D068280DD06A2814D104E0C9
:1042F000742810D07A280FD10DE044F400140AE09D
:1043000044F4801401E044F440147278824202D1F3
:1043100004F58014761C761C307866280BD013DCEC
:10432000582877D009DC002875D04528F6D04628D3
:10433000F4D047281AD19DE118E0632835D06428CD
:1043400079D0652812D195E1702873D008DC6728F0
:10435000F1D069286FD06E280DD06F2806D1B5E056
:1043600073282CD0752875D0782874D05A461799A0
:1043700090476D1C75E1C4F30250022809D0032850
:104380000DD0D9F8001004280DD00D6009F10409F2
:1043900067E1D9F80010EA17C1E90052F6E7D9F849
:1043A00000100D80F2E70D70F0E719F8041B8DF88E
:1043B000001000208DF80100EA46012003E059F8C2
:1043C00004AB4FF0FF3061074FF0000102D40DE065
:1043D00008F101018846B9420FDA8045F8DB1AF886
:1043E00008100029F4D108E008F101018846814253
:1043F000FADB1AF808100029F6D105985B46A0EB05
:10440000080721463846179A00F094FA284400EB32
:10441000080507E04DE029E10DE01AF8010B5A46C6
:1044200017999047B8F10108F7D25B462146384604
:10443000179A13E142E00A220092C4F302524FF0AD
:10444000000A022A08D059F804CB032A4FEAEC717B
:104450000AD00DE029E02AE009F1070121F0070266
:10446000F2E802C1914609E00FFA8CFC4FEAEC71C8
:10447000042A03D14FFA8CFC4FEAEC71002907DAC9
:104480000A460021DCF1000C61EB02012D2202E062
:10449000220504D52B228DF80420012203E0E20737
:1044A00001D02022F7E7904659E00A2102E01022CD
:1044B0000DE010214FF0000A00910BE010224FF0A8
:1044C000000A44F004040827009203E008224FF099
:1044D000000A0092C4F30252022A05D059F804CB14
:1044E0000021032A08D009E009F1070121F00702A1
:1044F000F2E802C1914605E01FFA8CFC042A01D1C2
:104500000CF0FF0C4FF00008220728D5702806D0C9
:10451000009B83F0100353EA0A0305D00EE040220B
:104520008DF80420012208E05CEA010206D0302266
:104530008DF804208DF8050002229046009B83F040
:10454000080353EA0A030AD15CEA010201D16207B7
:1045500005D530228DF804204FF001087F1E582821
:1045600004D034A003900EA802900DE036A0F9E725
:1045700053466046009AFBF783FE84460398825CAC
:104580000298401E029002705CEA0100F0D102988D
:1045900006A9081A00F1200A600702D524F4803425
:1045A00000E00127574502DDA7EB0A0000E00020EC
:1045B00000EB0A01009005984144401A0590E00381
:1045C00006D45B462146179A059800F0B3F90544D6
:1045D000002706E001A85A46C05D179990476D1C58
:1045E0007F1C4745F6DBE0030CD55B462146179A56
:1045F000059800F09FF9054404E030205A461799C9
:1046000090476D1C0099481E00900029F5DC08E0D9
:10461000029802995A460078491C029117999047CE
:104620006D1CBAF10001AAF1010AF1DC65E100009C
:104630000928010030313233343536373839616278
:10464000636465660000000030313233343536373C
:1046500038394142434445460000000000F058F913
:104660000544761C307800287FF4ECAD19B028465C
:10467000BDE8F08F620700D4062709F1070222F097
:10468000070CFCE80223E14603F000485FEA080C4F
:1046900002D00FF2702C0DE05FEA045C02D50FF23D
:1046A000682C07E05FEAC47C02D00FF2602C01E0C6
:1046B000AFF2700C4FF0FF3823F00043CDF850C03C
:1046C00065280CD006DC452809D046281DD047288F
:1046D0003DD13DE0662818D067287ED138E0002122
:1046E000112F01DB112000E0781CCDE9000106A9A3
:1046F0000EA8FFF7EDFCDDE90F010E9A03910021F2
:10470000009207F1010A04914DE04FF0004000973C
:10471000CDE9011006A90EA8FFF7DAFCDDE90F02CA
:1047200003920E9B11990022DDF80CA000930492D5
:1047300011B9791C00EB010AB7EB0A0004D4C0F1EF
:10474000FF3007F1010A0490AAEB0700019044E052
:10475000012F00DA01270021112F01DD112000E0D7
:104760003846CDE9000106A90EA8FFF7B1FCDDE946
:104770000F010E9A0391002104910092BA4621077D
:104780000CD40399514500DA8A46BAF1010F05DDD0
:10479000009AAAF10101515C302908D0B84202DA2E
:1047A00010F1040F06DA0121CDE9011015E0AAF19C
:1047B0000101E9E7002805DC049901440491AAEB12
:1047C000000102E0411C514500DD8A460499401A6F
:1047D000401C01904FF000400290200704D4019843
:1047E000504501DBCDF8048000208DF84F00029881
:1047F0000DF14F07B0F1004F25D02B200E900298FD
:104800004FF0020800280CDA404202902D200E9052
:1048100007E00A210298FBF783FF3031029007F886
:10482000011DB8F10001A8F10108F2DC029800288E
:10483000EFD1791E0E980870307800F0200040F01B
:10484000450007F8020D12A8C01B00F107081498D4
:10485000007800B1012000EB0A01019801EBE07142
:1048600005984144401A401E0590E00306D45B467B
:104870002146179A059800F05DF8054414980078D1
:1048800018B15A46179990476D1CE00324D55B4632
:104890002146179A059800F04DF805441CE004984D
:1048A000002807DBDDE90301884203DD0098405C56
:1048B000179901E0179930205A469047049805F15E
:1048C0000105401C04900198401E019004D12E2047
:1048D0005A46179990476D1CBAF10001AAF1010AD6
:1048E000DDDC05E017F8010B5A46179990476D1C5F
:1048F000B8F10001A8F10108F4DC5B462146179AE3
:104900000598ABE62D0000002B0000002000000001
:104910002DE9F041044600251E461746880404D4BC
:1049200005E039462020B0476D1C641EF9D52846A5
:10493000BDE8F0812DE9F041044600251E46904671
:10494000C80301D5302700E02027880404D505E0FE
:1049500041463846B0476D1C641EF9D52846BDE86F
:10496000F081000070B50C48C0780B2802D04FF0E1
:10497000FF3070BD03210E20FEF7DCFC064D002445
:104980000C3503E0FF20FFF761FB641CA878A04210
:10499000F8DA002070BD00003400002000B5F0EE11
:1049A000412A0848FEF746FD0648F0EE620A90EDFF
:1049B000070A2438FEF73EFD0248243890ED070A26
:1049C00000BD00004C05002070B50024A01DC1B240
:1049D0000020FEF7AFFC00250020FFF737FB6D1C21
:1049E000EDB2102DF8D3641CE4B2022CEED30024F7
:1049F000A01DC1B27020FEF79DFC00250020FFF72E
:104A000025FB6D1CEDB2102DF8D3641CE4B2022C12
:104A1000EED370BD70B5002421460020FEF78AFC5D
:104A200000250020FFF712FB6D1CEDB2102DF8D30E
:104A3000641CE4B2022CEFD370BD10B503210C202E
:104A4000FEF778FC00240020FFF700FB641CE4B2B2
:104A5000672CF8D910BD000070B50A4E0024B0795B
:104A60002044C1B23079FEF765FC00250020FFF735
:104A7000EDFA6D1CEDB2302DF8D3641CE4B2062CB7
:104A8000EDD370BD3400002010B5FFF7E5FF00F056
:104A900013F808480078012807D0022801D003281D
:104AA00007D1BDE81040FFF7B5BFBDE81040FFF7E4
:104AB0008BBF10BD4000002070B50B4E00247078F5
:104AC0002044C1B2307AFEF735FC002504E0002016
:104AD000FFF7BCFA6D1CEDB2707A8542F7D3641C07
:104AE000E4B2022CEBD370BD3400002013B54FF6B6
:104AF000FF73012269460248FDF720FF00981CBDA4
:104B000008030020024AD2E90312C0E900127047EC
:104B1000340000200148C0787047000034000020B5
:104B2000FDF70AFAFEF708FEFEF754FAFEF7AEF9B3
:104B3000FEF78AF9FEF7C4FAFEF74AF9FEF7A0FA83
:104B400000F006F8FEF7B8F900F014F8FEE70000F0
:104B5000EFF3058010B16FF005007047044801685D
:104B600011B14FF0FF307047012101600020704704
:104B7000B001002010B5EFF3058010B16FF0050013
:104B800010BD08480168012902D04FF0FF3010BD68
:104B9000054A002182F8141D0221016001F06EF81F
:104BA000002010BDB00100200BE000E02DE9FF4126
:104BB0000B464FF00005EFF30581039549BB40B369
:104BC0008027182100244AB3166806B13446966936
:104BD0001EB13146761E382E02D21679F60703D062
:104BE000002004B0BDE8F081566906B1B708D2F8DC
:104BF00008C0BCF1000F0DD0D5685C2D18D3126928
:104C00003AB136B18DE806103A46214601F045FE2C
:104C100003900DE0D6685EB912694AB903AACDE9DE
:104C20000012BAB2214601F00BFE012800D0039514
:104C30000398D6E72DE9F041134C0F460546E66888
:104C40002068001D00F0C8FD681C07D137B121683D
:104C5000BDE8F0410D48091D00F01CBE2068354438
:104C6000B5424560216805D2A06BBDE8F041091D41
:104C700000F0F8BD606B091D00F0F4FDA06A8542EC
:104C800000D2A562BDE8F08160010020600A00202A
:104C90002DE9F041054600F009FE2D4CA068401CAE
:104CA000A06020682B4F10B1606930B32BE0256005
:104CB000A068012827D1002606EB860007EB8000BC
:104CC00000F0C2FD761C382EF6D3234800F0BCFD60
:104CD0002148143000F0B8FD1F48283000F0B4FD22
:104CE0001D483C3000F0B0FD1B48503000F0ACFDDA
:104CF000194860631430A06305E02068E96AC06A5F
:104D0000884200D82560606A401C60626864E86A76
:104D10002169884200D9206100EB800007EB800008
:104D2000291D00F0B7FD00F0E1FD606900280CD0FE
:104D30002068E96AC06A884207D208494FF080506B
:104D40000860BFF34F8FBFF36F8FBDE8F0810000A5
:104D500060010020B0050020100A002004ED00E0F2
:104D600038B500F0A3FD104C2068C8B90F4800F01A
:104D70006BFD0E48143000F067FD0C48E060143005
:104D800020610A4B0020F03B009003F150021021FB
:104D90000A2001F0A2F9206010B105A100F028FE60
:104DA000BDE8384000F0A2BD9C010020640B00204B
:104DB000546D72510000000030B4026C0B46002AA2
:104DC0000BD0C1681144C1608468A14201D301685D
:104DD000C16030BC1846FBF784BA30BC70472DE97F
:104DE000F041856B174604460026026C82B1C7B1BC
:104DF000E068FBF776FAE168206C091AE160226846
:104E0000914202D2A168081AE060022F16D017E082
:104E10002068A8B9A06801F0E3FD06460020A06064
:104E20000EE06068FBF75DFA216C60680844606022
:104E3000A168884204D32068606001E005B16D1E5E
:104E40006D1CA5633046BDE8F08110B5044690F8AE
:104E5000590058B101280CD002280FD0502080F3FF
:104E60001188BFF34F8FBFF36F8FFEE7206B00F009
:104E700051FD2046BDE8104000F04CBD10BD0000C3
:104E800010484FF47051420706D0C01D0D4920F064
:104E90000700411AC1F570510B4A00230144C2E9D1
:104EA00000030839183A21F0070111604B600B60CC
:104EB0000B1AC0E9001393604FF00040536050613B
:104EC0007047000044120020CC010020144E154C05
:104ED000A6F29C474FF08058DFF84C9012E000BFDC
:104EE00000F0E4FCF068C568281D00F075FCA068BF
:104EF000401EA0606068401E606000F0F7FC28461D
:104F0000FFF7A3FF60680028EAD138680128F9D9C3
:104F1000C9F80080BFF34F8FBFF36F8FF2E7000037
:104F20004C0A00206001002004ED00E070B51D4631
:104F3000049C51B1C4F80020C4E90F0101212046AE
:104F400001F0FEF884F84C5070BD2460F4E70000D6
:104F50002DE9F05F8846DDE90B9415468346910004
:104F60009A460A9EA522206BFBF7CDF96FF003014C
:104F7000206B01EB8501084420F00707780707D074
:104F8000502080F31188BFF34F8FBFF36F8FFEE780
:104F90000025B8F1000F0FD05FF00000221818F8BC
:104FA000001082F8341018F8001011B1401C1028BD
:104FB000F4D384F8435001E084F83450382E00D301
:104FC0003726E662C4E91365201D00F048FC04F1B1
:104FD000180000F044FC2461C6F138006462A0614E
:104FE000656584F8585052465946384600F070FAC4
:104FF0002060B9F1000F01D0C9F80040BDE8F09F72
:1050000030B5114900E011460A688242FBD34B6873
:105010005C18844203D140681844486008464368DD
:105020001C18944209D1084C183C2468A24209D0AB
:1050300052681A4442600A6812680260814200D0D5
:10504000086030BD0460F9E7CC01002070B5002491
:1050500041600B4D0061914206D8D11A826991429C
:1050600006D2011D286907E09A4203D2994201D372
:10507000012403E0011DE86800F0F4FB204670BD48
:105080009C01002010B5044600F010FCA06B28B174
:105090005FF0000400F02AFC204610BD0124F9E76F
:1050A00030B589B03C4D6EE00498002806DADDE9A1
:1050B0000601059A90470498002864DB069C606905
:1050C00010B1201D00F088FB03A800F0D7F80246BD
:1050D00004980A2857D2DFE800F00505052D334A69
:1050E00005052D3394F8280040F0010084F82800CD
:1050F0000599A069059B01442046FFF7A7FF68B307
:10510000216A2046884794F8280040073BD50020B4
:1051100000900598A169002342181946204601F025
:10512000A5FDD8B9502080F31188BFF34F8FBFF38E
:105130006F8FFEE714F8280F20F00100207022E0A6
:1051400094F8280040F0010084F828000598A06138
:1051500028B1811813462046FFF778FF13E050204E
:1051600080F31188BFF34F8FBFF36F8FFEE794F882
:105170002800810703D4204600F0CCFB03E020F098
:10518000010084F82800002204A9286801F0C6F96B
:10519000002889D109B030BD9C0100202DE9FC41D7
:1051A0000F46054600F0AEFD01A800F067F8044682
:1051B000019818B101F0C8FCBDE8FC81254EAFB1E3
:1051C00030690068D0B30027291B3A46306800F0E8
:1051D00023FC01F0B9FC0028EED11F494FF08050AC
:1051E0000860BFF34F8FBFF36F8FE5E7A542EBD8A1
:1051F00001F0AAFCF0682746C068C468201D00F0D2
:10520000EBFA94F82800410719D5A0692B464119FB
:105210003A462046FFF71AFFA8B100200346014690
:1052200000902A46204601F021FD60B9502080F30D
:105230001188BFF34F8FBFF36F8FFEE707E020F0B9
:10524000010084F82800216A20468847B4E7012736
:10525000BAE700009C01002004ED00E00648416B25
:10526000096829B1416BC968C9684968816270479A
:105270004FF0FF31FAE700006001002070B50546ED
:1052800001F044FB064E0446B068844203D200F0AD
:1052900009F8012000E0002028602046B46070BDBD
:1052A0009C010020F8B5194D20E0C068C46806686C
:1052B000201D00F091FA216A2046884794F82800C2
:1052C000400713D5A0693044B04206D9246160601C
:1052D000211DE86800F0C6FA08E0002003460146F8
:1052E00000903246204601F0C1FC38B1E868016800
:1052F0000029DAD12969C5E90310F8BD502080F3EF
:105300001188BFF34F8FBFF36F8FFEE79C01002022
:1053100008484068401C4FF0500080F3118804D0CA
:10532000BFF34F8FBFF36F8FFEE7BFF34F8FBFF316
:105330006F8FFEE7D40100200346002012B199438D
:1053400002D070470B42FCD001207047074CE06848
:10535000016841B1C0680021D0F80000FFF71EFFCE
:10536000FFF79EFEF3E701210020F7E79C010020F4
:105370002DE9F041044600F099FA94F9455004F102
:10538000240609E0606A48B1304601F0A5FB08B187
:1053900000F092FB6D1E6DB2002DF3DC4FF0FF3676
:1053A00084F8456000F0A2FA00F080FA94F94450C5
:1053B00004F1100709E0206948B1384601F08CFB80
:1053C00008B100F079FB6D1E6DB2002DF3DC84F89E
:1053D0004460BDE8F04100F089BA00002DE9F041D9
:1053E0000546002700F08EFC324E306808B9FFF702
:1053F00047FD706905424ED1C5B3083568070ED028
:1054000005F00700C0F108000544680707D05020E8
:1054100080F31188BFF34F8FBFF36F8FFEE72DB37B
:105420007068854237D82348183001460C6801E07F
:1054300020460C466168A94202D221680029F7D1B2
:1054400031688C4227D0076821680160606808379E
:10545000411B10290FD96019420708D0502080F352
:105460001188BFF34F8FBFF36F8FFEE713E04160EA
:105470006560FFF7C5FD61687068401A7060B268CA
:10548000904200D2B060706901430020C4E900017D
:10549000F068401CF06001F057FB780707D05020FF
:1054A00080F31188BFF34F8FBFF36F8FFEE738464D
:1054B000BDE8F081B40100200449086818B108680B
:1054C000026D521C026508687047000060010020F0
:1054D00010B5031F4FF080741C601B1F21F00101E9
:1054E0001960191F044B0B6014390A60091F6FF013
:1054F000020244380A6010BD115300080A490A78B4
:10550000012A05D14A78824202D24FF0FF3070471B
:1055100088700549B031A1F1BC02D27801EBC2011B
:1055200001F8060C0020704740000020044901EB00
:10553000C003BC3953E90223C1E90323C870704793
:10554000F0000020084A02EBC00252F8080CC3B277
:10555000012B05D1C0F30720884201D8981E70475F
:1055600002F8061C00207047F000002008B509482A
:1055700000900823102206210020FDF745FE054873
:10558000082320380090802206217020FDF73CFE81
:1055900008BD00003F85000808B5044800210090C0
:1055A000022310220846FDF72FFE08BD3F850008A4
:1055B00038B5194DA5F10C042878032804D001282A
:1055C00021D0022822D023E0FFF7E6FFE0780B2865
:1055D0000ED00C2803D00D2801D00E2807D1686802
:1055E0000090E3796279A1792079FDF70DFE38BD4D
:1055F000322000F033FA00F09DF8FFF7B3F9BDE870
:10560000384000F0B1B8FFF7B1FF01E0FFF7C4FF89
:1056100000F004F8E3E70000400000202DE9F0412D
:10562000214E4FF0FF37A6F10C043178E07804F1F9
:10563000140500EB400005EB8000012919D050F85B
:105640000C0CFAF77EFEC006000E6072C0F18000FE
:1056500007EB6000C0B22072E17801EB410105EB7D
:10566000810151F80C2C23786178BDE8F041FDF7F9
:1056700075BEB17800EB810050F8100CFAF761FEAE
:10568000C006000E6072C0F1800007EB6000C0B27F
:105690002072E178B27801EB410105EB810101EB69
:1056A000820151F8102CDEE7400000202DE9F04186
:1056B0001F4EF0780B2803D04FF0FF30BDE8F0818B
:1056C0001B4FB0780C37B9780A1A55B2002D10DD8F
:1056D00000F10E00C0B24FF00301FDF72BFE0024D5
:1056E00004E0FF20FEF7B2FC641CE4B2AC42F8DD3B
:1056F00010E00FDA0E31C8B20321FDF71BFE0024C3
:10570000C5F1010504E0C320FEF7A0FC641CE4B26F
:10571000A542F8DA03217320FDF70CFEFF20FEF707
:1057200095FCFF20FEF792FCB878B0700020C5E72A
:105730003400002010B503210C20FDF7FBFD0024F0
:105740000FE074B1012C0CD0662C0AD0672C08D065
:105750005FF0C300FEF77AFC641CE4B2672CF0D95A
:1057600010BDFF20F6E700007FB50020174900902C
:105770000190D1E90001164CCDE902014FF0FF354F
:10578000E0780B2802D0284604B070BD1048694666
:105790000C308078FDF78CFA0EA16846FAF7C5FD4B
:1057A000694602A8FAF7C1FD02A8FAF7CAFDC006C9
:1057B000000E6072C0F1800005EB6000C0B2207284
:1057C000237802AA6178FDF7C9FDDDE71885000896
:1057D0003400002020000000D0E9013201699A6005
:1057E000D0E901235A604A68824201D182684A6046
:1057F000002202610868401E0860086870470000C7
:10580000044908680A688069D26A0968C2F13802E6
:105810008A61704760010020034B036003F15C0064
:1058200008608020106070478C0B0020044B0360E0
:1058300003F15C0008604FF4807010607047000056
:10584000E80D002000F0C6BA00F108014FF0FF3269
:10585000C0E90112C16001610021016070470021AF
:105860000161704730B50B685A1C02D000F1080284
:1058700002E0026904E02246546825689D42FAD994
:1058800053684B6099608A60516008610168491CE7
:10589000016030BD42684A6093688B6093685960CC
:1058A000916008610168491C01607047502080F3D5
:1058B0001188BFF34F8FBFF36F8F0A494868401CB0
:1058C000486001280CD10848006810F0FF0F07D08D
:1058D000502080F31188BFF34F8FBFF36F8FFEE727
:1058E00070470000D401002004ED00E0084948683A
:1058F00028B1401E486001D180F3118870475020C4
:1059000080F31188BFF34F8FBFF36F8FFEE7000066
:10591000D401002070B500282AD0164DA0F108044B
:1059200060686969084207D1502080F31188BFF38D
:105930004F8FBFF36F8FFEE722683AB1502080F39C
:105940001188BFF34F8FBFF36F8FFEE7884360600E
:1059500000F0D8F960686968084468602046FFF77D
:105960004FFB2869401C2861BDE8704001F0ECB88D
:1059700070BD0000B40100204FF0E0200021016163
:10598000816105494FF47A720968B1FBF2F1491E51
:1059900041610721016170472800002010B5FAF726
:1059A00059FC114910280ED300F1E02090F8F003C3
:1059B0000A78904207D2502080F31188BFF34F8FAE
:1059C000BFF36F8FFEE709480068896800F4E06064
:1059D000884207D9502080F31188BFF34F8FBFF35F
:1059E0006F8FFEE710BD0000D40100200CED00E039
:1059F00010B5084B002200BF53F832401CB1521CB6
:105A0000082AF9D310BD43F8321003EBC2014860F5
:105A100010BD00007005002070B515460E46044606
:105A2000FFF744FF94F944100020491C01D184F889
:105A3000440094F94510491C01D184F84500FFF752
:105A400055FFA06B28B92A46314604F1240000F026
:105A500051F82046BDE87040FFF78ABC10B502003F
:105A600014D00F48006B38B1502080F31188BFF379
:105A70004F8FBFF36F8FFEE700F044F9002110460F
:105A8000FFF7D8F801F060F8002807D105494FF07A
:105A900080500860BFF34F8FBFF36F8F10BD0000C1
:105AA0006001002004ED00E002490A6A0260C96852
:105AB000416070476001002001490120C8617047C2
:105AC0006001002010B50C4650B109490968183131
:105AD000FFF7C8FE2046BDE810400121FFF7AAB835
