:020000040800F2
:10000000985100205D020008CD330008892A0008BD
:100010008D3300089D0A0008C93A0008000000005E
:100020000000000000000000000000009D0100082A
:100030005D0B000800000000F9010008ED36000823
:1000400077020008770200087702000877020008AC
:10005000770200087702000877020008770200089C
:10006000770200085F0B000877020008770200089B
:10007000770200087702000877020008770200087C
:10008000770200087702000877020008770200086C
:10009000A10A00087702000877020008770200082A
:1000A000770200087702000877020008770200084C
:1000B0007702000877020008AD37000877020008D1
:1000C000770200087702000877020008770200082C
:1000D000770200087702000877020008770200081C
:1000E000770200087702000877020008770200080C
:1000F00077020008770200087702000877020008FC
:1001000077020008770200087702000877020008EB
:1001100077020008770200087702000877020008DB
:10012000AD0A00087702000877020008770200088D
:1001300077020008770200087702000877020008BB
:1001400077020008770200087702000877020008AB
:10015000770200087702000877020008770200089B
:10016000770200087702000877020008770200088B
:1001700077020008770200087702000800000000FC
:100180007702000877020008DFF80CD000F06EFB61
:1001900000480047CB520008985100202C4B1968AA
:1001A0000868B0E8F04F80F30988BFF36F8F4FF015
:1001B000000080F3118870470000000008480068C4
:1001C000006880F308884FF0000080F3148862B65E
:1001D00061B6BFF34F8FBFF36F8F00DF00BF00BF6B
:1001E00008ED00E0DFF80C00016841F470010160E7
:1001F000704700BF88ED00E0EFF30980BFF36F8F19
:10020000134B1A681EF0100F08BF20ED108A20E96A
:10021000F04F106009B44FF0500080F31188BFF325
:100220004F8FBFF36F8F06F017FE4FF0000080F383
:10023000118809BC19680868B0E8F04F1EF0100F6B
:1002400008BFB0EC108A80F30988BFF36F8F704746
:10025000EC000020EFF3058070470000064880475F
:1002600006480047FEE7FEE7FEE7FEE7FEE7FEE79B
:10027000FEE7FEE7FEE7FEE79D370008890100087C
:100280002DE9F05F0546002092469B4688460646CB
:10029000814640241BE0284641464746224600F05E
:1002A00036FA53465A46C01A914110D311461846A1
:1002B000224600F01DFA2D1A67EB01084F46224630
:1002C0000120002100F014FA17EB00094E41201E16
:1002D000A4F10104DFDC484631462A464346BDE826
:1002E000F09F2DE9F0410024061B254671F1000620
:1002F00005DA01240027D0EB070067EB0101161E89
:1003000073F1000605DA0027D2EB0702012567EB3F
:100310000303FFF7B5FF86460E4617469C46AC42E0
:1003200004D00025D0EB050E65EB010624B10020BA
:10033000D2EB000760EB030C704631463A46634649
:10034000BDE8F08140EA01039B0703D009E008C93A
:10035000121F08C0042AFAD203E011F8013B00F88A
:10036000013B521EF9D27047D2B201E000F8012BD6
:10037000491EFBD270470022F6E710B513460A4625
:1003800004461946FFF7F0FF204610BD421C10F846
:10039000011B0029FBD1801A704730B504460020AC
:1003A000034600E05B1C934203D2E05CCD5C401B43
:1003B000F8D030BD2DE9FE4F804681EA0300C00F22
:1003C0000C46009021F0004123F00045B8EB0200FC
:1003D000A94105D24046214690461C460B4602469E
:1003E00023F00040104347D0270DC7F30A00C3F3A2
:1003F0000A510290401A019040286BDAC3F31300AF
:1004000040F4801B0098924620B10023D2EB030AEF
:1004100063EB0B0B01985946C0F14002504600F0C7
:1004200067F906460D4650465946019A00F07FF995
:1004300010EB08006141002487EA115284EAE77357
:100440001A4340D0009A62B3019A012A4FEA075238
:1004500015DC001B61EB02014FF0004202EA07527B
:10046000CDE90042001C41F5801132462B4600F0D8
:100470007FF903B0BDE8F08F40462146F9E7001B45
:1004800061EB0201001C41F5801300185B4120184C
:10049000A2F5001747EB030140EAD570B6196D418C
:1004A00011E06D084FEA360645EAC0754FEA07527B
:1004B000001B61EB0201001C41F5801149084FEA65
:1004C00030000019514132462B4603B0BDE8F04FD1
:1004D00000F03FB90098012240000023D0EB020257
:1004E00063EBE073009821464FEAE074B8EB00003C
:1004F00061EB0401E9E783F000435BE781F0004131
:1005000058E72DE9FE4F81EA030404F0004421F08E
:10051000004100944FF0000B23F0004350EA010427
:100520005ED052EA03045BD0C3F30A54C1F30A5508
:100530002C44A4F2F3340194A0FB0254C1F3130140
:1005400041F48011C3F3130343F4801301FB02440D
:1005500000FB034E840A970A44EA815447EA835712
:10056000A4FB076802958D0A05FB07854FEA932CCB
:1005700004FB0C542705029D4FEA065847EA16373C
:10058000B5EB08056EEB070C870E920E47EA811754
:1005900042EA8312A7FB0201B6EB0B0164EB0004F5
:1005A0002B0D43EA0C335E1844EB1C50DA465146DF
:1005B000E7FB0201C5F313044FEA0B3343EA14537C
:1005C0004FEA0432019C43EA0603A4F10C040294AE
:1005D000009CCDE900B400F0CBF803B0BDE8F08F8B
:1005E00000200146F9E72DE9F04D81EA030404F00B
:1005F000004B21F0004514464FF0000A23F0004163
:1006000050EA050220D054EA01021DD0C5F30A5772
:100610000246C5F31303C1F31300C1F30A5640F4B5
:10062000801543F48013A7EB0608101BD64608F28A
:10063000FD3873EB050002D308F1010801E09218C0
:100640005B41B8F1000F03DA00200146BDE8F08DF0
:1006500000204FF48011064684460EE0171B73EB12
:10066000050705D3121B63EB050306434CEA010C97
:1006700049084FEA300092185B4150EA0107EDD17A
:1006800052EA030012D082EA040083EA050108431B
:1006900005D0101BAB4106D20122002306E0002248
:1006A0004FF0004302E06FF0010253101AEB060016
:1006B0004CEB085110EB0A0041EB0B01BDE8F04D8B
:1006C00000F047B830B50B46014600202022012437
:1006D00009E021FA02F59D4205D303FA02F5491B10
:1006E00004FA02F52844151EA2F10102F1DC30BD26
:1006F000202A04DB203A00FA02F1002070479140E2
:10070000C2F1200320FA03F3194390407047202AD6
:1007100004DB203A21FA02F00021704721FA02F3AB
:10072000D040C2F120029140084319467047202A68
:1007300006DBCB17203A41FA02F043EAE07306E009
:1007400041FA02F3D040C2F1200291400843194619
:10075000704710B5141E73F1000408DA401C41F113
:10076000000192185B411A4301D120F0010010BD35
:100770002DE9F04D92469B4611B1B1FA81F202E0AB
:10078000B0FA80F220329046FFF7B2FF04460F46DF
:1007900040EA0A0041EA0B0153465A46084313D087
:1007A000114653EA010019D0C8F140025046FFF744
:1007B000AEFF05460E46504659464246FFF798FFA3
:1007C000084305D0012004E020463946BDE8F08DFD
:1007D0000020054346EAE0762C4337430A98630538
:1007E000E40AA0EB08000022FD0A44EA47540A305C
:1007F00002D500200146E9E7010510196941DDE94C
:10080000084500196941BDE8F04DA2E7C1F30A525D
:10081000C1F3130140F2FF3341F480119A4202DA2E
:1008200000200146704740F233439A42A2F233421D
:1008300002DC5242FFF76BBFFFF75ABF30B5041E10
:1008400071F1000404DB4FF00044404264EB01010D
:10085000141E73F1000405DB1C464FF000435242A6
:1008600063EB0403994208BF904230BD064C074D2C
:1008700006E0E06840F0010394E807009847103470
:10088000AC42F6D3FFF784FC2C9A00084C9A00087F
:1008900070B58C1810F8015B15F0070301D110F842
:1008A000013B2A1106D110F8012B03E010F8016B6F
:1008B00001F8016B5B1EF9D12B0705D40023521EF2
:1008C0000DD401F8013BFAE710F8013BCB1A921C5A
:1008D00003E013F8015B01F8015B521EF9D5A14258
:1008E000D8D3002070BD10B50146806B026C12F0A9
:1008F000500F05D0026CD20626D500F0DDF910BDF0
:10090000016C41F40071016401688A6812F0405F73
:1009100017D1027EAAB9CA6A12F4700F02D08A688F
:1009200052050ED44A6822F020024A60016C21F47C
:1009300080710164016CC90403D4016C41F00101B0
:10094000016400F0B7F910BD806BC26CBDE81040C7
:100950000846104710B5806B40210164416C41F09E
:100960000401416400F0A8F910BD10B5806B00F0DF
:10097000A2F910BD464910B54A6822F440324A60D7
:100980004A6843681A434A6001684A6822F48072E0
:100990004A6001684A68036942EA03224A600168C2
:1009A0004A6822F040724A6001684A6883681A43C4
:1009B0004A6001688A6822F400628A6001688A6875
:1009C000C3681A438A60816A6FF07062D14201681D
:1009D0008A6822F070628A6001688A680CD0836A33
:1009E0001A438A6001688A6822F040528A6001686E
:1009F0008A68C36A1A4301E022F040528A600168A3
:100A00008A6822F002028A6001688A68037E42EAEC
:100A100043028A6090F82010002901684A680FD0CC
:100A200042F400624A6001684A6822F460424A6007
:100A300001684A68174C436A04EB43331A4301E0E8
:100A400022F400624A600168CA6A22F47002CA6233
:100A50000168CA6A838B104C04EB03531A43CA62C1
:100A600001688A6822F400728A6001688A6890F8D6
:100A7000303042EA43228A6001688A6822F4806248
:100A80008A6001688A68406942EA8020886010BDF7
:100A90000023014000E0FFFF0000F0FFFEE7000040
:100AA000014800F03EBB000018020020014800F0A1
:100AB00061BD0000B801002001681823CAB2103AD5
:100AC000B2FBF3F2054B6FF30901032A9B5CC3658C
:100AD00000D9091D81650846704700001879000893
:100AE00010B5014600208B698A6A4FF0C07453B17B
:100AF000B3F5005F15D072B1012A0CD0022A0AD0DA
:100B0000032A09D104E01AB1012A06D0022A03D12E
:100B1000C96AC90100D5012010BDC96AA142FAD035
:100B200010BD002AF7D0012AF2D0022AF3D0032AFE
:100B3000F3D010BD30B50468256825F48025256004
:100B4000046863608368402B036803D09960006881
:100B5000C26030BD9A600068C16030BD7047082037
:100B600000F092BE72B6FEE778B50024009490F8CB
:100B70003C20012A19D0012280F83C200A68072372
:100B80000568092A13D9EE680A3A02EB420293403B
:100B90009E43EE600B788A680A3B03EB43039A405E
:100BA0000368DD682A43DA6010E0022078BD2E6910
:100BB00002EB420293409E432E610B788A6803EB5E
:100BC00043039A4003681D692A431A614A681F2338
:100BD000072A13D205686E6B521E02EB8202934005
:100BE0009E436E630B790A885B1E92B203EB83030C
:100BF0009A4003685D6B2A435A6327E005680D2A13
:100C000012D22E6BD21F02EB820293409E432E63C0
:100C10000B790A88DB1F92B203EB83039A400368C7
:100C20001D6B2A431A6311E0EE6A0D3A02EB820251
:100C300093409E43EE620B790A880D3B92B203EB20
:100C400083039A400368DD6A2A43DA62164B05681B
:100C5000144A9D4206D10D68122D03D1556845F402
:100C60008005556005689D4218D10B68102B01D096
:100C7000112B13D1536843F4000353600968102902
:100C80000CD10A490A4A0968B1FBF2F101EB810172
:100C9000490000E0491E00910029FBD180F83C404A
:100CA000002078BD002301400020014014000020F6
:100CB00040420F0070477047704770B504004FF016
:100CC000000503D0206C002610B107E0012070BDA4
:100CD000204600F01DF8666484F83C60206CC00675
:100CE00010D4206C20F4885040F00200206420468C
:100CF000FFF740FE6664206C20F0020040F0010027
:100D0000206400E0012584F83C60284670BD0000A6
:100D100070B586B0064614216846FFF72CFB1D49C6
:100D20003068884234D11C480025016841F4807144
:100D30000160006800F4807005901748143801685D
:100D400041F0010101600068694600F00100059072
:100D5000062000900320CDE90105104800F0A0FD19
:100D6000104C0F48C4E900050015A560C4E9035004
:100D7000800060618000A0618011C4E90705204601
:100D8000656200F0C7FC08B1FFF7ECFEB463A66330
:100D900006B070BD0020014044380240000002400F
:100DA00010640240B8010020F8B5044600200E4649
:100DB000009094F83C10012907D0012184F83C10E0
:100DC00021688B68DB0702D011E00220F8BD8B6838
:100DD00043F001038B604049404B0968B1FBF3F1DC
:100DE00001EB410100E0491E00910029FBD121687F
:100DF0008B68DB0503D58B6823F480738B602168D7
:100E00008B68DB075DD0236C40F20165AB4343F494
:100E1000807323644968490505D5216C21F400518C
:100E200041F480512164216CC90404D5616C21F026
:100E30000601616400E0606484F83C00A16B29480D
:100E4000274DC863A16B28480864A16B2748C86474
:100E500021686FF0220008602068416841F08061DD
:100E600041602068816841F4807181602168134687
:100E700032464C31A06B00F0B7FC68681C49C006D4
:100E8000206806D0884224D1816811F0405F13D0D9
:100E90001FE08842F8D0174A904203D1D1F80423CA
:100EA000D206F1D0144A904213D1D1F8041301F0C4
:100EB0001F011029E8D30CE0816841F08041816076
:100EC00007E0206C40F010002064606C40F00100EE
:100ED00060640020F8BD00001400002040420F00B4
:100EE00000230140E70800086B09000855090008C5
:100EF00000200140002101400022014090F8202004
:100F0000012A07D0022A05D0416A41F480214162BA
:100F100001207047006842690A434261002070471F
:100F200010B590F82020012A07D0022A05D0416A86
:100F300041F480214162012010BD3B48D0F80022DD
:100F400042F00102C0F80022D0F8002222F47C52C4
:100F5000C0F80022D0F800224B6A42EA0322C0F80F
:100F600000220A7D02F01F0301229A40D0F81C32B1
:100F70009343C0F81C32CB69B3B9D0F80C32934319
:100F8000C0F80C328C894B6864F31F434C6900EB4A
:100F9000C404C4F840320C890B6864F31F434C69E5
:100FA00000EBC404C4F84432CB69012B16D1D0F84D
:100FB0000C321343C0F80C320C884B6864F31F43A7
:100FC0004C6900EBC404C4F840320C89CB6864F36C
:100FD0001F434C6900EBC404C4F844328B69002BF6
:100FE000D0F804320ED01343C0F804320B69002B42
:100FF000D0F8143208D01343C0F81432096A01291A
:1010000004D008E09343EFE79343F5E7D0F81C12D0
:101010001143C0F81C12D0F8001221F00101C0F8F1
:101020000012002010BD000000640040704770B541
:1010300090F82040012C05D0022C03D0416A41F4E5
:10104000802128E0046809B32469A40720D04FF464
:10105000D874056804EB01142D5915F0040595604A
:1010600005682D591AD0ED08556005682C5904F013
:101070000204D4604FF4DA74056804EB01142E59AD
:1010800006F00F06082E0CD308250DE0E468DCE717
:10109000416A41F400114162012070BD6D0D15607F
:1010A000E3E72D5905F00F05156105682D59C5F3C6
:1010B0000725956105682C59240C54614FF4DC72A6
:1010C000046802EB0112A4581C700468A458240A96
:1010D0005C700468A458240C9C700468A258120E1A
:1010E000DA704FF4DE72046802EB0112A4581C712E
:1010F0000468A458240A5C710468A458240C9C71E8
:101100000468A258120EDA71006829B1016941F031
:1011100020010161002070BDC16841F02001C16063
:10112000F8E72DE9F05F0546006800244669D0F82D
:1011300004908768D0F80CB0D0F810A0D0F81880D0
:10114000F10748D0F90714D001218160B80703D511
:10115000284600F008FA0CE0780702D54FF4006446
:1011600007E0380702D54FF4805402E0284600F02B
:10117000F9F9F80516D529684FF480708860B8052C
:1011800003D5284600F0F1F90CE0780502D544F4C7
:10119000005407E0380502D544F4804402E02846B4
:1011A00000F0E2F9F80316D529684FF48030886022
:1011B000B80303D5284600F0DAF90CE0780302D52D
:1011C00044F4004407E0380302D544F4803402E0DC
:1011D000284600F0CBF9300707D55FEACB6004D58D
:1011E0002968102044F40074C86070074FF00807A5
:1011F00007D55FEA0B7004D52868C760284600F061
:1012000059F9B00706D52868C068800702D028467B
:1012100000F052F9700607D55FEACA6004D5296864
:10122000102044F480640861B00607D55FEA0A70B4
:1012300004D528680761284600F064F9F00606D551
:1012400028680069800702D0284600F05CF9B003E6
:1012500008D55FEAC96005D529681020486028468E
:1012600000F052F9F00307D55FEA097004D5286849
:101270004760284600F07CF9300446D55FEA4970A3
:1012800040D5F00504D55FEAC87001D044F00104F0
:10129000B00504D55FEA887001D544F002047005FA
:1012A00004D55FEA487001D544F00404300529D51F
:1012B00018F0700F26D008F07000402815D006DC1A
:1012C000102809D020280AD0302816D10AE050284A
:1012D0000ED0602811D10EE044F008040DE044F077
:1012E00010040AE044F0200407E044F0400404E065
:1012F00044F0800401E044F480742868816921F09E
:1013000070018161296804204860002C05D0686A5A
:10131000204368622846FFF789FEBDE8F09F70B55C
:10132000040003D094F8200010B104E0012070BD47
:10133000204600F081F82068016841F00101016059
:1013400000F0B0FB0546052604E000F0ABFB401BB7
:101350000A2811D820684068C007F6D020680168C4
:1013600021F00201016000F09DFB05460BE000F05A
:1013700099FB401B0A2806D9606A40F4003060627D
:1013800084F82060D2E7206840688007EFD4207E90
:101390000128206801683DD021F080010160607E55
:1013A00001282068016838D021F040010160A07E4A
:1013B00001282068016833D021F020010160E07E1F
:1013C0000128206801682ED041F010010160207FC3
:1013D00001282068016829D021F008010160607FA0
:1013E00001282068016824D021F004010160D4E9BB
:1013F00002010843D4E90412114308436168491EFD
:1014000008432168C86100206062012084F8200040
:10141000002070BD41F08001C0E741F04001C5E708
:1014200041F02001CAE721F01001CFE741F00801A7
:10143000D4E741F00401D9E710B586B00446142181
:101440006846FEF798FF18492068884229D1174856
:101450000021026842F000720260006800F0007033
:10146000059012481038026842F0010202600068DC
:1014700000F0010005904FF4C05000900220CDE92B
:10148000010103200390092004906946084800F0F8
:1014900007FA00220521142000F034FE142000F089
:1014A00023FE06B010BD000000640040403802403A
:1014B000000002407047000000B589B007AB6A46E3
:1014C0000021FFF7B4FD002816D19DED070ADFEDDE
:1014D0000B0A0B48B8EEC00A80EE201AF2EE040A9E
:1014E00080ED001ABDF9201000EE101AB8EEC00A07
:1014F00080EE201A80ED011A09B000BD00007A4488
:101500001C000020704770477047000070B504460B
:1015100090F82000012804D0606A40F40020606246
:1015200018E0022084F820002068016821F0010101
:10153000016000F0B7FA05460EE000BF00F0B2FA15
:10154000401B0A2808D9606A40F400306062052018
:1015500084F82000012070BD20684068C007EDD1EC
:10156000606270BD70477047704770477047704742
:10157000704700002DE9F84304464FF00009CDF80C
:10158000009063484FF41651A56D0068B0FBF1F769
:101590002E6894F85C10082000FA01F131420FD057
:1015A00021680A6852070BD50A6822F004020A6013
:1015B00094F85C108840A860606D40F001006065A0
:1015C00094F85C104FF0010808FA01F0304208D09E
:1015D00021684969090604D5A860606D40F00200E1
:1015E000606594F85C1004208840304208D021687F
:1015F0000968890704D5A860606D40F00400606543
:1016000094F85C1010208840304218D02168096896
:10161000090714D5A86020680168490304D500684B
:10162000000308D5A16C07E00168C90503D401686F
:1016300021F008010160216C09B12046884794F827
:101640005C1020208840304231D021680968C906EA
:101650002DD5A86094F8350005282068016806D0CB
:10166000490347D5006800031DD4616C1CE021F0DC
:10167000160101602068416921F080014161206C00
:1016800008B9A06C20B12068016821F00801016050
:1016900094F85C103F208840A86084F8358084F876
:1016A0003490216D1FE0E16B09B120468847606DE1
:1016B00000282BD0606DC00714D0052084F83500B9
:1016C0002068016821F0010101600098401C009031
:1016D000B84203D820680068C007F6D184F8358086
:1016E00084F83490E16C002910D001B02046BDE8A8
:1016F000F04308470168C905D5D4016821F01001FD
:10170000016084F8358084F83490CCE7BDE8F88334
:10171000140000202DE9F041044600F0C3F906460C
:101720005CB1022084F83500002584F8345020682C
:10173000016821F0010101600DE00120BDE8F081A8
:1017400000F0B0F9801B052805D920206065032032
:1017500084F83500F2E720680068C007F0D12268FD
:10176000116820480140D4E901031843D4E9033645
:101770003343184363691843A3691843E369184363
:10178000236A18430843616A042903D1D4E90B137F
:1017900019430843106020684069666A20F0070119
:1017A00030460E43012704280CD1A06A0643E06AA4
:1017B00040B12046FFF794F920B14020606584F8DD
:1017C0003570BAE7206846612046FFF775F994F84E
:1017D0005C203F2191408160656584F83570002070
:1017E000ACE700003F8010F02DE9F0410446866D23
:1017F00090F83400002501280DD0012084F8340031
:1018000094F835700020012F07D084F834000225A9
:101810002846BDE8F0810220FBE7022784F83570F6
:1018200060652046FFF786F994F85C103F208840F9
:10183000B0602068016841F016010160206C20B1A1
:101840002068016841F0080101602068016841F0EA
:1018500001010160DCE7000070B5044600F022F9E8
:101860000546601C02D004480078044400F01AF9D0
:10187000401BA042FAD370BD08000020082801D107
:1018800001F048BB70470000044910B50A680242E5
:1018900002D00860FFF7F2FF10BD0000143C0140C9
:1018A0002DE9F84FDFF8BCA10022012503264FF0F7
:1018B0000F090AF1040BAAF1040E00BF0B6805FA28
:1018C00002F42340A34270D10F7907F00307012FE0
:1018D00001D0022F16D187684FEA420806FA08FCA9
:1018E00027EA0C07D1F80CC00CFA08FC4CEA070CEC
:1018F000C0F808C04768A7430C79C4F300149440AB
:101900003C4344600C79E443A4070AD0C4684FEA1E
:10191000420C06FA0CF7BC438F6807FA0CF7274312
:10192000C7600C7904F00304022C12D1D40800EB38
:10193000840CDCF820405707FF0E09FA07F824EA68
:101940000804D1F8108008FA07F848EA0408CCF82F
:10195000208004684FEA420C06FA0CF7BC430F796A
:1019600007F0030707FA0CF7274307604C6814F4E5
:10197000403F70D03C4C276847F48047276024687C
:1019800022F0030704F480440094384C07EB040C65
:10199000DCF8084897074FEA177809FA08F7BC43BC
:1019A000334FB84202D1002724E054E0314FB8420F
:1019B00001D101271EE0304FB84201D1022719E0C2
:1019C0002E4FB84201D1032714E02D4FB84201D168
:1019D00004270FE02B4FB84201D105270AE02A4F18
:1019E000B84201D1062705E0284FB84201D10727A8
:1019F00000E0082707FA08F72743CCF80878DAF858
:101A000000405746D1F804C09C435FEACC2C00D577
:101A10001C433C60DBF800405F46D1F804C09C43A7
:101A20005FEA8C2C00D51C433C60DEF80040774612
:101A3000D1F804C09C435FEA8C3C00D51C433C6059
:101A4000084F083F3C68D1F804C09C435FEACC3C97
:101A500000D51C433C60521C102AFFF42FAFBDE898
:101A6000F88F0000083C014044380240003001403B
:101A7000000002400004024000080240000C024046
:101A8000001002400014024000180240001C0240F6
:101A90000069084000D0012070470AB18161704799
:101AA0000904FBE701488068704700000800002037
:101AB00070B5040025D094F83D00002520B984F8C5
:101AC0003C50204600F052FA242084F83D00206863
:101AD000016821F0010101602068016841F40041C2
:101AE00001602068016821F40041016000F0F6FB0C
:101AF0004D4A6168914201D84C4900E04C49884206
:101B000001D2012070BD4B492368B0FBF1F15E6842
:101B100026F03F060E435E606368934206D94FF499
:101B2000967359434FF47A73B1FBF3F12368491C60
:101B30001E6A26F03F06314319626168914210D84F
:101B40004900401EB0FBF1F2521CC2F30B02042A02
:101B500001D2042022E0B0FBF1F0401CC0F30B00E6
:101B60001CE0A268F2B301EBC10303EB0116431EB4
:101B7000B3FBF6F35B1C43F480431B0549D092B3DF
:101B800001EBC10202EB0111401EB0FBF1F0401C61
:101B9000C0F30B0040F4804040F400402168CA6963
:101BA0004CF6FF739A431043C861D4E90710014310
:101BB0002068026822F0C00211430160D4E90301E9
:101BC00001432068826848F2FF339A4311438160E1
:101BD000D4E9050108432168CA6822F0FF021043D6
:101BE000C86001E00EE016E02068016841F00101E4
:101BF00001602564202084F83D00256384F83E5070
:101C0000002070BD01EB4106431EB3FBF6F35B1CE5
:101C1000B3E70120C2E701EB4101401EB0FBF1F048
:101C2000401CC0F30B00B7E7A086010080841E00B3
:101C300000093D0040420F002DE9FF4F83B09A4656
:101C4000DDE9118793460446DDF84090FFF72AFF4F
:101C5000054694F83D00202870D1192301227449CB
:101C60002046009501F026F80028F5D194F83C00B4
:101C7000012863D0012084F83C0020680168C9076E
:101C800003D1016841F0010101602068016821F47D
:101C900000610160222084F83D00402084F83E006D
:101CA00000262664C4F82490A4F82A80608D20853C
:101CB0006048E062CDE9007553465A4620460499D3
:101CC00000F0FAFE002879D1208DD0B1012821D072
:101CD0000228206824D0416980690090208D032863
:101CE00066D801282BD0544902283B464FF0000209
:101CF000009557D08846204600F0DCFF00285DD1D3
:101D00003AE02068416981690091016841F40071FD
:101D100001607DE02068016821F480610160F0E7E6
:101D2000016821F4806101602068016841F400616C
:101D30000160206841698069009069E075E02A4689
:101D40003946204601F05CF888BB54E02068016801
:101D500041F40071016020680069616A0870606A7E
:101D6000401C6062218D491E2185618D491E61855F
:101D700021680969017042E02068016821F48061EE
:101D8000016020680069616A0870606A401C6062D6
:101D9000208D401E2085608D401E60853B460022C0
:101DA00041460095204600F085FF00B9CEE705E0EA
:101DB0002A463946204601F023F818B1012007B021
:101DC000BDE8F08F20680069616A0870606A401C95
:101DD0006062208D401E81B22185608D401E60852D
:101DE00020684269D243520712D4032903D1016803
:101DF00021F48061016020680069616A0870606A8E
:101E0000401C6062208D401E2085608D401E6085D4
:101E1000208D00287FF462AF202084F83D0084F8F4
:101E20003E6084F83C600020C9E70220C7E700005C
:101E3000020010000000FFFF040001002DE9FF4F29
:101E400083B09A46DDE9119793460446DDF8408059
:101E5000FFF728FE054694F83D0020287FD119237E
:101E6000012240492046009500F024FF002876D149
:101E700094F83C00012872D0012084F83C002068CE
:101E80000168C90703D1016841F0010101602068C0
:101E9000016821F400610160212084F83D004020A8
:101EA00084F83E0000262664C4F82480A4F82A9012
:101EB000608D20852C48E062CDE9007553465A4676
:101EC0002046049900F076FE70B930E02A46394683
:101ED000204600F0CDFF58B1206C042804D12068C2
:101EE000016841F400710160012007B0BDE8F08F86
:101EF000606A216800780861606A401C6062218D18
:101F0000491E89B22185628D521E628522685369FD
:101F1000DB435B070BD469B100781061606A401C39
:101F20006062208D401E2085608D401E6085208D62
:101F30000028CBD12A463946204600F08FFE0028E3
:101F4000CAD154F83D0B016841F4007101602020B2
:101F500004F81E09E67766770020C6E7FFE702204F
:101F6000C3E70000020010000000FFFF10B586B0BC
:101F7000044614216846FEF7FEF91349206888429A
:101F800020D112480021026842F00202026000687B
:101F900000F002000590C02000901220CDE9010160
:101FA000032003900420049069460948FFF778FC59
:101FB00006481030016841F400110160006800F427
:101FC0000010059006B010BD0054004030380240AB
:101FD0000004024002488168027811448160704721
:101FE000080000200B4810B5016841F40071016041
:101FF000016841F480610160016841F48071016011
:10200000032000F09FF80F2000F006F800F050F8D1
:10201000002010BD003C024030B505461F4887B087
:102020000024016841F004010160006806A900F085
:102030000400009001A800F031F90498A8B100F064
:102040004DF940001649174AB0FBF1F11648491EF8
:10205000026040F2E732C0E90324C0E90114846160
:1020600000F044FB040003D015E000F037F9E9E785
:102070000D4800F069FB04000DD11E2000F034F87B
:10208000102D07D2002229461E2000F03BF80748F9
:10209000056000E0012407B0204630BD4038024012
:1020A00040420F0000080040DC0200200C0000202D
:1020B0000C4882B0016841F480410160006800F47E
:1020C000804000900748001F016841F08051016086
:1020D0000068002200F0805000900F21901E02B096
:1020E00000F010B844380240002809DB00F01F025D
:1020F000012191404009800000F1E020C0F800116A
:1021000070470000F0B40E4B1B680C46C3F302236B
:10211000C3F10705042D00D90425191D072901D293
:10212000002300E0DB1E012606FA05F1491E2140CE
:1021300099409E40761E16403143F0BC01F0FABC37
:102140000CED00E0064900F0070208684FF6FF03B7
:10215000184040EA0220034A10430860704700001C
:102160000CED00E00000FA052DE9F0470E460500F1
:1021700065D0DFF81481D8F80000F7B200F007004E
:10218000B04207D288F80070D8F8000000F00700CD
:10219000B04254D128683D4C810712D5400703D581
:1021A000206840F4E05020602878000703D52068BC
:1021B00040F4604020602068A96820F0F0000843E7
:1021C00020602878C0072DD0304968680839012878
:1021D00012D0022813D0032811D0096889070029DA
:1021E0002DDA216821F0030101432160FFF75AFC39
:1021F000814641F2883A0EE009688903EFE70968F1
:102200008901ECE7FFF74EFCA0EB0901514502D92B
:102210000320BDE8F0872068696800F00C00B0EB8F
:10222000810FEFD1D8F80010404601F00701B1420C
:1022300007D90770006800F00700B04201D0012004
:10224000E7E72878400705D52068E96820F4E050E2
:10225000084320602878000706D52068296920F403
:10226000604040EAC100206000F058F82168084A48
:10227000C1F30311515CC840064908600648006874
:10228000FFF7CAFE0020C4E7003C024008380240C5
:1022900020790008140000200C0000200F220260AA
:1022A0000C4A136803F003034360136803F0F00360
:1022B0008360136803F4E053C36012684FF4E05383
:1022C00003EAD20202610448006800F007000860D7
:1022D0007047000008380240003C024004480549AD
:1022E00000680968044AC1F38221515CC840704704
:1022F00014000020083802403079000804480549DD
:1023000000680968044AC1F34231515CC840704713
:10231000140000200838024030790008154810B534
:10232000006810F00C02144813D04110042A0FD09A
:10233000082A0ED10F4C241F2268236802F03F02A6
:102340005B0207D52068C0F38810A0FB010106E0FE
:10235000084610BD2168C1F38811A1FB00010023CC
:10236000FDF78EFF2168C1F30141491C4900B0FB14
:10237000F1F010BD083802400024F4002DE9F84FB8
:1023800004006ED02078DFF84C93C007A9F1040553
:102390004AD009F104000168C1F38101012908D084
:1023A0000068C0F3810002280AD1D9F80000400279
:1023B00006D52868800337D560680028E1D033E06F
:1023C0006068B0F5803F10D0B0F5A02F286810D01D
:1023D00020F480302860286820F48020286060681D
:1023E000A8B1FFF75FFB06460DE0286840F4803097
:1023F000F4E740F480202860F7E700BFFFF752FBC6
:10240000801B642873D828688003F7D50CE0FFF799
:1024100049FB064605E000BFFFF744FB801B64282C
:10242000F0D828688003F7D42078DFF8AC828007E2
:102430004FF0000A3ED5A748001D016811F00C0FAF
:1024400008D00068C0F3810002280BD1D9F8000041
:10245000400207D42868800716D5E068012800D11B
:1024600012E033E1E068B8B10120C8F80000FFF7DE
:1024700019FB064605E000BFFFF714FB801B02288E
:10248000C0D828688007F7D52868216920F0F800AF
:1024900040EAC10028600DE0C8F800A0FFF702FB89
:1024A000064604E0FFF7FEFA801B02281FD82868C2
:1024B0008007F7D42078000722D5864F87486169C6
:1024C000703771B101210160FFF7ECFA064604E0B4
:1024D000FFF7E8FA801B022809D838688007F7D58B
:1024E0000EE0C0F800A0FFF7DDFA064605E082E046
:1024F000FFF7D8FA801B02287DD838688007F7D408
:102500002078400768D5DFF8CCB100270BF13C0BF1
:10251000DBF80000C0000BD4DBF8001041F0805164
:10252000CBF80010DBF80000012700F0805000908D
:102530006B4E3068C00510D4306840F48070306055
:10254000FFF7B0FA009005E0FFF7ACFA0099401AE7
:10255000022850D83068C005F6D55E4EA0686C36AB
:1025600001280FD00528306810D020F0010030601D
:10257000306820F004003060A068B8B1FFF792FA2C
:1025800000900FE0306840F00100F4E740F00400F4
:102590003060F7E7FFF786FA0099411A41F2883078
:1025A000814266D830688007F4D50EE0FFF77AFAEA
:1025B000009007E0FFF776FA0099411A41F288305F
:1025C000814256D830688007F4D42FB1DBF8001070
:1025D00021F08051CBF80010A069C8B33D49091D16
:1025E0000968C1F3810102294AD00228504607D068
:1025F000C8F8600000E03CE0FFF754FA04463BE016
:102600004746C8F86000FFF74DFA064605E000BFF0
:10261000FFF748FA801B02282BD828688001F7D4DE
:10262000D4E907010843A16A2E4A490802EB014197
:10263000626A41EA8211084394F82C1040EA016171
:10264000C9F8001001203866FFF72CFA044606E0AE
:102650003EE000BFFFF726FA001B022809D82868D1
:102660008001F7D534E000BFFFF71CFA001B0228F9
:1026700002D90320BDE8F88F28688001F4D427E050
:102680000128F7D0D9F80000E26900F480019142F6
:102690001CD1226A00F03F01914217D147F6C07168
:1026A000626A0140B1EB821F10D1A26A4FF0FF3382
:1026B00000F4403103EB5202B1EB024F06D194F823
:1026C0002C1000F07060B0EB016F01D00120D1E759
:1026D0000020CFE70438024000004742800E474206
:1026E000007000400000FFFF7047704710B5040005
:1026F00003D094F83D0010B107E0012010BD002088
:1027000084F83C00204600F01EF8022084F83D00CA
:10271000211D206801F050F8012084F8460084F85B
:102720003E0084F83F0084F8400084F8410084F8BB
:10273000420084F8430084F8440084F8450084F89B
:102740003D00002010BD704790F83D10012901D0D8
:1027500001207047022180F83D100168CA6842F0EC
:102760000102CA6000681149884214D0B0F1804F5C
:1027700011D00F4988420ED00E4988420BD00E4925
:10278000884208D00D49884205D00D49884202D0C0
:102790000C49884204D1816801F00701062903D061
:1027A000016841F001010160002070470000014014
:1027B0000004004000080040000C004000040140FC
:1027C000004001400018004070472DE9F0410446E8
:1027D0000068C66805694FF00007A90713D5B1075F
:1027E00011D5F91E016101202077206880698007DA
:1027F000204602D0FFF7E8FF04E000F07EF8204614
:1028000000F07CF82777680716D5700714D5216883
:102810006FF004000861022020772068806910F4BE
:10282000407F204602D0FFF7CFFF04E000F065F8BC
:10283000204600F063F82777280715D5300713D511
:1028400021686FF008000861042020772068C069C3
:102850008007204602D0FFF7B7FF04E000F04DF8F4
:10286000204600F04BF82777E80616D5F00614D579
:1028700021686FF010000861082020772068C06987
:1028800010F4407F204602D0FFF79EFF04E000F0E6
:1028900034F8204600F032F82777E80708D0F00730
:1028A00006D021686FF001000861204600F028F88A
:1028B000280608D5300606D521686FF0800008612B
:1028C0002046FFF711FF680608D5700606D5216877
:1028D0006FF040000861204600F01CF8A8060AD5F9
:1028E000B00608D521686FF0200008612046BDE8D9
:1028F000F041FFF7FABEBDE8F08170477047000075
:1029000000680349884201D1FFF764BB70470000AB
:1029100000080040704770B5040004D094F84100EE
:10292000002510B106E0012070BD84F8405020461B
:1029300000F024F8242084F841002068C16821F4C4
:102940000051C160204600F0CBFF2068016921F4EE
:10295000904101612068416921F02A0141612068AC
:10296000C16841F40051C1606564202084F84100D1
:1029700084F842006563002070BD000010B586B089
:10298000044614216846FDF7F6FC14492068884285
:1029900021D113480021026842F010020260006851
:1029A00000F0100005900E481438026842F0010251
:1029B0000260006800F0010005904FF4C0600090D4
:1029C0000220CDE90101032003900720049069460D
:1029D0000448FEF765FF06B010BD0000001001407E
:1029E00044380240000002402DE9F843044690F8C4
:1029F0004100984616460D46202802D00220BDE828
:102A0000F88385B17EB100206064212084F8410004
:102A1000FFF748F8A6848146E684A0682027B0F531
:102A2000805F02D003E00120E9E7206910B12E4663
:102A300000250EE000260CE08021204600F0D6FFA5
:102A4000A8B9C6B116F8010B21684860E08C401E99
:102A5000E084E08C4B464FF00002CDF80080002867
:102A6000EAD14FF04001204600F0C0FF40B184F8A9
:102A700041700320C3E735F8020BC0F30800E3E719
:102A800084F841700020BAE7FEE701684A69D24342
:102A900052050FD46FF480624A61002140F8301F64
:102AA000202242738173026942F0040202610173C1
:102AB00001207047002070472DE9F84F0446006858
:102AC00089460B9D01689846174641F48061016074
:102AD0002068016841F48071016000954FF0011B8E
:102AE0000022594620460A9B00F0E4F84FF4007A91
:102AF00040B120680068C00501D5C4F840A003209B
:102B0000BDE8F88F216809F0FE0008612B462849CE
:102B100020460A9A00F016F9F0BB206841698069E6
:102B200000902A4620460A9900F0A2F940B1206C94
:102B300004283AD12068016841F40071016034E052
:102B4000FEB2B8F1010F09D02168380A08612A469F
:102B500020460A9900F08CF90028E8D12068066127
:102B60002A4620460A9900F083F90028DFD1206820
:102B7000016841F4807101600095002259462046A9
:102B80000A9B00F097F80028B3D1216809F0FF00F4
:102B900040F00100086100E007E02B4604492046B0
:102BA0000A9A00F0CFF80028AAD00120A8E7000078
:102BB000020001002DE9F843044600680D46DDE9F6
:102BC000089701689846164641F4807101604B46AB
:102BD00000224FF001112046009700F06BF848B139
:102BE00020680068C00502D54FF4007020640320FF
:102BF000BDE8F883216805F0FE0008613B464A46BF
:102C00001549204600F09EF888B92068416980691E
:102C100000903A464946204600F02AF948B1206C17
:102C2000042804D12068016841F40071016001208A
:102C3000DEE7F5B2B8F1010F09D02168300A08616A
:102C40003A464946204600F013F90028E7D12068AB
:102C500005610020CCE700000200010070B51646B7
:102C60000D4604461EE02046FFF70FFF08B1012085
:102C700070BD681C16D0FEF715FF801BA84200D857
:102C800085B920684069C04340070BD5002044F84F
:102C9000300F20216173A073216941F0200121616F
:102CA0002073E4E720684069C0434007DBD400207C
:102CB00070BD00002DE9F047984617460D460446C2
:102CC000C1F30746DDF820902AE000BFB8F1FF3FCE
:102CD00026D0FEF7E7FEA0EB0901414502D8B8F186
:102CE000000F1DD12068012E16D0806925EA000052
:102CF0000004000C12D00020B84211D1002044F88A
:102D0000300F20216173A073216941F020012161FE
:102D100020730120BDE8F0874069E7E70120EBE779
:102D20002068012E0AD0806925EA00000004000C0A
:102D300006D00020B842C9D00020EBE74069F3E795
:102D40000120F7E72DE9F047984616460D46044660
:102D50004FF000094FF0200AC1F3074723E0206835
:102D60004069C043400515D42068016841F40071F2
:102D7000016021686FF480604861C4F8309084F885
:102D80003DA084F83E90216C41F00401216484F858
:102D90003C9021E0701C06D0FEF784FEA0EB0800FA
:102DA000B04203D816B1012F1FD021E02068012FB7
:102DB00015D0806925EA00000004000C18D000BF7F
:102DC00044F8309F84F80DA084F80E90216941F0FA
:102DD0002001216184F80C900120BDE8F087406952
:102DE00025EA00000004000CEAD12068406901E0F7
:102DF0002068806925EA00000004000CAFD1ECE7F0
:102E00002DE9F041002590460E460446202728E093
:102E10004069C043C0060CD454F8301B6FF010005A
:102E2000486144F810596777A577206A20622577B2
:102E300014E0FEF737FEA0EB0800B04200D886B9D8
:102E400020684069C04340060BD544F8305F677383
:102E5000A573206940F02000206125730120BDE8A2
:102E6000F08120684169C9434906D1D40020F6E7C2
:102E700070B516460D4604461EE02046FFF705FED7
:102E800008B1012070BD681C16D0FEF70BFE801B38
:102E9000A84200D885B920684069C04300060BD518
:102EA000002044F8300F20216173A073216941F0A4
:102EB000200121612073E4E720684069C0430006D7
:102EC000DBD4002070BD0000642202490248FDF7F7
:102ED0006BBF0000240300207001002030B50021EA
:102EE0000B4C0B460A4600BF54F82150491CC9B28E
:102EF0002B4454F82150491CC9B22A446429F3D305
:102F00003224B3FBF4F1B2FBF4F2C0E9001230BD9D
:102F10002403002010B508210548FEF7B9FD054936
:102F2000012802D00120087010BD0020FBE700003E
:102F300000000240180000201FB5084D4FF0FF347C
:102F400002A8FFF7CBFFDDE90201CDE90001012373
:102F500022466946286804F0D9F8F1E7000000200D
:102F600010B580216B2000F09BF86420FEF774FC04
:102F700000216B2000F094F8032000F05CF80020A2
:102F800000F054F8322000F073F80021382000F0EF
:102F900087F800216A2000F083F80021232000F048
:102FA0007FF88021372000F07BF8752000F012F8C0
:102FB000682801D0012010BD01216B2000F070F8BD
:102FC00000216C2000F06CF8322000F051F8002055
:102FD00010BD00001FB54FF4FA73012203A98DE85C
:102FE0000E00134602460648D1210068FEF724FE73
:102FF0000A20FEF731FC9DF80C0004B010BD000063
:103000005C0000200EB54FF4FA70CDE9003202905A
:1030100005480A460123D1210068FEF70DFE012074
:10302000FEF71AFC00200EBD5C000020C006010E59
:103030001C2000F035B8C006010E1B2000F030B88F
:10304000BC2801D3012110E0622801D302210CE049
:103050002A2801D3032108E0142801D3042104E025
:103060000A2801D3052100E006211A2000F018B833
:1030700010B504464FF47A70844201D9044602E048
:10308000042C00D20424B0FBF4F0401EC1B219207D
:1030900000F006F86008BDE81040FFF7D1BF00005F
:1030A0001FB54FF4FA738DF80C10012203A98DE8B7
:1030B0000E00134602460548D0210068FEF7BEFE0A
:1030C0000A20FEF7C9FB04B0002010BD5C00002000
:1030D0000EB54FF4FA70CDE90032029005480A4669
:1030E0000123D0210068FEF7A9FE0120FEF7B4FB02
:1030F00000200EBD5C0000207FB500251A48009519
:103100000195029517490395016001244FF4803120
:103110000461C0E90115047680F820501349C0E924
:103120000A150226C661C56080F830404461FDF78B
:10313000C4FD08B1FDF716FD009469460A48CDE9C3
:103140000145FDF711FD08B1FDF70CFD009669463C
:1031500005480196FDF708FD002801D0FDF702FDA6
:103160007FBD000000200140700100200100000F21
:103170000F4810B50D4901600621416000214FF450
:1031800000328160C0E9031212014261017641768A
:103190008176C17601774177FEF7C1F8002803D028
:1031A000BDE81040FDF7DEBC10BD0000006400402B
:1031B00018020020094808B5016841F48001016047
:1031C0000068002200F48000009005213820FEF7FE
:1031D00099FFBDE808403820FEF786BF303802402E
:1031E0001CB500F033F9FFF76FFE00F0D0F8FFF7E1
:1031F000B7FE02F0ABF80DA000F08CFC0022082115
:103200001E2003F0EBFE104C104A002120601048F5
:1032100002F0C8FE002160601820CDE900010B46D5
:1032200080220CA10F4804F057F91CBD4576657249
:10323000797468696E6720697320496E6974656482
:10324000A3A10D0A0000000000000020F47800088F
:103250007B3A00084A6F79737469636B5461736BCE
:1032600000000000392F000870B586B014216846B0
:10327000FDF781F824480024016841F080010160D5
:10328000016801F080010591016841F001010160D0
:10329000016801F001010591016841F0020101603E
:1032A00000681A4E00F002004FF48075059000226D
:1032B00029463046FEF7F1FB082000904FF44410F9
:1032C00001900220029069463046FEF7E9FA009527
:1032D0000125CDE90154694630460394FEF7E0FA32
:1032E000202000904FF48810CDE901056946084878
:1032F000FEF7D6FA002205210920FEF703FF092078
:10330000FEF7F2FE06B070BD303802400000024009
:10331000000402400D4810B50B4901600C494160A2
:1033200000214FF480428160C0E903124161816154
:10333000C1610162FEF7BCFB002803D0BDE810406C
:10334000FDF710BC10BD00000054004040020020FA
:10335000A08601000C4810B50A4901604FF4E13124
:103360004160002181600C22C160C0E904128161CA
:10337000C161FFF7D0FA002803D0BDE81040FDF787
:10338000F1BB10BD0010014094020020FEE700F0E8
:1033900001B8000000B58BB000200121CDE9060185
:1033A0000891009001900290039005900490694666
:1033B0000548FDF7B5FD0448FEF7A8F802210248CC
:1033C000FDF79CFD0BB000BD18020020FEE70020B9
:1033D00000F020B82DE9F0479846174682460026AF
:1033E0000C46DDF8209010E02146504600F088F8A9
:1033F000554606E019F80600761C00F079FB6D1CB6
:10340000EDB2BD42F6D3641CE4B24445ECD3BDE852
:10341000F087000070B506465FF0000404F1B000CC
:10342000C0B200F053FB022000F050FB102000F06F
:103430004DFB0025304600F05BFB6D1CEDB2802D8E
:10344000F8D3641CE4B2082CE8D370BD10B5642036
:10345000FEF702FAAE2000F039FB202000F036FB28
:10346000102000F033FBB02000F030FBC82000F04B
:103470002DFB022000F02AFB102000F027FB40204B
:1034800000F024FB812000F021FBFF2000F01EFB58
:10349000A12000F01BFBA62000F018FBA82000F0E4
:1034A00015FB3F2000F012FBA42000F00FFBD320FF
:1034B00000F00CFB002000F009FBD52000F006FB1B
:1034C000F02000F003FBD92000F000FB222000F0E8
:1034D000FDFADA2000F0FAFA122000F0F7FADB2009
:1034E00000F0F4FA202000F0F1FA8D2000F0EEFA5E
:1034F000142000F0EBFABDE81040AF2000F0E6BA6F
:1035000010B50446B031C8B200F0E0FA102040EA2D
:10351000141000F0DBFA04F00F00BDE8104040F09A
:10352000010000F0D3BA00002DE9F04700259146D4
:103530008A460446012B22D0DFF8BC80022B24D11E
:1035400055E02038C7B27E2C04D90AF101000024CE
:1035500000F0FF0A51462046FFF7D2FF07EB470075
:10356000002608EB4007B85D00F0C2FA761CF6B200
:10357000062EF8D3A41D6D1CE4B2EDB201E0DFF815
:103580007C8019F805000028DBD1BDE8F0872038E1
:10359000C7B2782C04D90AF10100002400F0FF0A18
:1035A00051462046FFF7ACFF5FF0000606EB07111F
:1035B00018F8010000F09CFA761CF6B2082EF5D33C
:1035C0000AF10100C1B22046FFF79AFF5FF0000642
:1035D00006EB071101EB0800007A00F089FA761C6F
:1035E000F6B2082EF4D308346D1CE4B2EDB219F82B
:1035F00005000028CBD1C8E7807C0008587A000875
:103600001CB501F0D9FB0446684601F0CDFB9DF8DE
:103610000000022811D00B48082C11D0641CE4B221
:1036200010F834100229F7D0204603F091F900F089
:1036300079FF03F0E9F900201CBD4FF0FF301CBDFD
:103640000024EDE7189900081CB501F0B5FB04460D
:10365000684601F0A9FB9DF80000022811D00B4834
:1036600094B1641E5FFA84F410F834100229F7D084
:10367000204603F06DF900F055FF03F0C5F9002076
:103680001CBD4FF0FF301CBD0824EDE71899000861
:1036900006482721C170572101710021417106217F
:1036A00081714170022101707047000060000020AC
:1036B0001CB5684601F078FB9DF80000012802D097
:1036C0004FF0FF301CBD9DF801109DF80200491E0F
:1036D000884201D1002001E0401CC0B203F046F94D
:1036E00000F028FF03F0A6F900201CBD10B54FF034
:1036F000E020006903F048FF012803D0BDE8104036
:1037000003F056BC10BD000030B593B030216846C0
:10371000FCF731FE14210CA8FCF72DFE1D480025F6
:10372000016841F080510160006800F08050119004
:103730001948016841F4804101600068022400F4E6
:103740008040119001200090000401908001CDE99B
:10375000064008AA0420A82182E813000B906846BE
:10376000FEF70CFE08B172B6FEE70CA90F2081E847
:1037700031004FF4A0500F904FF48050109005216D
:103780000CA8FEF7F1FC002801D072B6FEE713B0DA
:1037900030BD00004038024000700040024801681F
:1037A00041F470010160704788ED00E00148FFF7C7
:1037B0000CB80000DC020020F0B50268294C2A4D4C
:1037C0002A4E2B4F2B4B4FF0804CA04209D0604526
:1037D00007D0A84205D0B04203D0B84201D09842E9
:1037E00004D122F0700E4A6842EA0E02A0421BD0B9
:1037F000604519D0A84217D0B04215D0B84213D0B6
:10380000984211D01C4DA8420ED01C4DA8420BD09E
:103810001B4DA84208D01B4DA84205D01A4DA84206
:1038200002D01A4DA84203D122F44075CA682A4337
:103830004D6922F080022A4302608A68C2620A68E7
:103840008262A04201D0984201D10969016301213D
:1038500041610169C90703D0016921F001010161DA
:10386000F0BD0000000001400004004000080040DE
:10387000000C0040000401400040014000440140B1
:103880000048014000180040001C0040002000409B
:1038900001680C3151E8002F22F4907241E80023B6
:1038A000002BF5D10168143151E8002F22F00102FC
:1038B00041E80023002BF5D1016B012909D10168F2
:1038C0000C3151E8002F22F0100241E80023002BB8
:1038D000F5D1202180F842100021016370470000DB
:1038E00070B5044600680169E26821F44051114353
:1038F00001612169A068E2690843616911430843D5
:103900002168CA6849F20C639A430243CA6020687E
:103910004169A26921F44071114341613149206834
:10392000884202D03049884202D1FEF7E7FC01E02C
:10393000FEF7D4FCE2690023192164253226B2F592
:10394000004F626828D0A0FB0101930F9200FCF7A2
:1039500097FC0146B0FBF5F06FF01802504301EB05
:10396000800006EB0010B0FBF5F000F0F002B1FBB8
:10397000F5F002EB0012B1FBF5F06FF018035843BD
:1039800001EB800006EB0010B0FBF5F000F00F003B
:1039900021681044886070BDA0FB010192185B4152
:1039A000FCF76EFC0146B0FBF5F00201B1FBF5F04F
:1039B0006FF01803584301EB800006EBC000B0FB2A
:1039C000F5F000F0F80002EB4002B1FBF5F05843CF
:1039D00001EB800006EBC000B0FBF5F000F0070043
:1039E000D6E7000000100140001401402DE9F84323
:1039F000984617460D460446089E24E0701C22D0C7
:103A0000FEF750F8A0EB0800B0421AD8CEB12068FB
:103A1000C168490717D5802D15D0402D13D00168F6
:103A2000C94309070FD4016800254068009020466B
:103A3000FFF72EFF0820606484F840500120BDE8A5
:103A4000F8830320FBE72068006835EA000004D013
:103A50000020B842D2D00020F1E70120F9E710B5EC
:103A6000FFF7F4FCFFF7B3FCFFF712FE002002F0B3
:103A70006FFFBDE8104002F0C7BF1CB5FFF7EFFFB6
:103A800040F6AC544FF4FA756846FFF727FADDE9C3
:103A90000006A04201D8A84205D2FFF709FE10B9DE
:103AA000284603F025F9A64202D9FFF7A9FD03E055
:103AB000AE4205D2FFF7C8FD10B9284603F018F949
:103AC000142003F015F9DFE7FEE7000001B584B02C
:103AD0000121642204A88DE807000B46002278210A
:103AE0000248FEF7ABF905B000BD0000400200201F
:103AF00001B584B00121642204A88DE807000B46BB
:103B0000402278210248FEF799F905B000BD000077
:103B1000400200200FB4054B10B503A9044A0298D7
:103B200000F0DAF810BC5DF814FB0000914D0008BD
:103B30006C0100200907090E002804DB00F1E020D9
:103B400080F80014704700F00F0000F1E02080F8CA
:103B5000141D704702E008C8121F08C1002AFAD1DC
:103B600070477047002001E001C1121F002AFBD1FD
:103B7000704700002DE9FF5FDDE90220010DDDF84F
:103B800038B0024318D044F61050A1F2FF3141433F
:103B90000D140F98012820D0A5EB0B00401C5FEA04
:103BA000000A4FF00004474EDFF81C91A046504633
:103BB00016D5CAF1000728E00F98012443A2012876
:103BC00008D0002100980F9BC0E90021C0E9024302
:103BD000BDE8FF9F6FEA0B01F4E7CBF10000DEE7E1
:103BE000074612E0F80707D02246334640464946CA
:103BF000FCF787FC80468946224633461046194624
:103C0000FCF77FFC04460E467F10002FEAD1DDE969
:103C10000201BAF1000F42464B4602DAFCF771FC92
:103C200001E0FCF7E0FC04460E460022284BFCF7BE
:103C300005FE03D84FF0FF30014607E00022254B78
:103C400020463146FCF7B6FBFCF7E0FD102409E006
:103C5000002C0ADB0A220023FCF712FB019B303206
:103C60001A55641E50EA0102F2D1641C019AC4F193
:103C7000110314440F9A012A03D0012208430DD1E5
:103C80000AE0084304D000204FF0110B0F9080E7AA
:103C9000A3EB0B056D1E0DE05B4504DD4FF000024C
:103CA00005F1010504E003DA4FF00002A5F101057A
:103CB000002AECD000980F99C0E90231C0E9004514
:103CC00086E70000000024400000F03F30000000C4
:103CD0000000F0430000E03F2DE9FF4F95B09B4608
:103CE0008946064600250FE2252877D1002427467D
:103CF000F84A0121059400E0044316F8013F203BF7
:103D000001FA03F01042F7D130782A2811D06FF071
:103D10002F033078A0F13002092A16D8059A44F012
:103D2000020402EB820203EB42021044761C05906F
:103D3000EFE759F8042B0592002A03DA504244F4C5
:103D40000054059044F00204761C30782E2816D1D9
:103D500016F8010F44F004042A280DD06FF02F024A
:103D60003078A0F13003092B09D807EB870302EB69
:103D70004303C718761CF3E759F8047B761C3078A8
:103D80006C280FD006DC4C2817D068280DD06A2884
:103D900014D104E0742810D07A280FD10DE044F437
:103DA00000140AE044F4801401E044F440147278F2
:103DB000824202D104F58014761C761C3078662885
:103DC0000BD013DC582877D009DC002875D04528A3
:103DD000F6D04628F4D047281AD19DE118E0632890
:103DE00035D0642879D0652812D195E1702873D038
:103DF00008DC6728F1D069286FD06E280DD06F28B5
:103E000006D1B5E073282CD0752875D0782874D0E9
:103E10005A46179990476D1C75E1C4F30250022869
:103E200009D003280DD0D9F8001004280DD00D605A
:103E300009F1040967E1D9F80010EA17C1E9005255
:103E4000F6E7D9F800100D80F2E70D70F0E719F8E9
:103E5000041B8DF8001000208DF80100EA460120B7
:103E600003E059F804AB4FF0FF3061074FF0000159
:103E700002D40DE008F101018846B9420FDA80450D
:103E8000F8DB1AF808100029F4D108E008F1010164
:103E900088468142FADB1AF808100029F6D1059805
:103EA0005B46A0EB080721463846179A00F094FAC3
:103EB000284400EB080507E04DE029E10DE01AF881
:103EC000010B5A4617999047B8F10108F7D25B46A3
:103ED00021463846179A13E142E00A220092C4F3C1
:103EE00002524FF0000A022A08D059F804CB032AE4
:103EF0004FEAEC710AD00DE029E02AE009F1070150
:103F000021F00702F2E802C1914609E00FFA8CFCA9
:103F10004FEAEC71042A03D14FFA8CFC4FEAEC71A2
:103F2000002907DA0A460021DCF1000C61EB0201EE
:103F30002D2202E0220504D52B228DF80420012237
:103F400003E0E20701D02022F7E7904659E00A217A
:103F500002E010220DE010214FF0000A00910BE06A
:103F600010224FF0000A44F004040827009203E0F6
:103F700008224FF0000A0092C4F30252022A05D030
:103F800059F804CB0021032A08D009E009F1070100
:103F900021F00702F2E802C1914605E01FFA8CFC0D
:103FA000042A01D10CF0FF0C4FF00008220728D59D
:103FB000702806D0009B83F0100353EA0A0305D053
:103FC0000EE040228DF80420012208E05CEA0102A4
:103FD00006D030228DF804208DF80500022290468C
:103FE000009B83F0080353EA0A030AD15CEA01024A
:103FF00001D1620705D530228DF804204FF0010869
:104000007F1E582804D034A003900EA802900DE023
:1040100036A0F9E753466046009AFCF731F984462A
:104020000398825C0298401E029002705CEA0100D4
:10403000F0D1029806A9081A00F1200A600702D5FB
:1040400024F4803400E00127574502DDA7EB0A0085
:1040500000E0002000EB0A01009005984144401A5E
:104060000590E00306D45B462146179A059800F0B8
:10407000B3F90544002706E001A85A46C05D179928
:1040800090476D1C7F1C4745F6DBE0030CD55B4673
:104090002146179A059800F09FF9054404E0302066
:1040A0005A46179990476D1C0099481E00900029A8
:1040B000F5DC08E0029802995A460078491C029102
:1040C000179990476D1CBAF10001AAF1010AF1DCC1
:1040D00065E10000092801003031323334353637CC
:1040E0003839616263646566000000003031323344
:1040F00034353637383941424344454600000000E4
:1041000000F058F90544761C307800287FF4ECADB7
:1041100019B02846BDE8F08F620700D4062709F1E0
:10412000070222F0070CFCE80223E14603F00048F6
:104130005FEA080C02D00FF2702C0DE05FEA045C1D
:1041400002D50FF2682C07E05FEAC47C02D00FF2C0
:10415000602C01E0AFF2700C4FF0FF3823F0004309
:10416000CDF850C065280CD006DC452809D046287B
:104170001DD047283DD13DE0662818D067287ED164
:1041800038E00021112F01DB112000E0781CCDE97F
:10419000000106A90EA8FFF7EDFCDDE90F010E9A5C
:1041A00003910021009207F1010A04914DE04FF0C4
:1041B00000400097CDE9011006A90EA8FFF7DAFC30
:1041C000DDE90F0203920E9B11990022DDF80CA08D
:1041D0000093049211B9791C00EB010AB7EB0A00B5
:1041E00004D4C0F1FF3007F1010A0490AAEB0700E4
:1041F000019044E0012F00DA01270021112F01DD99
:10420000112000E03846CDE9000106A90EA8FFF70D
:10421000B1FCDDE90F010E9A039100210491009297
:10422000BA4621070CD40399514500DA8A46BAF1FF
:10423000010F05DD009AAAF10101515C302908D077
:10424000B84202DA10F1040F06DA0121CDE90110BB
:1042500015E0AAF10101E9E7002805DC0499014411
:104260000491AAEB000102E0411C514500DD8A46A1
:104270000499401A401C01904FF000400290200722
:1042800004D40198504501DBCDF8048000208DF85E
:104290004F0002980DF14F07B0F1004F25D02B20B1
:1042A0000E9002984FF0020800280CDA404202906B
:1042B0002D200E9007E00A210298FCF703FA303116
:1042C000029007F8011DB8F10001A8F10108F2DC25
:1042D00002980028EFD1791E0E980870307800F00F
:1042E000200040F0450007F8020D12A8C01B00F1A5
:1042F00007081498007800B1012000EB0A0101982A
:1043000001EBE07105984144401A401E0590E0031E
:1043100006D45B462146179A059800F05DF80544DF
:104320001498007818B15A46179990476D1CE0030D
:1043300024D55B462146179A059800F04DF80544B0
:104340001CE00498002807DBDDE90301884203DD57
:104350000098405C179901E0179930205A46904721
:10436000049805F10105401C04900198401E01903D
:1043700004D12E205A46179990476D1CBAF10001BE
:10438000AAF1010ADDDC05E017F8010B5A4617997E
:1043900090476D1CB8F10001A8F10108F4DC5B4600
:1043A0002146179A0598ABE62D0000002B0000006F
:1043B000200000002DE9F041044600251E46174666
:1043C000880404D405E039462020B0476D1C641EE3
:1043D000F9D52846BDE8F0812DE9F04104460025D5
:1043E0001E469046C80301D5302700E020278804E8
:1043F00004D505E041463846B0476D1C641EF9D52A
:104400002846BDE8F0810000FEB506460D460024B2
:10441000684600F0D7FC00229FED1B1A6B46012175
:1044200056F8227055F82200381A00D5404200EEA6
:10443000100A03EB8200B8EEC00AD0ED000A20EEAD
:10444000010AF5EEC00AF1EE10FA0DD0C0EE201A06
:10445000B7EE000A0D4F31EEC00AB0EEC00A10EE02
:10446000100AB84207DC09E010EE100A084F384481
:10447000084FB84202D301FA02F00443521C032A47
:10448000CEDB2046FEBD000000008037295C0F3ED9
:10449000666666C19A99D90070B50024A01DC1B2A4
:1044A0000020FFF72DF800250020FFF721FB6D1CF1
:1044B000EDB2102DF8D3641CE4B2022CEED300242C
:1044C000A01DC1B27020FFF71BF800250020FFF7E8
:1044D0000FFB6D1CEDB2102DF8D3641CE4B2022C5E
:1044E000EED370BD10B5FFF7D7FFBDE8104000F068
:1044F00021B8000070B50A4E002470792044C1B282
:10450000F078FEF7FDFF00250020FFF7F1FA6D1CA3
:10451000EDB2302DF8D3641CE4B2062CEDD370BD9F
:104520006000002010B5FFF7E5FFBDE81040FFF781
:10453000D9BF000070B50B4E002470782044C1B282
:10454000F079FEF7DDFF002504E00020FFF7D0FA48
:104550006D1CEDB2307A8542F7D3641CE4B2022CB4
:10456000EBD370BD6000002008B560B120208DF84D
:10457000000028208DF8010030208DF8020038203E
:104580008DF8030004E0A32204216846FBF7ECFE4B
:104590006A46042140F69E2001F0ACFC01F06AF965
:1045A00008BD00003EB5044602208DF80000CA2078
:1045B0008DF80100E3208DF8020009208DF803003A
:1045C0006A460421682001F095FCA3208DF80000C4
:1045D000610609D5C0218DF80110C8218DF802109F
:1045E000C2218DF8031005E08DF801008DF802005E
:1045F0008DF8030014F4C07F09D0C4218DF8041095
:10460000CC218DF80510C6218DF8061005E08DF837
:1046100004008DF805008DF806008DF808008DF86F
:1046200007008DF809006A460A2140F6A72001F02C
:1046300061FCA0074FF0D80503D020208DF80000C2
:1046400001E08DF800506A46012140F6B62001F0E5
:1046500051FCA00601D5012000E0002000F08EF8FA
:1046600014F4C07F1ED0E0050AD5B2208DF80000FA
:104670008B208DF80100B6208DF802009B2009E008
:10468000B0208DF8000080208DF80100B4208DF856
:10469000020090208DF803006A46042140F6A22013
:1046A00001F028FCE1074FF40B6022D0F8218DF8CF
:1046B00000106A46012101F01DFCFA21072000F0DC
:1046C00097FA072000F062FA012000F07FFA6420D8
:1046D00000F03EFB4FF4FA7000F04AFBC821254879
:1046E00000F01CFA282000F031FA0A2000F03EFA0F
:1046F00005E08DF800506A46012101F0FBFBA007A0
:1047000003D5D9208DF8000001E08DF800506A46ED
:10471000012140F23D7001F0EDFB600701D5012061
:1047200000E0002000F048F8E00601D5012000E09C
:104730000020FFF719FF104D44F00800688101F0D8
:1047400099F80020A873600601D50620A87314F418
:10475000C07F02D0A87B801DA87314F0140F02D074
:10476000A87B1030A873A00702D0A87B001DA873F7
:1047700000203EBD09E3CA02B40400200EB54FF488
:10478000976310B106A107C901E008A207CA8DE826
:1047900007006A460921184601F0ACFB0EBD000077
:1047A000B8AAB38DB4980D355D000000B8AAAAAAC6
:1047B000B088C3C5C700000008B560B1C0208DF83F
:1047C0000000C2208DF80100C4208DF80200C62030
:1047D0008DF8030004E08B2204216846FBF7C4FD3A
:1047E0006A46042140F6982001F084FB01F042F86B
:1047F00008BD0000C8234FF48062024940F6F6303D
:1048000000F062BFC08200082DE9FF41044603A802
:1048100000F00AFEBDF80C00410CC3032F480289CA
:1048200002F00300550754F8200000D54042C2F3BF
:10483000C105960654F8255000D56D42C2F3811685
:10484000D20554F8264000D56442A0FB0367C21786
:1048500002FB037200FB0120820042EA9670A5FB76
:104860000367EA1702FB037205FB0122950045EA84
:104870009672A4FB0367E51705FB037304FB013184
:104880008B0043EA9671030E8DF80030030C8DF80F
:104890000130030A8DF802308DF80300100E8DF8F8
:1048A0000400100C8DF80500100A8DF80600080EA3
:1048B0008DF80800080C8DF80900080A8DF80A0028
:1048C0008DF807208DF80B106A460C214FF42570E7
:1048D00001F010FB04B0BDE8F0810000B40400203A
:1048E00030B5044613A285B007CA8DE807004FF023
:1048F000FF35C82C16D8C820B0FBF4F1491E080AB1
:104900008DF80C008DF80D1003AA022140F216203C
:1049100001F0F0FA30B96A460C2140F6C12001F0EE
:10492000E9FA10B1284605B030BD05488481002061
:10493000F9E70000FEF2ABC4AAF1DFDFBBAFDFDFB7
:10494000B4040020F8B53049098901F0030250F899
:1049500022404A0700D56442C1F3C1028B0650F8D9
:10496000222000D55242C1F3811350F82330C805EC
:1049700000D55B42254984FB0140850045EA9470DF
:1049800082FB0142A40F44EA820483FB0121950FBC
:1049900045EA8105010E8DF80010010C8DF801101B
:1049A000010A8DF802108DF803006A4604214FF4C5
:1049B000747001F09FFA4FF0FF3688B9200E8DF821
:1049C0000000200C8DF80100200A8DF802008DF8FF
:1049D00003406A4604214FF4757001F08BFA08B168
:1049E0003046F8BD280E8DF80000280C8DF8010027
:1049F000280A8DF802008DF803506A4604214FF40E
:104A0000767001F077FAF8BDB404002009E3CA0219
:104A10002DE9FF4104463CA004F003030068029026
:104A20003AA0006803903AA006683AA0056802A878
:104A3000C15C8DF80010C4F3C101425C8DF8012007
:104A4000C4F38112805C8DF8020003A8C35C8DF86A
:104A50000430415C8DF80510805C8DF806006A46D4
:104A6000032140F2264001F045FA4FF0FF37E0BB4A
:104A700001AA032140F22A4001F03CFAA8BBCDE98B
:104A8000006560070BD59DF8000040F001008DF82F
:104A900000009DF8040040F001008DF80400A0061D
:104AA0000BD59DF8010040F001008DF801009DF844
:104AB000050040F001008DF80500E0050BD59DF8DC
:104AC000020040F001008DF802009DF8060040F061
:104AD00001008DF806006A4603214FF4886001F05A
:104AE00009FA10B901AA032100E004E040F23140C4
:104AF00001F000FA18B1384604B0BDE8F08106486C
:104B000004810020F8E700004CCD6C000CC92C009B
:104B10003656760026466600B40400204FF47A72BA
:104B200090FBF2F008B54843010E8DF80010010C1F
:104B30008DF80110010A8DF802108DF803006A4605
:104B400004214FF4AE7001F0D5F908BD0521B0FB8A
:104B5000F1F008B5010A8DF800108DF801006A46E1
:104B600002214FF4AD7001F0C5F908BD0521B0FB7D
:104B7000F1F008B5010A8DF800108DF801006A46C1
:104B800002214FF4AC7001F0B5F908BD08B5002161
:104B90008DF80010C10702D030218DF80010810778
:104BA00005D59DF8001041F00C018DF8001040076C
:104BB00005D59DF8000040F003008DF800006A461E
:104BC00001214FF4A47001F095F908BD08B560B15A
:104BD000042800D90420401E8DF800006A460121F7
:104BE00040F24F1001F086F908BD0120F3E7000004
:104BF00070B504462DED028B82B040074FF0FF35B3
:104C00007ED0B1F5C86F7BD800EE101AB8EE400A1E
:104C1000DFED460A01A880EE208A00F0E7FB9DF850
:104C20000400022806D0042810D0082835D0102807
:104C300074D13EE09FED3E0A28EE000ABCEEC00AA9
:104C400010EE100A9FED3B0A82B20AE09FED3A0A8D
:104C500028EE000ABCEEC00A10EE100A9FED370ADB
:104C600082B228EE000A6E46BCEEC00A10EE100AB0
:104C700081B2100A8DF800008DF80120080A8DF825
:104C800002008DF80310E00726D0324602214FF4CF
:104C9000EA7001F02FF998BB17E09FED290A28EE82
:104CA000000ABCEEC00A10EE100A9FED260A82B27E
:104CB000D7E79FED250A28EE000ABCEEC00A10EEE9
:104CC000100A9FED220A82B2CBE7B21C02214FF4F8
:104CD000927001F00FF998B9A0070DD56A4602212C
:104CE0004FF4EC7001F006F950B9B21C02214FF4F8
:104CF000947001F0FFF818B9600714D56A4600E017
:104D00000CE002214FF4EE7001F0F4F830B9B21C5F
:104D100002214FF4967001F0EDF820B1284602B060
:104D2000BDEC028B70BD0020F9E700000000484395
:104D30000000804600004046000000460000C045DC
:104D40000000804500004045000000450000C044D0
:104D50000521B0FBF1F008B5010A8DF800108DF8BF
:104D600001006A4602214FF4EF7001F0C3F808BD5C
:104D70000521B0FBF1F008B5010A8DF800108DF89F
:104D800001006A4602214FF4ED7001F0B3F808BD4E
:104D900013B54FF6FF73012269460248FDF724FE62
:104DA00000981CBD94020020024AD2E90312C0E917
:104DB00000127047600000200148807870470000B2
:104DC000600000201FB50446274802AB042240685B
:104DD0000D210078FEF716F910B1072004B010BDC0
:104DE0009DF808101C2000EAD1029DF80B10DFEDA1
:104DF0001F0AC1F301131A438DF800209DF8092002
:104E0000C1F3810300EAD2021A438DF801209DF814
:104E10000A2001F0030100EAD20008439FED141AB2
:104E20009FED140A8DF8020000216A46505C0028AC
:104E300004EB810002D080ED001A09E0C0ED000A09
:104E40000CE000BFD0ED001A61EE801AC0ED001A30
:104E5000535C5B1E13F0FF035354F3D1491CC9B2DA
:104E60000329E3D30020B9E724000020000000005C
:104E70007B14AE3E1D5A843F2DE9FE4F05460120AE
:104E8000C14E8DF800004FF000088DF801803068A9
:104E90000C461746817C70686B4602220078FEF74C
:104EA00017F94FF0FF3A00287AD1C820FCF7D4FC5C
:104EB0008DF8008030686B460122C17B70680078F5
:104EC000FEF706F90028EFD130686B4601224179E0
:104ED00070680078FEF7FCF80028E5D130686B4672
:104EE0000122817C70680078FEF7F2F80028DBD19F
:104EF00030686B460122C17D70680078FEF7E8F8E3
:104F00000028D1D130686B460122017970680078A1
:104F1000FEF7DEF80028C7D14FF00C098DF800909D
:104F200030686B460122017970680078FEF7D0F88E
:104F3000002835D10F20FCF78FFCB06A6B460122A8
:104F4000407A8DF800003068817870680078FEF74C
:104F5000BFF8002824D1B06A6B460122007A8DF890
:104F600000003068417870680078FEF7B1F80028DA
:104F700073D1B06A807A0FB140F0E0008DF8000084
:104F800030686B460122817970680078FEF7A0F8DE
:104F9000002862D12FB1B06AC07A40F0E00001E091
:104FA0004AE018208DF8000030686B460122C17974
:104FB00070680078FEF78CF8F0BB17B1C820FCF7DA
:104FC0004BFC40208DF8000030686B4601220179CF
:104FD00070680078FEF77CF870BB78208DF80000D0
:104FE00030686B460122417970680078FEF770F8EE
:104FF00010BB3220FCF730FC8DF80080306847464B
:105000006B464179706801220078FEF761F898B923
:1050100031687068B046897A00786B460222FDF7E5
:10502000F1FF48B9BDF80000AF6040BAB0FBF9F03D
:105030006F60C6B22F6000E00FE0A7606760276076
:10504000002739E0D8F80010D8F804006B46C97A78
:1050500000780C22FDF7D6FF10B15046BDE8FE8F58
:10506000BDF80000236840BA02B2BDF80200BDF8E6
:1050700004101A44226040BA626800B210446060B2
:1050800049BAA06809B20844A060BDF806002B68C0
:1050900040BA02B2BDF808001A4440BA01B2BDF8E5
:1050A0000A002A606A6840BA11446960A96800B2BF
:1050B00008447F1CFFB2A860B742C3D3286883228C
:1050C000C117090441EA104100040023FBF709F964
:1050D00032460023FBF705F9286068688322C11770
:1050E000090441EA104100040023FBF7FAF83246B4
:1050F0000023FBF7F6F86860A8688322C11709044B
:1051000041EA104100040023FBF7EBF8324600238C
:10511000FBF7E7F8A86020684FF40065C1170904A1
:1051200041EA104100042A460023FBF7DAF8324630
:105130000023FBF7D6F8206060682A46C1170904EF
:1051400041EA104100040023FBF7CBF8324600236C
:10515000FBF7C7F86060A0682A46C117090441EA56
:10516000104100040023FBF7BCF832460023FBF794
:10517000B8F8A060002802DDA0F5803001E000F55D
:105180008030A060002069E724000020F8B50646C2
:105190002E480D46002440686B46032200780D21FE
:1051A000FDF730FF08B10720F8BD9DF80000002290
:1051B00000F01F008DF800009DF801009FED241AFB
:1051C00000F01F008DF801009DF802006B4600F012
:1051D0001F008DF80200012156F8220055F82270B8
:1051E000C01B00D5404200EE100A985CB8EEC00A21
:1051F00060EE010AD0B1B3EE090ADFED161A01E044
:1052000020EE210AC0B2401E10F0FF009854F7D1E2
:10521000C0EE801AB7EE000A0F4F31EEC00AB0EEB2
:10522000C00A10EE100AB84207DC09E010EE900A3E
:105230000A4F3844B0F1D97F02D901FA02F0044391
:10524000521C032AC8DB2046F8BD000024000020C1
:105250000000803754E3853F295C0F3E0000E0BE2C
:1052600000B5024600F00DF80346D01C00F009F826
:1052700043EAC003901D00F004F843EA801080B2B6
:1052800000BD90F90010002902DD4FF000007047CA
:1052900002DA4FF00400704790F90110002902DD96
:1052A0004FF00100704702DA4FF00500704790F9A7
:1052B0000200002802DD4FF00200704702DA4FF0D2
:1052C000060070474FF007007047FCF78BFEFEF7B3
:1052D0001BFAFDF7C9FFFDF76DFFFDF749FFFEF76C
:1052E00039F8FDF709FFFEF715F800F02DFEFDF780
:1052F00077FF00F03BFEFEE72DE9F041124C20F075
:105300000101002594F8240010B10020BDE8F081CF
:10531000A07A4FF0FF3668B10840277C207488429D
:1053200000D0354641B1012001F02CFB00F0A2FA7B
:1053300038B127743046E9E7207D00B1012001F043
:1053400021FB2846E2E700002400002010B500F011
:10535000F7F808B10A2010BD782000F06FFD10F0BA
:10536000FF0F01D0012010BD7820FFF7C5FF10F01E
:10537000FF0F01D0022010BD642000F01FFD10F0CF
:10538000FF0F01D0032010BDFFF734FA10F0FF0F1C
:1053900001D0042010BD1448FFF762FFFFF738FB6F
:1053A00010F0FF0F01D0052010BD40F27310FFF781
:1053B000F9F810F0FF0F01D0062010BD6420FFF7B0
:1053C0008FFA10F0FF0F01D0072010BD01F07CFA1A
:1053D00008B1082010BD012000F016FC10F0FF00FD
:1053E000F8D0092010BD0000500000200D494A7A75
:1053F00042B1012A08D0022A0FD0032A0FD04FF061
:10540000FF307047022200E004220270C97C11B113
:105410001106C90D0170002070470822F5E710221F
:10542000F3E70000240000200F494A7A42B1012A24
:1054300009D0022A11D0032A12D04FF0FF30704752
:105440004FF4804201E041F69C720280C97C11B1A8
:10545000C2F34E010180002070474FF48052F4E700
:105460004FF40062F1E70000240000200B49097AA4
:1054700039B1012907D002290AD003290BD0002114
:1054800003E0FA2101E04FF4FA7101800020704737
:105490004FF47A71F9E74FF4FA61F6E7240000203F
:1054A0000D49097A41B1012909D002290DD00329FA
:1054B0000ED04FF0FF3070479FED080A01E09FEDDE
:1054C000080A80ED000A002070479FED060AF8E701
:1054D0009FED050AF5E700002400002000000343CB
:1054E0000000834233330342333383410C49C97A8A
:1054F000072913D2DFE801F01204060A0C0E10008F
:10550000BC2100E062210180002070472A21FAE7D7
:105510001421F8E70A21F6E70521F4E70021F2E774
:1055200024000020054991F8242012B14FF0FF30EB
:105530007047C989018000207047000024000020C6
:105540002DE9FC414C4C80208DF8000020686B4612
:105550000122817C60680078FDF7BAFD4FF0FF37CB
:10556000002832D16420FCF777F900258DF800502F
:1055700020686B460122817C60680078FDF7A8FDF9
:10558000002870D120686B460622817D6068007813
:10559000FDF738FD002866D19DF805009DF8031041
:1055A000C007400F01F0010140EA41019DF80100F0
:1055B0004FF0010600F00100014309D0012905D098
:1055C000022915D02DA0FEF7A5FA4CE0E67410E0F4
:1055D00020686B460122C17860680078FDF712FDF3
:1055E00040BB9DF8000010F00F0020D0042822D00E
:1055F000E574FF2004F80A0F4FF6FF7104F8020C5F
:1056000004F8010C6070A180A0712072A67026764B
:105610006576E572A572E56025616561A576E5763A
:10562000A5834FF4FA6000F02BFB18B907E01D4882
:10563000FEF770FA17E01CA0FEF76CFAC6E702202E
:1056400000F040FA78B92A2000F082FB58B93220E5
:1056500000F0B4FB38B90020FFF74EFE18B9002067
:1056600000F064FA10B13846BDE8FC81002000F07B
:10567000E5FB0020F8E7000024000020556E73755C
:1056800070706F7274656420736F66747761726591
:105690002070726F64756374207265762025642EA5
:1056A0000A0000007499000848616C662073656EFA
:1056B0007369746976697479207061727420666F99
:1056C000756E642E0A0000002DE9FF4FDFF894800C
:1056D000064685B098F8250015460F464FF0FF396D
:1056E000B0BBAFB3002420E0301B102800DD102039
:1056F00080B283463A1901469246204600F0FAFBF2
:1057000030BB6A465946204600F08AF800BB504636
:105710005A466946FAF741FE20B16FF0010009B020
:10572000BDE8F08F04EB0B0084B2B442DCD3280A4E
:105730008DF810008DF81150D8F80000444604ABE5
:10574000817ED8F8040002220078FDF7C1FC08B180
:105750004846E4E7012084F825000898E08400200A
:10576000DDE70000240000202DE9F84305464FF056
:10577000FF39282844D80727284C00267DB101206E
:1057800000F0B4FA20208DF800004FF00108012D40
:1057900017D0052D18D88DF8018005201FE00020B6
:1057A00000F0A4FA8DF800608DF8017020686B4657
:1057B0000222817C60680078FDF78AFC00BB2675B8
:1057C00029E08DF80160E8E7142D04D802208DF857
:1057D00001000A2003E003208DF80100142000F0EE
:1057E000B7FA9DF801006B4607EB80108DF80100B9
:1057F00020680222817C60680078FDF769FC10B1A6
:105800004846BDE8F8830820A072267384F8148007
:105810000020FFF771FD0020F3E7000024000020C6
:10582000F8B516000D464FF0FF371FD0104CA17A87
:10583000E1B1010A8DF80010C0B28DF801004119E4
:1058400060684289914211D8216800786B46097ED0
:105850000222FDF73DFC48B92068EAB23346417D9B
:1058600060680078FDF7CEFB002800D03846F8BD10
:1058700024000020F8B5564C4FF0FF36A07A0028DF
:105880007DD000258DF8005020686B460122C17B39
:1058900060680078FDF71CFC002870D120686B461A
:1058A0000122417960680078FDF712FC002866D17A
:1058B00020686B460122017960680078FDF708FCDA
:1058C00000285CD194F82400E0B30C208DF800008F
:1058D00020686B460122017960680078FDF7F8FBCB
:1058E000002872D13220FBF7B7FFC0208DF80000EE
:1058F000A07AC00702D0E0208DF8000020686B4637
:105900000122017960680078FDF7E2FB00285CD194
:10591000607C18B102208DF8000001E08DF8005085
:1059200020686B460122C17B60680078FDF7D0FBE0
:1059300028BB8DF8005020686B46012241796068D1
:1059400000783EE0FFE704208DF8000020686B46F9
:105950000122017960680078FDF7BAFB78B9A07C74
:1059600090B9A07AC0070FD05FF060008DF80000FA
:1059700020686B46012201796068007800E024E02D
:10598000FDF7A6FB08BB01E04020EFE73220FBF764
:1059900063FF607C18B101208DF8000001E08DF8F4
:1059A000005020686B460122C17B60680078FDF7DB
:1059B0008FFB50B92068064B012241796068103393
:1059C0000078FDF785FB002800D03046F8BD0000C8
:1059D000240000202DE9F047394C82468AB094F823
:1059E00024000F4620B1002000F00EF9012600E04F
:1059F000002607A8FFF73AFD06A8FFF7F7FC09A85D
:105A0000FFF774FD08A8FFF78DFD94F80A9094F84D
:105A100010800025002239465046FFF72DFA10B1BC
:105A20006D1C022DF6DB022D1AD00025012203A9E0
:105A30006846FFF721FA10B16D1C022DF6DB022D2E
:105A40000ED003A93846FEF7DFFCC7B269465046C0
:105A5000FFF79CFB10F0FF0F4FF0000502D002E0B3
:105A6000002503E001250FB945F00205FF20207253
:105A70006072E0724FF6FF71E181A0722074012024
:105A80002073BDF81C0000F0FBF89DF8180000F032
:105A900019F8BDF8240000F05BF9BDF8200000F013
:105AA0008DF9484600F0CAF94046FFF725FC16B1CB
:105AB000012000F0A9F80AB02846BDE8F0870000F0
:105AC0002400002038B5184C4FF0FF35A17A19B3E7
:105AD000022806D0042806D008280ED010281BD192
