:020000040800F2
:10000000E081002075030008E14400087F34000807
:1000100081420008D10D0008795500080000000059
:100020000000000000000000000000008102000845
:10003000190F000800000000DD020008AD4A0008AA
:100040008F0300088F0300088F0300088F03000848
:100050008F0300088F0300088F0300088F03000838
:100060008F030008911200088F0300088F03000817
:100070008F0300088F0300088F0300088F03000818
:100080008F0300088F0300088F0300088F03000808
:10009000D50D00088F0300088F0300088F030008A8
:1000A0008F0300088F0300088F0300088F030008E8
:1000B0008F0300088F0300086D4B00088F030008B2
:1000C0008F0300088F0300088F0300088F030008C8
:1000D0008F0300088F0300088F0300088F030008B8
:1000E0008F0300088F0300088F0300088F030008A8
:1000F0008F0300088F0300088F0300088F03000898
:100100008F0300088F0300088F0300088F03000887
:100110008F0300088F0300088F0300088F03000877
:10012000690E00088F0300088F0300088F03000882
:100130008F0300088F0300088F0300088F03000857
:100140008F0300088F0300088F0300088F03000847
:100150008F0300088F0300088F0300085155000823
:100160008F0300088F0300088F0300088F03000827
:100170008F0300088F0300088F03000800000000B1
:100180008F0300088F03000800F002F800F069F800
:100190000AA090E8000C82448344AAF10107DA45E2
:1001A00001D100F05EF8AFF2090EBAE80F0013F0CB
:1001B000010F18BFFB1A43F00103184714BD0000DC
:1001C00034BD00000A444FF0000C10F8013B13F05E
:1001D000070408BF10F8014B1D1108BF10F8015BA0
:1001E000641E05D010F8016B641E01F8016BF9D193
:1001F00013F0080F1EBF10F8014BAD1C0C1B09D1EA
:100200006D1E58BF01F801CBFAD505E014F8016B5B
:1002100001F8016B6D1EF9D59142D6D370470000ED
:100220000023002400250026103A28BF78C1FBD8FF
:10023000520728BF30C148BF0B607047642900F0E7
:10024000A381782900F0DC81732900F09C840020D0
:1002500070471FB50AF0C7F900F0AFFA1FBD10B51F
:1002600010BD00F0AFFC1146FFF7F3FF05F0D5FA23
:1002700000F0CDFC03B4FFF7F2FF03BC05F0BEF9BC
:100280002C4B19680868B0E8F04F80F30988BFF379
:100290006F8F4FF0000080F311887047000000005E
:1002A00008480068006880F308884FF0000080F379
:1002B000148862B661B6BFF34F8FBFF36F8F00DF54
:1002C00000BF00BF08ED00E0DFF80C00016841F45A
:1002D00070010160704700BF88ED00E0EFF3098016
:1002E000BFF36F8F134B1A681EF0100F08BF20ED7D
:1002F000108A20E9F04F106009B44FF0500080F3ED
:100300001188BFF34F8FBFF36F8F08F0D9FB4FF009
:10031000000080F3118809BC19680868B0E8F04F44
:100320001EF0100F08BFB0EC108A80F30988BFF3ED
:100330006F8F704788010020EFF305807047000041
:100340000B49D1F800C04A685CF8043B10681844B7
:1003500042F8040B8C4528BFA1F1DC0C8A4228BF6F
:10036000A1F1DC02C1F800C04A6020F000407047F3
:10037000747B00200948804709480047FEE7FEE7F4
:10038000FEE7FEE7FEE7FEE7FEE7FEE7FEE7FEE745
:1003900004480549054A064B704700005D4B0008BC
:1003A00089010008E07B0020E0810020E07D002042
:1003B000E07D0020704753EA020C00F069802DE9CF
:1003C000F04B4FF00006002B1FBFB3FA83F503FA82
:1003D00005F424FA05F65E4012BF1643B2FA82F520
:1003E00002FA05F4C5F120051EBF22FA05FC44EA15
:1003F0000C04203556EA044C4FEA144418BF641C20
:100400004FF000084FF00009904271EB030C39D314
:10041000002919BFB1FA81F701FA07F6B0FA80F79F
:1004200000FA07F6C7F120071EBF20FA07FC46EACC
:100430000C062037B6FBF4FCA7EB0507103F07F0CE
:100440001F0BCBF120060CFA0BFB2CFA06F644BF6F
:10045000B3460026202FA4BF5E464FF0000B5BEA98
:10046000060C08BF4FF0010B19EB0B09ABFB027C2C
:1004700048EB0608C01B06FB02CC0BFB03CC71EB60
:100480000C01C1E70B46024641464846BDE8F08BE9
:1004900013B54FF000004FF00001AFF30080BDE84E
:1004A0001C4070470FB4044910B503AA029800F02D
:1004B0006FFB10BC5DF814FB480000200FB41CB5A6
:1004C000084B06AA7B4469460090059800F031FB72
:1004D00004460020694600F03FFB20461CBC5DF846
:1004E00014FB00009106000070B5044685690068A1
:1004F000C10601D5302600E02026C00707D070BD18
:10050000D4E9012130469047206A401C20626D1ECC
:10051000F6D570BD70B5044685690078C00707D16F
:1005200070BDD4E9012120209047206A401C206240
:100530006D1EF6D570BD70B50C460546012A05D076
:100540002878800600D5EA69002302E0012305E04F
:100550005B1C934202D2E05C0028F9D1A869E6183E
:10056000C01AA861286A184428622846FFF7BCFF11
:1005700004E0D5E9012114F8010B9047B442F8D307
:100580002846FFF7C7FF70BD2DE9F041064600245D
:1005900010687529314616A510D0AFF300800028E9
:1005A00002DA404213A507E031688A0701D512A597
:1005B00002E0490704D511A5012401E0AFF3008052
:1005C00000210A2206F1240709E0B0FBF2FCB0FB8F
:1005D000F2F302FB1C00303078541846491C002806
:1005E000F3D123462A463046BDE8F04100F042BA36
:1005F000000000002D0000002B0000002000000083
:1006000070B504460D4621461068AFF3008021887E
:10061000090502D50F4A7A4402E00E4A7A440E32A6
:10062000002104F1240305E000F00F060009965DA7
:100630005E54491C0028F7D120780023000704D518
:10064000702D02D009B1022311322046BDE870405E
:1006500000F010BACEB700002DE9F05F89460446DD
:100660004FF0000ADFF824B1FB44C0F820A0204678
:10067000E168884700287DD0252806D0D4E90121EB
:100680009047206A401C2062F1E700255F46204623
:10069000E16888472028064607DB312E05D2B819C5
:1006A00010F8200C08B10543F1E7A80701D525F0A3
:1006B0000405C4F81CA00027C4F818A02A2E09D0ED
:1006C000304604F08FFF38B304EB8708303EC8F89B
:1006D000186019E059F8041B204604EB8702916169
:1006E000E1688847012F064618D1E069002820DA22
:1006F00025F020051DE0D8F8180000EB800006EB7F
:1007000040003038C8F818002046E168884706469F
:1007100004F068FF0028EED1012F0AD02E2E08D158
:100720002046E16888477F1C0646022F45F02005D9
:10073000C4DBA069002803DA404245F00105A0614E
:10074000E80701D025F01005A6B1A6F1410019284F
:1007500002D8203645F400654A46314620462560D9
:100760004D46FFF76BFD60B1012807D0ED1D25F068
:10077000070000E007E000F1080978E705F1040947
:1007800075E730467AE7206ABDE8F09FA4B700001D
:100790000B4910B5A1F17C020A4CC2E9371237218E
:1007A00006E000EB104342F82130074B00FB03400A
:1007B0000B1EA1F10101F4DC10BD0120E8E70000EF
:1007C000147B0020E119D666CD0D010030B5054639
:1007D0000B462A4613F8014B12F8010B08B1A04250
:1007E000F8D01CB1002802D06D1CF1E7284630BDBE
:1007F00010B5431C02E010F8011B71B18107FAD15A
:100800004FF0013202C88C1A8C4314EAC211F9D09D
:10081000C01A0A0603D0C01E10BDC01A10BD0A04BB
:1008200001D0801E10BD0902FCD0401E10BD40EA60
:10083000010370B59B072ED14FF00136042A2AD34D
:1008400008C810C99D1B9D43121F15EAC61517D075
:10085000D8B2E1B2401A50EA056110D198B2A1B203
:10086000401A50EA05410AD123F07F4024F07F412D
:10087000401A50EA052102D1180EA0EB146070BD99
:10088000A342DBD018BA21BA884201D9012070BD39
:100890004FF0FF3070BD0AB9002070BD10F8013B69
:1008A00011F8014B63B1A3420AD1521E08D010F8CF
:1008B000013B11F8014B1BB1A34201D1521EEDD1F6
:1008C000181B70BD421E12F8013F002BFBD111F81E
:1008D000013B002B02F8013BF9D17047032A40F29B
:1008E000308010F0030C00F0158011F8013BBCF1D2
:1008F000020F624498BF11F801CB00F8013B38BFEA
:1009000011F8013BA2F1040298BF00F801CB38BFF7
:1009100000F8013B11F0030300F02580083AC0F015
:10092000088051F8043B083A51F804CBA0E80810BD
:10093000F5E7121D5CBF51F8043B40F8043BAFF3F0
:100940000080D20724BF11F8013B11F801CB48BF4A
:1009500011F8012B24BF00F8013B00F801CB48BF80
:1009600000F8012B704710B5203AC0F00B80B1E8B9
:100970001850203AA0E81850B1E81850A0E81850D4
:10098000BFF4F5AF5FEA027C24BFB1E81850A0E8DD
:10099000185044BF18C918C0BDE810405FEA827CF7
:1009A00024BF51F8043B40F8043B08BF7047D2070E
:1009B00028BF31F8023B48BF11F8012B28BF20F8AF
:1009C000023B48BF00F8012B704702F0FF0343EAE7
:1009D000032242EA024200F002B84FF0000204296A
:1009E000C0F0128010F0030C00F01B80CCF1040C5E
:1009F000BCF1020F18BF00F8012BA8BF20F8022B92
:100A0000A1EB0C0100F00DB85FEAC17C24BF00F837
:100A1000012B00F8012B48BF00F8012B70474FF065
:100A2000000200B5134694469646203922BFA0E83E
:100A30000C50A0E80C50B1F12001BFF4F7AF09074A
:100A400028BFA0E80C5048BF0CC05DF804EB89003B
:100A500028BF40F8042B08BF704748BF20F8022B7E
:100A600011F0804F18BF00F8012B70477047704796
:100A7000704770472DE9F0470D4699469246044667
:100A800000F124080168880604D5E06921F010010E
:100A9000216000E00120A84201DD471B00E00027A3
:100AA000A1697A1902EB0900081AA0612078C00632
:100AB00002D42046FFF718FD002608E0D4E9012102
:100AC0001AF806009047206A401C761C20624E45AA
:100AD000F4DB2078C0060AD52046FFF705FD06E0C6
:100AE000D4E9012130209047206A401C2062381E42
:100AF000A7F10107F4DC07E0D4E9012118F80500AB
:100B00009047206A401C2062281EA5F10105F3DCF5
:100B10002046FFF7FFFC2078000602D50220BDE842
:100B2000F0870120FBE7000001694A1C0261087898
:100B3000704700B58FB0CDE901310021059105491D
:100B40007944CDE9031011466846FFF785FD0FB0E3
:100B500000BD0000E5FFFFFF0A6802F8010B0A6014
:100B6000704710B5436913B1AFF3008001E0FFF7A0
:100B7000E2FC012010BD127800F124010A7000226D
:100B80004A700122EDE711684FF0FF32E9E70000FB
:100B9000074B70B50D467B44FFF7CBFF0446284654
:100BA00000F008F810B14FF0FF3070BD204670BD66
:100BB000D74B0000007B00F0800070470048704772
:100BC0007C7B00207546FFF7F9FFAE4605006946BD
:100BD000534620F00700854618B020B5FFF7D8FB34
:100BE000BDE820404FF000064FF000074FF000082E
:100BF0004FF0000B21F00701AC46ACE8C009ACE8AF
:100C0000C009ACE8C009ACE8C0098D46704704468D
:100C1000AFF300802046FFF72DFB10B50146806B37
:100C2000026C12F0500F05D0026CD20626D500F0EF
:100C3000EFFB10BD016C41F40071016401688A682A
:100C400012F0405F17D1027EAAB9CA6A12F4700F7F
:100C500002D08A6852050ED44A6822F020024A6007
:100C6000016C21F480710164016CC90403D4016C2E
:100C700041F00101016400F0C9FB10BD806BC26C42
:100C8000BDE810400846104710B5806B4021016454
:100C9000416C41F00401416400F0BAFB10BD10B595
:100CA000806B00F0B4FB10BD464910B54A6822F4D1
:100CB00040324A604A6843681A434A6001684A6899
:100CC00022F480724A6001684A68036942EA03229A
:100CD0004A6001684A6822F040724A6001684A68C6
:100CE00083681A434A6001688A6822F400628A6055
:100CF00001688A68C3681A438A60816A6FF070620B
:100D0000D14201688A6822F070628A6001688A684C
:100D10000CD0836A1A438A6001688A6822F04052C4
:100D20008A6001688A68C36A1A4301E022F040526F
:100D30008A6001688A6822F002028A6001688A6813
:100D4000037E42EA43028A6090F82010002901687D
:100D50004A680FD042F400624A6001684A6822F48F
:100D600060424A6001684A68174C436A04EB4333A7
:100D70001A4301E022F400624A600168CA6A22F460
:100D80007002CA620168CA6A838B104C04EB035379
:100D90001A43CA6201688A6822F400728A60016894
:100DA0008A6890F8303042EA43228A6001688A6893
:100DB00022F480628A6001688A68406942EA802081
:100DC000886010BD0023014000E0FFFF0000F0FF3D
:100DD000FEE70000014800F0AEBD0000B8020020B0
:100DE0002DED048B82B0B2EE049A9FED198A194C56
:100DF000194DDFED1A8A1A4E1A4F00BF8DED008A89
:100E00008DED018A00226946206808F01FFA002251
:100E100001A9286808F01AFA9DED000A02230022B1
:100E2000C0EE280A6946CDED000A9DED010AC0EE2C
:100E3000090ACDED010A306808F0F8F80223002213
:100E400001A9386808F0F2F8012007F007FCD5E79F
:100E500000000000100000200C00002000007A4478
:100E60001800002014000020014800F0EFBF00002F
:100E70005802002001681823CAB2103AB2FBF3F2FC
:100E8000054B6FF30901032A9B5CC36500D9091D5B
:100E9000816508467047000020A6000810B501468D
:100EA00000208B698A6A4FF0C07453B1B3F5005FBC
:100EB00015D072B1012A0CD0022A0AD0032A09D116
:100EC00004E01AB1012A06D0022A03D1C96AC90175
:100ED00000D5012010BDC96AA142FAD010BD002A78
:100EE000F7D0012AF2D0022AF3D0032AF3D010BDA2
:100EF00030B50468256825F48025256004686360A2
:100F00008368402B036803D099600068C26030BDDD
:100F10009A600068C16030BD704700002DE9F0475D
:100F2000414C8046014660783E4E6768C82804D22E
:100F3000A6F5AC721154401C60706069002550B178
:100F400008F016FC6169401AB0F57A7F03D9656034
:100F5000A5702F46656106F8078060684146401C11
:100F60006060A2785AB1012A1BD0022A0BD1A16875
:100F7000884208D1B14600202C4FE3683AE030782F
:100F80002B2802D06560BDE8F087042FFBD1052235
:100F900027A13046FFF74BFC0028F3D10120A070B9
:100FA000F0E73A2903D0092FEDDBA570EAE700202E
:100FB0006FF02F02A16806E0335C01EB810102EBC8
:100FC00041011944401CB842F6DB0220A160A07028
:100FD000656008F0CDFB6061D5E722699446521C3C
:100FE000C2F308029A4207D019F8008007F80C8073
:100FF000401C22618842F0DB02290FD00EA0FFF7CF
:1010000051FA002704E0F15D0FA0FFF74BFA7F1CB7
:10101000A0688742F7DB0EA0FFF744FAA570656071
:10102000A560B0E78C040020300000208C06002072
:101030002B4950442C00000049535220476574202E
:10104000446174613A2000002530327820000000AD
:101050000D0A0000F0B5094A05460020084E146943
:1010600009E0D368A34208D0F75C5B1C2F54C3F39C
:101070000803401CD3608842F3DBF0BD3000002041
:101080008C06002030B5C1B04FF480754FF4FA746F
:1010900029466846FFF7C3FC16A16846FFF712FC15
:1010A00004F036FA6846FFF7A3FB81B22246684691
:1010B00004F046FA29466846FFF7B1FC684604F09A
:1010C00033FA80B10EA16846FFF780FB30B1694664
:1010D0000CA0FFF7E7F9002041B030BD641EA4B2B8
:1010E000012001F025F8002CE8D107A0FFF7DAF97C
:1010F0000120F1E741542B43494653520D0A0000A9
:101100004F4B00002573000047657420495020466E
:1011100061696C656421200D0A000000F0B5C1B062
:101120000F4606464FF48075144629466846FFF779
:1011300076FC31466846FFF7C5FB1BA16846FFF702
:1011400045FB18B918A16846FFF7BCFB04F0E0F9AD
:101150006846FFF74DFB81B24FF4FA72684604F01F
:10116000EFF929466846FFF75AFC14E0684604F098
:10117000DBF958B139466846FFF728FB30B13146F4
:101180000AA0FFF78FF9002041B0F0BD641EA4B2A1
:10119000012000F0CDFF002CE8D1314607A0FFF779
:1011A00081F90120F0E700000D0A000025732053AB
:1011B000656E64206F6B210D0A00000025732053BB
:1011C000656E64206572726F72210D0A0000000066
:1011D0002DE9F041C0B00D4607464FF480761C461D
:1011E000904631466846FFF71AFC04F091F9A9B21F
:1011F0004FF4FA72384604F0A3F931466846FFF717
:101200000EFC11E0684604F08FF968B1414668466B
:10121000FFF7DCFA18B1002040B0BDE8F081641E91
:10122000A4B2012000F084FF002CEBD10120F3E7F1
:1012300030B5C1B00C4605464FF480716846FFF7E3
:10124000EEFB22460BA16846FFF738F94FF4FA721D
:101250000CA16846FFF762FF10B1002041B030BD1D
:101260004FF47A7308A221462846FFF7B1FF2046C3
:10127000F4E7000041542B43495053454E443D256B
:10128000640D0A004F4B000053454E44204F4B0065
:10129000082000F065BF000010B5012200214720A2
:1012A00001F09AFA472001F089FA03480068C16802
:1012B00041F02001C16010BD4404002072B6FEE779
:1012C00078B50024009490F83C20012A19D001221E
:1012D00080F83C200A6807230568092A13D9EE68BC
:1012E0000A3A02EB420293409E43EE600B788A6812
:1012F0000A3B03EB43039A400368DD682A43DA6044
:1013000010E0022078BD2E6902EB420293409E431A
:101310002E610B788A6803EB43039A4003681D69CA
:101320002A431A614A681F23072A13D205686E6B85
:10133000521E02EB820293409E436E630B790A8831
:101340005B1E92B203EB83039A4003685D6B2A43F2
:101350005A6327E005680D2A12D22E6BD21F02EBCA
:10136000820293409E432E630B790A88DB1F92B260
:1013700003EB83039A4003681D6B2A431A6311E051
:10138000EE6A0D3A02EB820293409E43EE620B79C5
:101390000A880D3B92B203EB83039A400368DD6A2F
:1013A0002A43DA62164B0568144A9D4206D10D683D
:1013B000122D03D1556845F48005556005689D429E
:1013C00018D10B68102B01D0112B13D1536843F4A3
:1013D00000035360096810290CD10A490A4A0968B8
:1013E000B1FBF2F101EB8101490000E0491E0091DF
:1013F0000029FBD180F83C40002078BD002301404B
:10140000002001405800002040420F007047704704
:10141000704770B504004FF0000503D0206C002623
:1014200010B107E0012070BD204600F01DF8666491
:1014300084F83C60206CC00610D4206C20F48850E6
:1014400040F0020020642046FFF72EFC6664206C0A
:1014500020F0020040F00100206400E0012584F843
:101460003C60284670BD000070B586B00646142169
:101470006846FFF7D4FA1D493068884234D11C48C9
:101480000025016841F480710160006800F48070FB
:10149000059017481438016841F0010101600068A7
:1014A000694600F001000590062000900320CDE978
:1014B0000105104800F060FE104C0F48C4E900051B
:1014C0000015A560C4E90350800060618000A06140
:1014D0008011C4E907052046656200F087FD08B168
:1014E000FFF7ECFEB463A66306B070BD00200140B8
:1014F00044380240000002401064024058020020BC
:10150000F8B5044600200E46009094F83C100129DE
:1015100007D0012184F83C1021688B68DB0702D0DA
:1015200011E00220F8BD8B6843F001038B60404955
:10153000404B0968B1FBF3F101EB410100E0491EAA
:1015400000910029FBD121688B68DB0503D58B68EE
:1015500023F480738B6021688B68DB075DD0236C7C
:1015600040F20165AB4343F4807323644968490545
:1015700005D5216C21F4005141F480512164216C86
:10158000C90404D5616C21F00601616400E0606467
:1015900084F83C00A16B2948274DC863A16B2848FB
:1015A0000864A16B2748C86421686FF022000860B6
:1015B0002068416841F0806141602068816841F4A1
:1015C000807181602168134632464C31A06B00F077
:1015D00077FD68681C49C006206806D0884224D17F
:1015E000816811F0405F13D01FE08842F8D0174A9D
:1015F000904203D1D1F80423D206F1D0144A90428C
:1016000013D1D1F8041301F01F011029E8D30CE025
:10161000816841F08041816007E0206C40F010005B
:101620002064606C40F0010060640020F8BD0000A0
:101630005800002040420F00002301401B0C00080E
:101640009F0C0008890C0008002001400021014087
:101650000022014090F82020012A07D0022A05D05C
:10166000416A41F48021416201207047006842696B
:101670000A43426100207047F0B590F8205004689A
:10168000A468012D05D0022D03D0416A41F48021C8
:101690004DE014F0406F01D1E50045D5C4F301647D
:1016A0000125A5401D608D684FF4C0739DB1CE68C3
:1016B00035434E6845EAC605066803EB0417F55145
:1016C0004FF4C275076805EB04150E697E51097D5C
:1016D000012905D009E00E88CD6845EA4655EBE7BB
:1016E00001684E5946F480764E511179D2F8055072
:1016F0004FF4C67641EA0521056806EB0416A951A8
:101700001178D2F801204FF4C47541EA0221026831
:1017100005EB04155151006803EB0411425842F0E7
:10172000010242500020F0BD416A41F400114162C3
:101730000120F0BD10B590F82020012A07D0022A20
:1017400005D0416A41F480214162012010BD3B482F
:10175000D0F8002242F00102C0F80022D0F80022A6
:1017600022F47C52C0F80022D0F800224B6A42EAF0
:101770000322C0F800220A7D02F01F0301229A40D2
:10178000D0F81C329343C0F81C32CB69B3B9D0F8FF
:101790000C329343C0F80C328C894B6864F31F43BE
:1017A0004C6900EBC404C4F840320C890B6864F344
:1017B0001F434C6900EBC404C4F84432CB69012BCD
:1017C00016D1D0F80C321343C0F80C320C884B6899
:1017D00064F31F434C6900EBC404C4F840320C8925
:1017E000CB6864F31F434C6900EBC404C4F8443273
:1017F0008B69002BD0F804320ED01343C0F80432AA
:101800000B69002BD0F8143208D01343C0F81432FF
:10181000096A012904D008E09343EFE79343F5E711
:10182000D0F81C121143C0F81C12D0F8001221F09D
:101830000101C0F80012002010BD0000006400404B
:10184000704770B590F82040012C05D0022C03D0D1
:10185000416A41F4802128E0046809B32469A4079F
:1018600020D04FF4D874056804EB01142D5915F0FD
:101870000405956005682D591AD0ED085560056876
:101880002C5904F00204D4604FF4DA74056804EBB8
:1018900001142E5906F00F06082E0CD308250DE072
:1018A000E468DCE7416A41F400114162012070BD47
:1018B0006D0D1560E3E72D5905F00F0515610568FD
:1018C0002D59C5F30725956105682C59240C5461E1
:1018D0004FF4DC72046802EB0112A4581C70046817
:1018E000A458240A5C700468A458240C9C700468F2
:1018F000A258120EDA704FF4DE72046802EB011285
:10190000A4581C710468A458240A5C710468A45883
:10191000240C9C710468A258120EDA71006829B177
:10192000016941F020010161002070BDC16841F0F2
:101930002001C160F8E72DE9F05F0546006800244A
:101940004669D0F804908768D0F80CB0D0F810A0A1
:10195000D0F81880F10748D0F90714D00121816030
:10196000B80703D5284600F010FA0CE0780702D536
:101970004FF4006407E0380702D54FF4805402E0CA
:10198000284600F001FAF80516D529684FF4807052
:101990008860B80503D5284600F0F9F90CE0780511
:1019A00002D544F4005407E0380502D544F48044DD
:1019B00002E0284600F0EAF9F80316D529684FF44A
:1019C00080308860B80303D5284600F0E2F90CE0C7
:1019D000780302D544F4004407E0380302D544F408
:1019E000803402E0284600F0D3F9300707D55FEADB
:1019F000CB6004D52968102044F40074C8607007D7
:101A00004FF0080707D55FEA0B7004D52868C76058
:101A1000284600F059F9B00706D52868C068800745
:101A200002D0284600F052F9700607D55FEACA6076
:101A300004D52968102044F480640861B00607D5F5
:101A40005FEA0A7004D528680761284600F06CF93F
:101A5000F00606D528680069800702D0284600F005
:101A600064F9B00308D55FEAC96005D5296810207C
:101A70004860284600F05AF9F00307D55FEA09707C
:101A800004D528684760284600F084F9300446D51C
:101A90005FEA497040D5F00504D55FEAC87001D00F
:101AA00044F00104B00504D55FEA887001D544F024
:101AB0000204700504D55FEA487001D544F00404BF
:101AC000300529D518F0700F26D008F07000402896
:101AD00015D006DC102809D020280AD0302816D1CD
:101AE0000AE050280ED0602811D10EE044F008041E
:101AF0000DE044F010040AE044F0200407E044F054
:101B0000400404E044F0800401E044F48074286858
:101B1000816921F070018161296804204860002CEE
:101B200005D0686A204368622846FFF789FEBDE851
:101B3000F09F70B5040003D094F8200010B104E0C9
:101B4000012070BD204600F081F82068016841F056
:101B50000101016000F012FC0546052604E000F0DA
:101B60000DFC401B0A2811D820684068C007F6D039
:101B70002068016821F00201016000F0FFFB0546CA
:101B80000BE000F0FBFB401B0A2806D9606A40F41A
:101B90000030606284F82060D2E7206840688007E7
:101BA000EFD4207E0128206801683DD021F080011B
:101BB0000160607E01282068016838D021F0400172
:101BC0000160A07E01282068016833D021F0200147
:101BD0000160E07E0128206801682ED041F01001EC
:101BE0000160207F01282068016829D021F00801C8
:101BF0000160607F01282068016824D021F0040181
:101C00000160D4E902010843D4E9041211430843F6
:101C10006168491E08432168C86100206062012094
:101C200084F82000002070BD41F08001C0E741F041
:101C30004001C5E741F02001CAE721F01001CFE7DC
:101C400041F00801D4E741F00401D9E710B586B0AE
:101C5000044614216846FEF7E2FE184920688842CF
:101C600029D117480021026842F000720260006822
:101C700000F00070059012481038026842F001022E
:101C80000260006800F0010005904FF4C050009021
:101C90000220CDE901010320039009200490694648
:101CA000084800F069FA00220521142000F094FD94
:101CB000142000F083FD06B010BD00000064004059
:101CC00040380240000002407047000010B58CB060
:101CD0006B4603AA0021FFF7B4FD00281ED1104C6B
:101CE000206800281AD09DED000A02230022B8EED9
:101CF000C00A02A98DED020ABDF9040000EE100A27
:101D00000848B8EEC00A8DED0A0A006807F03EFAEE
:101D1000022300220AA9206807F038FA0CB010BD8F
:101D20000C00002010000020704770477047000032
:101D300070B5044690F82000012804D0606A40F491
:101D40000020606218E0022084F82000206801680A
:101D500021F00101016000F011FB05460EE000BF1B
:101D600000F00CFB401B0A2808D9606A40F40030E0
:101D70006062052084F82000012070BD2068406862
:101D8000C007EDD1606270BD704770477047704703
:101D90007047704770472DE9F0410446876D00F0A9
:101DA000EDFA064694F835000025022806D080207A
:101DB000606584F834500120BDE8F0812068016836
:101DC00021F0160101602068416921F08001416124
:101DD000206C08B9A06C20B12068016821F00801CE
:101DE00001602068016821F0010101600CE000F051
:101DF000C5FA801B052807D920206065032084F8D8
:101E0000350084F83450D7E720680068C007EED169
:101E100094F85C103F208840B860012084F83500B9
:101E200084F834500020C7E790F83510022903D019
:101E30008021416501207047052180F83510006838
:101E4000016821F001010160002070472DE9F8438D
:101E500004464FF00009CDF8009063484FF4165146
:101E6000A56D0068B0FBF1F72E6894F85C100820AF
:101E700000FA01F131420FD021680A6852070BD5F0
:101E80000A6822F004020A6094F85C108840A86096
:101E9000606D40F00100606594F85C104FF001083F
:101EA00008FA01F0304208D021684969090604D5D2
:101EB000A860606D40F00200606594F85C1004203A
:101EC0008840304208D021680968890704D5A86095
:101ED000606D40F00400606594F85C10102088404C
:101EE000304218D021680968090714D5A860206815
:101EF0000168490304D50068000308D5A16C07E018
:101F00000168C90503D4016821F008010160216C52
:101F100009B12046884794F85C1020208840304260
:101F200031D021680968C9062DD5A86094F835001C
:101F300005282068016806D0490347D500680003DA
:101F40001DD4616C1CE021F016010160206841691C
:101F500021F080014161206C08B9A06C20B120689B
:101F6000016821F00801016094F85C103F2088406E
:101F7000A86084F8358084F83490216D1FE0E16B0F
:101F800009B120468847606D00282BD0606DC007DE
:101F900014D0052084F835002068016821F0010183
:101FA00001600098401C0090B84203D82068006887
:101FB000C007F6D184F8358084F83490E16C0029AC
:101FC00010D001B02046BDE8F04308470168C905BC
:101FD000D5D4016821F01001016084F8358084F8BF
:101FE0003490CCE7BDE8F883580000202DE9F0419B
:101FF000044600F0C3F906465CB1022084F83500BF
:10200000002584F834502068016821F00101016046
:102010000DE00120BDE8F08100F0B0F9801B05283B
:1020200005D920206065032084F83500F2E7206898
:102030000068C007F0D12268116820480140D4E947
:1020400001031843D4E90336334318436369184343
:10205000A3691843E3691843236A18430843616A74
:10206000042903D1D4E90B131943084310602068F5
:102070004069666A20F0070130460E4301270428B4
:102080000CD1A06A0643E06A40B12046FEF706FF85
:1020900020B14020606584F83570BAE72068466159
:1020A0002046FEF7E7FE94F85C203F2191408160D6
:1020B000656584F835700020ACE700003F8010F0C3
:1020C0002DE9F0410446866D90F834000025012882
:1020D0000DD0012084F8340094F835700020012FD1
:1020E00007D084F8340002252846BDE8F08102209C
:1020F000FBE7022784F8357060652046FEF7F8FE9E
:1021000094F85C103F208840B0602068016841F07E
:1021100016010160206C20B12068016841F00801BF
:1021200001602068016841F001010160DCE7000006
:1021300070B5044600F022F90546601C02D0044840
:102140000078044400F01AF9401BA042FAD370BD95
:102150004C000020082801D101F054BB704700005A
:10216000044910B50A68024202D00860FFF7F2FF86
:1021700010BD0000143C01402DE9F84FDFF8BCA170
:102180000022012503264FF00F090AF1040BAAF1E2
:10219000040E00BF0B6805FA02F42340A34270D17D
:1021A0000F7907F00307012F01D0022F16D187689E
:1021B0004FEA420806FA08FC27EA0C07D1F80CC0DF
:1021C0000CFA08FC4CEA070CC0F808C04768A743A3
:1021D0000C79C4F3001494403C4344600C79E4430C
:1021E000A4070AD0C4684FEA420C06FA0CF7BC43B5
:1021F0008F6807FA0CF72743C7600C7904F00304D3
:10220000022C12D1D40800EB840CDCF820405707D4
:10221000FF0E09FA07F824EA0804D1F8108008FA3A
:1022200007F848EA0408CCF8208004684FEA420C1A
:1022300006FA0CF7BC430F7907F0030707FA0CF70F
:10224000274307604C6814F4403F70D03C4C27682B
:1022500047F480472760246822F0030704F4804491
:102260000094384C07EB040CDCF8084897074FEA59
:10227000177809FA08F7BC43334FB84202D1002758
:1022800024E054E0314FB84201D101271EE0304F25
:10229000B84201D1022719E02E4FB84201D10327DD
:1022A00014E02D4FB84201D104270FE02B4FB84264
:1022B00001D105270AE02A4FB84201D1062705E0DF
:1022C000284FB84201D1072700E0082707FA08F78E
:1022D0002743CCF80878DAF800405746D1F804C014
:1022E0009C435FEACC2C00D51C433C60DBF80040EB
:1022F0005F46D1F804C09C435FEA8C2C00D51C4398
:102300003C60DEF800407746D1F804C09C435FEAA9
:102310008C3C00D51C433C60084F083F3C68D1F81A
:1023200004C09C435FEACC3C00D51C433C60521C7B
:10233000102AFFF42FAFBDE8F88F0000083C0140E1
:1023400044380240003001400000024000040240D6
:1023500000080240000C024000100240001402403D
:1023600000180240001C02400069084000D0012013
:1023700070470AB1816170470904FBE70148806832
:10238000704700004C00002070B5040025D094F880
:102390003D00002520B984F83C50204600F050F95B
:1023A000242084F83D002068016821F001010160CB
:1023B0002068016841F4004101602068016821F44F
:1023C0000041016000F0F4FA4D4A6168914201D881
:1023D0004C4900E04C49884201D2012070BD4B4974
:1023E0002368B0FBF1F15E6826F03F060E435E60A5
:1023F0006368934206D94FF4967359434FF47A7346
:10240000B1FBF3F12368491C1E6A26F03F063143F5
:1024100019626168914210D84900401EB0FBF1F288
:10242000521CC2F30B02042A01D2042022E0B0FBAA
:10243000F1F0401CC0F30B001CE0A268F2B301EB0A
:10244000C10303EB0116431EB3FBF6F35B1C43F41D
:1024500080431B0549D092B301EBC10202EB01118D
:10246000401EB0FBF1F0401CC0F30B0040F4804074
:1024700040F400402168CA694CF6FF739A43104348
:10248000C861D4E9071001432068026822F0C00245
:1024900011430160D4E9030101432068826848F2D6
:1024A000FF339A4311438160D4E905010843216851
:1024B000CA6822F0FF021043C86001E00EE016E097
:1024C0002068016841F0010101602564202084F842
:1024D0003D00256384F83E50002070BD01EB4106AD
:1024E000431EB3FBF6F35B1CB3E70120C2E701EB2D
:1024F0004101401EB0FBF1F0401CC0F30B00B7E7F8
:10250000A086010080841E0000093D0040420F00AB
:102510002DE9FF4F83B09A46DDE9119793460446B3
:10252000DDF84080FFF72AFF054694F83D0020289B
:102530007FD11923012240492046009501F038F847
:10254000002876D194F83C00012872D0012084F84C
:102550003C0020680168C90703D1016841F001010E
:1025600001602068016821F400610160212084F885
:102570003D00402084F83E0000262664C4F82480F4
:10258000A4F82A90608D20852C48E062CDE9007582
:1025900053465A462046049900F08AFF70B930E04D
:1025A0002A463946204601F0A9F858B1206C042883
:1025B00004D12068016841F400710160012007B076
:1025C000BDE8F08F606A216800780861606A401C8D
:1025D0006062218D491E89B22185628D521E6285FD
:1025E00022685369DB435B070BD469B10078106143
:1025F000606A401C6062208D401E2085608D401EF8
:102600006085208D0028CBD12A463946204600F02F
:10261000A3FF0028CAD154F83D0B016841F40071B2
:102620000160202004F81E09E67766770020C6E7DF
:10263000FFE70220C3E70000020010000000FFFFD8
:1026400010B586B0044614216846FEF7E8F9134930
:102650002068884220D112480021026842F002021C
:102660000260006800F002000590C0200090122077
:10267000CDE9010103200390042004906946094834
:10268000FFF77AFD06481030016841F4001101603F
:10269000006800F40010059006B010BD0054004022
:1026A0003038024000040240024881680278114438
:1026B000816070474C0000200B4810B5016841F460
:1026C00000710160016841F480610160016841F4BA
:1026D00080710160032000F09FF80F2000F006F8E1
:1026E00000F050F8002010BD003C024030B5054617
:1026F0001F4887B00024016841F0040101600068B0
:1027000006A900F00400009001A800F031F9049837
:10271000A8B100F04DF940001649174AB0FBF1F19D
:102720001648491E026040F2E732C0E90324C0E9BE
:102730000114846100F044FB040003D015E000F0B4
:1027400037F9E9E70D4800F069FB04000DD11E20C0
:1027500000F034F8102D07D2002229461E2000F088
:102760003BF80748056000E0012407B0204630BD73
:102770004038024040420F00000800408C08002012
:10278000500000200C4882B0016841F48041016093
:10279000006800F4804000900748001F016841F085
:1027A000805101600068002200F0805000900F21ED
:1027B000901E02B000F010B844380240002809DB37
:1027C00000F01F02012191404009800000F1E0204B
:1027D000C0F8001170470000F0B40E4B1B680C46A7
:1027E000C3F30223C3F10705042D00D90425191DE5
:1027F000072901D2002300E0DB1E012606FA05F1BD
:10280000491E214099409E40761E16403143F0BC3F
:1028100002F0D8BE0CED00E0064900F0070208689F
:102820004FF6FF03184040EA0220034A10430860B5
:10283000704700000CED00E00000FA052DE9F047BC
:102840000E46050065D0DFF81481D8F80000F7B215
:1028500000F00700B04207D288F80070D8F80000F6
:1028600000F00700B04254D128683D4C810712D5D2
:10287000400703D5206840F4E05020602878000726
:1028800003D5206840F4604020602068A96820F0EB
:10289000F000084320602878C0072DD030496868D0
:1028A0000839012812D0022813D0032811D0096852
:1028B000890700292DDA216821F0030101432160F5
:1028C000FFF75CFD814641F2883A0EE00968890312
:1028D000EFE709688901ECE7FFF750FDA0EB09017C
:1028E000514502D90320BDE8F0872068696800F0EF
:1028F0000C00B0EB810FEFD1D8F80010404601F08A
:102900000701B14207D90770006800F00700B04224
:1029100001D00120E7E72878400705D52068E9685D
:1029200020F4E050084320602878000706D520688E
:10293000296920F4604040EAC100206000F058F8A6
:102940002168084AC1F30311515CC8400649086078
:1029500006480068FFF7CAFE0020C4E7003C0240BA
:102960000838024028A60008580000205000002027
:102970000F2202600C4A136803F0030343601368DC
:1029800003F0F0038360136803F4E053C36012683C
:102990004FF4E05303EAD20202610448006800F0F9
:1029A000070008607047000008380240003C024001
:1029B0000448054900680968044AC1F38221515C52
:1029C000C8407047580000200838024038A6000868
:1029D0000448054900680968044AC1F34231515C62
:1029E000C8407047580000200838024038A6000848
:1029F000154810B5006810F00C02144813D04110AF
:102A0000042A0FD0082A0ED10F4C241F22682368F5
:102A100002F03F025B0207D52068C0F38810A0FBDC
:102A2000010106E0084610BD2168C1F38811A1FB31
:102A300000010023FDF7BFFC2168C1F30141491CDF
:102A40004900B0FBF1F010BD083802400024F4004A
:102A50002DE9F84F04006ED02078DFF84C93C007C2
:102A6000A9F104054AD009F104000168C1F381010C
:102A7000012908D00068C0F3810002280AD1D9F8E2
:102A80000000400206D52868800337D5606800281A
:102A9000E1D033E06068B0F5803F10D0B0F5A02FF2
:102AA000286810D020F480302860286820F4802026
:102AB00028606068A8B1FFF761FC06460DE0286851
:102AC00040F48030F4E740F480202860F7E700BF4E
:102AD000FFF754FC801B642873D828688003F7D55F
:102AE0000CE0FFF74BFC064605E000BFFFF746FC95
:102AF000801B6428F0D828688003F7D42078DFF89A
:102B0000AC8280074FF0000A3ED5A748001D01683F
:102B100011F00C0F08D00068C0F3810002280BD11F
:102B2000D9F80000400207D42868800716D5E0686D
:102B3000012800D112E033E1E068B8B10120C8F803
:102B40000000FFF71BFC064605E000BFFFF716FC80
:102B5000801B0228C0D828688007F7D5286821691B
:102B600020F0F80040EAC10028600DE0C8F800A09D
:102B7000FFF704FC064604E0FFF700FC801B022878
:102B80001FD828688007F7D42078000722D5864F01
:102B900087486169703771B101210160FFF7EEFB71
:102BA000064604E0FFF7EAFB801B022809D83868D4
:102BB0008007F7D50EE0C0F800A0FFF7DFFB064660
:102BC00005E082E0FFF7DAFB801B02287DD8386839
:102BD0008007F7D42078400768D5DFF8CCB100270C
:102BE0000BF13C0BDBF80000C0000BD4DBF800104D
:102BF00041F08051CBF80010DBF80000012700F015
:102C0000805000906B4E3068C00510D4306840F49E
:102C100080703060FFF7B2FB009005E0FFF7AEFB7D
:102C20000099401A022850D83068C005F6D55E4E8B
:102C3000A0686C3601280FD00528306810D020F02D
:102C400001003060306820F004003060A068B8B146
:102C5000FFF794FB00900FE0306840F00100F4E7CC
:102C600040F004003060F7E7FFF788FB0099411A55
:102C700041F28830814266D830688007F4D50EE092
:102C8000FFF77CFB009007E0FFF778FB0099411A03
:102C900041F28830814256D830688007F4D42FB191
:102CA000DBF8001021F08051CBF80010A069C8B308
:102CB0003D49091D0968C1F3810102294AD0022852
:102CC000504607D0C8F8600000E03CE0FFF756FB34
:102CD00004463BE04746C8F86000FFF74FFB064656
:102CE00005E000BFFFF74AFB801B02282BD82868AD
:102CF0008001F7D4D4E907010843A16A2E4A4908A4
:102D000002EB0141626A41EA8211084394F82C10F7
:102D100040EA0161C9F8001001203866FFF72EFB78
:102D2000044606E03EE000BFFFF728FB001B022838
:102D300009D828688001F7D534E000BFFFF71EFBF3
:102D4000001B022802D90320BDE8F88F2868800103
:102D5000F4D427E00128F7D0D9F80000E26900F4A4
:102D6000800191421CD1226A00F03F01914217D1AB
:102D700047F6C071626A0140B1EB821F10D1A26AAE
:102D80004FF0FF3300F4403103EB5202B1EB024F3E
:102D900006D194F82C1000F07060B0EB016F01D0F8
:102DA0000120D1E70020CFE704380240000047426D
:102DB000800E4742007000400000FFFF70477047E0
:102DC00010B5040003D094F83D0010B107E00120D5
:102DD00010BD002084F83C00204600F01EF80220C0
:102DE00084F83D00211D206801F0C6FE012084F812
:102DF000460084F83E0084F83F0084F8400084F8E0
:102E0000410084F8420084F8430084F8440084F8C8
:102E1000450084F83D00002010BD704790F83D103B
:102E2000012901D001207047022180F83D1001687E
:102E3000CA6842F00102CA6000681149884214D091
:102E4000B0F1804F11D00F4988420ED00E49884210
:102E50000BD00E49884208D00D49884205D00D4953
:102E6000884202D00C49884204D1816801F00701F0
:102E7000062903D0016841F001010160002070477C
:102E8000000001400004004000080040000C004029
:102E900000040140004001400018004070472DE947
:102EA000F04104460068C66805694FF00007A907AD
:102EB00013D5B10711D5F91E0161012020772068D3
:102EC00080698007204602D0FFF7E8FF04E000F0A9
:102ED0007EF8204600F07CF82777680716D5700743
:102EE00014D521686FF00400086102202077206863
:102EF000806910F4407F204602D0FFF7CFFF04E046
:102F000000F065F8204600F063F82777280715D50C
:102F1000300713D521686FF008000861042020777E
:102F20002068C0698007204602D0FFF7B7FF04E0A1
:102F300000F04DF8204600F04BF82777E80616D54C
:102F4000F00614D521686FF0100008610820207782
:102F50002068C06910F4407F204602D0FFF79EFF32
:102F600004E000F034F8204600F032F82777E80754
:102F700008D0F00706D021686FF0010008612046F4
:102F800000F028F8280608D5300606D521686FF02D
:102F9000800008612046FFF711FF680608D570061B
:102FA00006D521686FF040000861204600F01CF84B
:102FB000A8060AD5B00608D521686FF02000086180
:102FC0002046BDE8F041FFF7FABEBDE8F08170474A
:102FD0007047000000680349884201D1FFF764BBD5
:102FE00070470000000800407047704770470000BD
:102FF000F8B5016804460868CA684B6910F00F0FFD
:103000004FF000055AD003F0010602F490773743E1
:1030100065D0C10705D0D10503D5616C41F0010130
:103020006164410705D5D90703D0616C41F0020105
:103030006164810705D5D90703D0616C41F00401B3
:103040006164010707D502F02001314303D0616CB0
:1030500041F008016164616C00293BD0800604D511
:10306000900602D5204601F022FE20684069616C7E
:10307000C0F3801001F00801014320462BD001F07D
:10308000EFFD20684069400621D52068143050E8E3
:10309000001F21F0400140E80012002AF5D1E06B4A
:1030A000A8B16E490165E06BFEF7BEFE002811D0A5
:1030B000E06B016D01B0BDE8F040084783060ED516
:1030C00093060CD52046BDE8F84001F0F0BD20463F
:1030D000FFF78CFFF8BDFFF789FF6564F8BD266B2D
:1030E0002023012E7DD1C6067BD5D60679D508686A
:1030F0004868009048694FF00206400641D5E16BF0
:10310000086840680004000CE8D0A28D8242E5D92E
:10311000E085C869B0F5807F2DD020680C3050E87C
:10312000001F21F4807140E80012002AF5D12168C7
:10313000143151E8000F20F0010041E80002002A9C
:10314000F5D12068143050E8001F21F0400140E81C
:103150000012002AF5D184F84230256320680C3033
:1031600050E8001F21F0100140E80012002AF5D1BC
:10317000E06BFEF710FE6663A08DE18D401A81B210
:103180002AE0A08DE18D401A81B2E08D0028A5D003
:103190000029A3D022680C3252E8000F20F490706E
:1031A00042E80007002FF5D12068143050E8002FC6
:1031B00022F0010240E80027002FF5D184F84230C8
:1031C000256320680C3050E8002F22F0100240E800
:1031D0000023002BF5D166632046FFF706FFF8BDFC
:1031E000FFE705062BD5150629D594F841002128BF
:1031F000F5D1A068B0F5805F01D12069B0B1206A37
:10320000411C2162216800784860E08C401E000467
:10321000000CE084E3D12068C16821F08001C16026
:103220002068C16841F04001C160D8E7206A008889
:10323000C0F308004860206A801C2062E5E7400671
:10324000CDD55006CBD5CA68204622F04002CA60D0
:1032500084F8413000F012F9C1E70000514C000839
:1032600070B5040004D094F84100002510B106E0C8
:10327000012070BD84F84050204600F023F824203F
:1032800084F841002068C16821F40051C1602046E3
:1032900001F06EFD2068016921F490410161206810
:1032A000416921F02A0141612068C16841F400515F
:1032B000C1606564202084F8410084F842006563A1
:1032C000002070BD70B586B0044614216846FDF735
:1032D000A6FB2748254E25680024254914380222DC
:1032E0000323B5421BD10D6845F010050D60096838
:1032F00001F010010591016841F0010101600068D1
:10330000694600F00100059058028DE8150007207D
:10331000CDE903301748FEF72FFF06B070BD164EFB
:10332000B542FAD10D6845F020050D60096801F03D
:1033300020010591016841F00401016000686946BF
:1033400000F004000590C0208DE815000820CDE9AC
:1033500003300A48FEF710FF002205214720FFF73F
:103360003BFA4720FFF72AFAD7E700000010014098
:1033700044380240000002400014014000080240AE
:1033800090F84230202B01D00220704721B11AB1B1
:103390000023036301F072BD0120704770B50D4931
:1033A000C8230D4D4A78B2FBF3F003FB10240878D4
:1033B000521C2855D2B2B2FBF3F403FB14224A701C
:1033C000FDF7ACFD05F58870BDE8704001220149AC
:1033D000FFF7D6BF30000020340300202DE9F8436A
:1033E000044690F84100984616460D46202802D023
:1033F0000220BDE8F88385B17EB100206064212001
:1034000084F84100FEF7BAFFA6848146E684A068EE
:103410002027B0F5805F02D003E00120E9E72069B2
:1034200010B12E4600250EE000260CE0802120463B
:1034300001F03FFDA8B9C6B116F8010B216848603C
:10344000E08C401EE084E08C4B464FF00002CDF84B
:1034500000800028EAD14FF04001204601F029FD0C
:1034600040B184F841700320C3E735F8020BC0F384
:103470000800E3E784F841700020BAE77047FEE7F0
:1034800001684A69D24352050FD46FF480624A61E1
:10349000002140F8301F202242738173026942F0FC
:1034A0000402026101730120704700207047000090
:1034B0002DE9F843044600680D46DDE908970168E8
:1034C0009846164641F4807101604B4600224FF049
:1034D00001112046009700F06BF848B120680068A1
:1034E000C00502D54FF4007020640320BDE8F883C6
:1034F000216805F0FE0008613B464A461549204612
:1035000000F09EF888B920684169806900903A46C9
:103510004946204600F0F2F848B1206C042804D156
:103520002068016841F4007101600120DEE7F5B216
:10353000B8F1010F09D02168300A08613A464946BE
:10354000204600F0DBF80028E7D120680561002064
:10355000CCE700000200010070B516460D46044697
:103560001EE02046FFF78CFF08B1012070BD681CEB
:1035700016D0FEF703FF801BA84200D885B920684B
:103580004069C04340070BD5002044F8300F20218C
:103590006173A073216941F0200121612073E4E788
:1035A00020684069C0434007DBD4002070BD0000A4
:1035B0002DE9F047984617460D460446C1F30746E5
:1035C000DDF820902AE000BFB8F1FF3F26D0FEF7DB
:1035D000D5FEA0EB0901414502D8B8F1000F1DD17D
:1035E0002068012E16D0806925EA00000004000C36
:1035F00012D00020B84211D1002044F8300F202111
:103600006173A073216941F02001216120730120C1
:10361000BDE8F0874069E7E70120EBE72068012E6D
:103620000AD0806925EA00000004000C06D00020C2
:10363000B842C9D00020EBE74069F3E70120F7E783
:103640002DE9F047984616460D4604464FF000090E
:103650004FF0200AC1F3074723E020684069C043C8
:10366000400515D42068016841F4007101602168AB
:103670006FF480604861C4F8309084F83DA084F80D
:103680003E90216C41F00401216484F83C9021E0DB
:10369000701C06D0FEF772FEA0EB0800B04203D803
:1036A00016B1012F1FD021E02068012F15D08069AD
:1036B00025EA00000004000C18D000BF44F8309F39
:1036C00084F80DA084F80E90216941F02001216159
:1036D00084F80C900120BDE8F087406925EA0000DD
:1036E0000004000CEAD12068406901E0206880698C
:1036F00025EA00000004000CAFD1ECE770B51646D7
:103700000D4604461EE02046FFF7BAFE08B1012030
:1037100070BD681C16D0FEF731FE801BA84200D891
:1037200085B920684069C04300060BD5002044F8E5
:10373000300F20216173A073216941F020012161C4
:103740002073E4E720684069C0430006DBD4002012
:1037500070BD000070B502004FF0000003D52D20B1
:103760005242087001200A2392FBF3F403FB142455
:1037700092FBF3F230340C54401C002AF4D10A546A
:103780000B782D2B01D10122401C00EBD07500BF1E
:10379000B2EB650F0EDA831A0B448C5C13F8016DE3
:1037A00034448C541E78A41B1C708B5C1B1B8B54E4
:1037B000521CEDE7084670BD642202490248FDF73D
:1037C0009FBE0000D40800201002002030B5002168
:1037D0000B4C0B460A4600BF54F82150491CC9B295
:1037E0002B4454F82150491CC9B22A446429F3D30C
:1037F0003224B3FBF4F1B2FBF4F2C0E9002130BD96
:10380000D408002010B508210648FEF7ADFD0128B8
:1038100007D00548002210210068BDE8104005F0DF
:1038200045BA10BD00000240240000201CB5104C19
:1038300040F6AC554FF4FA766846FFF7C7FFDDE96E
:103840000010B14201D201210AE0A94201D90221AE
:1038500006E0A84201D9042102E0B04203D20821C7
:10386000206805F0DDF9642004F0F8FEE4E70000CC
:10387000240000202DE9FC41074615460E46002491
:103880006846009304F086FB60F30704C4F3C000AD
:1038900030702009387001A9009800F0EFF8009905
:1038A000019A014400910A44511A022904DB684636
:1038B00004F076FB28800120BDE8FC812DE9FC4165
:1038C000074600240E4625466846009204F062FB37
:1038D0000146204661F307000009022819D101A919
:1038E000009800F0CBF80099054608440199009033
:1038F0000144081A02280CDB684604F04BFB60F315
:10390000070404F001003870684604F043FB30708F
:1039100001252846BDE8FC812DE9FC5F8046DDE9F4
:103920000EA00024CDE90004994617460E46254610
:10393000DDF834B0684604F02DFB60F3070420097D
:1039400003282BD1C4F3C00188F80010C4F3410050
:10395000306004F00100387001A9009800F08EF882
:10396000009905460844019900904418224669468A
:103970000C9804F01EFB88B10098201A0ED4306811
:10398000002804DD684604F00BFBA9F8000000984D
:10399000221ACAF800200125CBF800002846BDE80D
:1039A000FC9F2DE9FC4781460A98002400909A4626
:1039B000164688462546684604F0ECFA014620463D
:1039C00061F307000009092826D101A9009800F039
:1039D00055F8009905460844019900904718381A8F
:1039E000022819DB684604F0DBFAA9F8000034600D
:1039F0000EE03168414502DD4FF0FF350CE06846CE
:103A000004F0C8FA31688B00491C31604AF80300A1
:103A10000098B842EDD301252846BDE8FC870EB5D5
:103A200000238DF804308DF8083000920B460246D2
:103A300002A901A8FFF71EFF9DF804100B2900D171
:103A400001200EBDF8B5012500240E4607460C6086
:103A5000641C042C0FDC01216846B84701280AD1F8
:103A60009DF80000316800F07F0202FB0511ED01B6
:103A700031600006ECD42046F8BD0000024A106018
:103A80000248FFF7DFBF0000840100200156000854
:103A900010B503460020CA1701EB526424F07F02E0
:103AA000891ACAB2E111002901DD42F080021A54DC
:103AB00000F10100EFDC10BD70B504680E4624B1C2
:103AC0002046FCF795FE054601E0D0E9015430465A
:103AD000FCF78EFE854205D12A4631462046FCF78A
:103AE000A6FE08B1002070BD012070BD401C8028DA
:103AF00001DA401C7047B0F5804F01DA801C704736
:103B00000349884201DAC01C7047001D704700005D
:103B1000FFFF1F00F8B50024069E0546009004290B
:103B200001DAA01EF8BD62F3071463F3C304062A8A
:103B300024F0060000D1801CC1B2684605F012F8DE
:103B400002210098FFF7A4FF009908440090314635
:103B5000684605F00DF80098401BF8BD2DE9F843C4
:103B600007460090884614460025104600F082F86B
:103B70008146FFF7BBFF404502DDA81EBDE8F88384
:103B80002E46314666F307016846103104F0EAFF1D
:103B900049460098FFF77CFF009908440090207A7E
:103BA00004281DD02FA1684604F0C8FF03216846F1
:103BB00004F0D8FFA07E66F3070560F34105E07EC0
:103BC00008B145F00405680707D594F83D0060F397
:103BD000C40594F83C0060F34515206C40B905E03D
:103BE00022A1684604F0AAFF0421E0E7A06C08B116
:103BF00045F08005E06C08B9606D08B145F04005FE
:103C00002946684604F0AEFF218B684604F0B0FFF9
:103C100004F10C0168460EC904F0B9FFE07E68B1FA
:103C20002434684694E80E00243C04F0B0FF30349D
:103C3000684694E80E00303C04F0A9FF280605D53C
:103C400004F1400168460EC904F0A1FF680605D5DD
:103C50004C34684694E80E0004F099FF0098C01BAD
:103C60008CE700004D514973647000004D5154546D
:103C70000000000070B50446007A0025032802D039
:103C8000042802D002E00C2500E00A2504F10C0013
:103C900007C800F0F5F80544E07EAD1C78B1243487
:103CA00094E80700243C00F0EBF83034064694E832
:103CB0000700303C00F0E4F8304405442D1D206C32
:103CC00008B9A16C29B1D4E9111200F0D9F8054462
:103CD000AD1CE06C08B9616D29B1D4E9141200F093
:103CE000CFF80544AD1C284670BD0C2200F0AFB8DB
:103CF0002DE9FC5F1C46129ECDE90060DDF838B06E
:103D00009046DDF830A0DDE90F2389460746594685
:103D1000204600F030F80546FFF7E8FE484503DD91
:103D20006FF00100BDE8FC9F302168F3C30164F32C
:103D300042016AF3000101A804F014FF294601982A
:103D4000FFF7A6FE019908440190DDE90F235946CB
:103D500001A804F01CFF002C03DD01A80D9904F05C
:103D600007FF324611990198FCF7B8FD01983044DD
:103D70000190C01BD6E770B50E46114604461A46A0
:103D80003046049D00F07CF82844801C002C00DDA7
:103D9000801C70BD2DE9FF4F83B0064610A88946F0
:103DA00090E8800900249246254641463846009610
:103DB00000F036F80190FFF799FE484503DDA01E9C
:103DC00007B0BDE8F08F64F3070480346AF3C304DE
:103DD00024F00600801CC1B2684604F0C3FEDDE991
:103DE0000001FFF755FE00990844009068460699C7
:103DF00004F0BEFE0FE000BF05EB450108EB8100BB
:103E000090E80E00684604F0C2FE1BF825106846D4
:103E100004F0A8FE6D1CBD42EEDB0098801BCFE7CE
:103E20002DE9F04102250F46064600240AE000BFB6
:103E300004EB440007EB800007C800F021F80544BC
:103E4000641CED1CB442F3DB2846BDE8F08138B5B4
:103E5000002304460090022901DA981E38BD194655
:103E600063F3070162F30711684604F07BFE00214B
:103E70000098FFF70DFE009908440090001B38BD24
:103E800010B510B1FCF7B4FC0146084610BD0000A7
:103E90007FB500251A4800950195029517490395AD
:103EA000016001244FF480310461C0E901150476FA
:103EB00080F820501349C0E90A150226C661C56082
:103EC00080F830404461FDF7A4FA08B1FDF7F6F937
:103ED000009469460A48CDE90145FDF7F1F908B1BA
:103EE000FDF7ECF90096694605480196FDF7E8F9FB
:103EF000002801D0FDF7E2F97FBD0000002001405D
:103F0000100200200100000F0F4810B50D4901609C
:103F10000621416000214FF400328160C0E90312A4
:103F200012014261017641768176C176017741774F
:103F3000FDF7FFFD002803D0BDE81040FDF7BEB936
:103F400010BD000000640040B8020020094808B518
:103F5000016841F4800101600068002200F48000E3
:103F6000009005213820FEF737FCBDE808403820D6
:103F7000FEF724BC303802402DE9FC4100F0F0FA95
:103F8000FFF71AFC00F07DF93CA0FCF78BFA032246
:103F90000021012004F0B1FF3F4C03220021E06129
:103FA000012004F0AAFF206200220421012004F075
:103FB000A4FFE06000220421012004F09EFF2061A4
:103FC00000220421012004F098FF606100220421F6
:103FD000012004F092FFA06100220421012004F0DE
:103FE0008CFF606000220421012004F086FFA060A5
:103FF0002A4A00212A4803F015F9E06220461B26D0
:10400000CDE900604FF4807700233A4625A1294886
:1040100005F048FB0025CDE900652B46802226A14E
:104020002A4805F03FFB1A20CDE9000500233A4657
:1040300027A1294805F036FB1926CDE900650023A4
:104040003A4626A1294805F02DFBCDE9006500235D
:10405000802227A12A4805F025FBCDE90065002331
:10406000BA0028A12A4805F01DFB04F0CBFD6062D0
:1040700004F0C8FDA062BDE8FC81000045766572D1
:10408000797468696E6720697320496E6974656424
:10409000A3A10D0A0000000000000020FCA50008FC
:1040A000A54A00084D6F746F725069645461736B58
:1040B00000000000ED42000843616C4D6F746F72A8
:1040C000446174615F5461736B000000E10D00088E
:1040D00055495461736B00001553000855494163FD
:1040E00074696F6E5F5461736B000000254F0008A8
:1040F0004A6F79737469636B5461736B00000000DD
:104100002D3800084D7174745461736B0000000009
:104110006943000870B586B014216846FCF77FFC3F
:1041200028480024016841F080010160016801F025
:1041300080010591016841F001010160016801F011
:1041400001010591016841F004010160016801F07D
:1041500004010591016841F00201016000681A4EF6
:1041600000F002004FF48075059000222946304689
:10417000FEF7FFF8082000904FF444100190022051
:10418000029069463046FDF7F7FF00950125CDE91D
:104190000154694630460394FDF7EEFF202000905D
:1041A0004FF48810CDE9010569460848FDF7E4FFA2
:1041B000002205210920FEF70FFB0920FEF7FEFA79
:1041C00006B070BD303802400000024000040240DA
:1041D0000D4810B50B4901600C49416000214FF4B6
:1041E00080428160C0E9031241618161C161016265
:1041F000FEF7CAF8002803D0BDE81040FDF75EB80E
:1042000010BD000000540040E0020020A086010024
:104210000C4810B50A4901604FF4E13141600021BA
:1042200081600C22C160C0E904128161C161FFF7A5
:1042300017F8002803D0BDE81040FDF73FB810BDC7
:1042400000100140FC0300200C4810B50A49016031
:104250004FF4E1314160002181600C22C160C0E96E
:1042600004128161C161FEF7FBFF002803D0BDE8A5
:104270001040FDF723B810BD001401404404002095
:10428000FEE700F011B9000010B5DFED140A9FED54
:10429000140A14482DED028B9FED0E8ADFED0E8A75
:1042A000B0EE482AF0EE481AB0EE681A00F075FA3F
:1042B000B0EE482AF0EE481AF0EE680ABDEC028B28
:1042C000B6EE001A0748BDE810409FED070A2430FB
:1042D00000F063BA00401C460000000017B7D13858
:1042E0006F12033C640A0020000020422DED028B77
:1042F00082B09FED1A0A8DED000AFFF7C5FF184C3A
:1043000000231A461946206804F090FE154D4FF020
:10431000FF363146206805F0CFF80022694628684C
:1043200004F094FF01F04AFAB0EE408A01F03AFA44
:10433000F0EE400AB0EE481A9DED000A01F072F965
:10434000012000F055FB00231A461946206804F0AE
:104350006DFE012004F082F9DBE7000000000000A0
:104360001C000020040000209AB000251595169529
:104370001795189501F04AFF304C31A1206002F0EA
:1043800091FB31A1206802F019FB0A2003F0A6FD81
:104390000146206802F0CAFA0A2003F09FFD014698
:1043A000206802F0B9FB0A2003F098FD014620685E
:1043B00002F03EFB0121206802F07AFA206801F049
:1043C0000BFC0100FAD124A0FCF76CF8DFF8A08008
:1043D0004FF0FF3601AF0096002301220721D8F8E5
:1043E000000004F06BFCC10706D001AA15A901204A
:1043F00001F02EFA1FA110E0810706D501AA15A928
:10440000042001F025FA20A107E0400708D501AA01
:1044100015A90B2001F01CFA1FA10BA8FCF74EF800
:1044200018978DF8545001A8FCF7E2F9179015AAD7
:104430000BA9206801F0F4FFCDE70000780100200F
:10444000313838330000000034372E3131342E310A
:1044500038372E32343700006D7174745F636F6EBD
:104460006E65637420657272203D2025640D0A001C
:10447000280000206C6967687464656D6F2F73771E
:1044800069746368000000006C6967687464656D36
:104490006F2F6D756C7469006C6967687464656D05
:1044A0006F2F636F6E74000000B58BB00020012188
:1044B000CDE90601089100900190029003900590CB
:1044C000049069460548FDF735F90448FDF730FCCE
:1044D00002210248FDF7BEF80BB000BDB802002073
:1044E000FEE7002000F020B82DE9F0479846174677
:1044F000824600260C46DDF8209010E0214650460A
:1045000000F088F8554606E019F80600761C01F020
:1045100047F86D1CEDB2BD42F6D3641CE4B24445CD
:10452000ECD3BDE8F087000070B506465FF00004EC
:1045300004F1B000C0B201F021F8022001F01EF831
:10454000102001F01BF80025304601F029F86D1C01
:10455000EDB2802DF8D3641CE4B2082CE8D370BD12
:1045600010B56420FDF7E4FDAE2001F007F820202F
:1045700001F004F8102001F001F8B02000F0FEFF77
:10458000C82000F0FBFF022000F0F8FF102000F030
:10459000F5FF402000F0F2FF812000F0EFFFFF2048
:1045A00000F0ECFFA12000F0E9FFA62000F0E6FFFC
:1045B000A82000F0E3FF3F2000F0E0FFA42000F07F
:1045C000DDFFD32000F0DAFF002000F0D7FFD52078
:1045D00000F0D4FFF02000F0D1FFD92000F0CEFF92
:1045E000222000F0CBFFDA2000F0C8FF122000F0FC
:1045F000C5FFDB2000F0C2FF202000F0BFFF8D20B0
:1046000000F0BCFF142000F0B9FFBDE81040AF205F
:1046100000F0B4BF10B50446B031C8B200F0AEFF30
:10462000102040EA141000F0A9FF04F00F00BDE8CC
:10463000104040F0010000F0A1BF00002DE9F0475C
:10464000002591468A460446012B22D0DFF8BC8023
:10465000022B24D155E02038C7B27E2C04D90AF1B0
:104660000100002400F0FF0A51462046FFF7D2FF68
:1046700007EB4700002608EB4007B85D00F090FF0D
:10468000761CF6B2062EF8D3A41D6D1CE4B2EDB272
:1046900001E0DFF87C8019F805000028DBD1BDE8D7
:1046A000F0872038C7B2782C04D90AF10100002421
:1046B00000F0FF0A51462046FFF7ACFF5FF000060E
:1046C00006EB071118F8010000F06AFF761CF6B23D
:1046D000082EF5D30AF10100C1B22046FFF79AFF78
:1046E0005FF0000606EB071101EB0800007A00F00E
:1046F00057FF761CF6B2082EF4D308346D1CE4B2D2
:10470000EDB219F805000028CBD1C8E788A9000848
:1047100060A7000890ED031A70EE600A80ED041A9D
:10472000C0ED030A30EEC10A90ED021A90ED012AA5
:1047300020EE011A90ED000A60EE801A90ED050A55
:1047400000EE820A80ED050AD0ED060AB4EEE00A1A
:10475000F1EE10FA06DCF1EE600AB4EEE00AF1EEDA
:1047600010FA01D2C0ED050A31EE810AD0ED050A3A
:1047700030EE200A80ED070AD0ED080AB4EEE00A18
:10478000F1EE10FA06DCF1EE600AB4EEE00AF1EEAA
:1047900010FA01D2C0ED070A7047C0ED061A80ED8D
:1047A000082A80EC030A704730B51E4887B0C568F8
:1047B000C478E8B2022803D0032801D0042803D12A
:1047C0004FF0FF3007B030BD0D2C1FD0641CE4B299
:1047D0002146684600F0FEFF0098C0B20228F3D0E0
:1047E000214602A800F0F6FF0298C0B20328EBD0E1
:1047F000214604A800F0EEFF0498C0B20428E3D0DC
:1048000000F050FFE8B2012802D003E00124DFE706
:1048100000F022FF204603F0FFFB03F07BFC0020AA
:10482000D0E700005C00002070B51D4D00211D4A3E
:10483000EB78481E12F821409C420DD1184E02EB35
:1048400081010C36B3785C56611C08D000F02AFF59
:104850003078012804D005E0491C0529EADB70BD49
:1048600000F0FAFEE0B203F0D7FB3078032812D153
:104870000024A8792044C1B22879FFF7CBFE002696
:10488000002000F08DFE761CF6B2302EF8D3641CAA
:10489000E4B2062CEDD303F03DFC002070BD000017
:1048A0005C000020EFBA000810B5FFF759FEFFF7D3
:1048B00018FE09482721017157214171002181719A
:1048C0000621C171417002210170012003F0A4FB97
:1048D000BDE8104003F01EBC5C00002070B522480B
:1048E0000021224CC378481E012204EB8105AE5CF6
:1048F0009E421ED104EB810191F90060711C1ED013
:1049000000F0D0FE002421460020FFF783FE0025A2
:10491000002000F045FE6D1CEDB2102DF8D3641C94
:10492000E4B2022CEFD310480C300078032807D0F3
:1049300012E0521C042ADADB491C0529D4DB70BDC5
:1049400003210C20FFF766FE0024002000F028FE63
:10495000641CE4B2672CF8D9F0B203F05DFB03F0FD
:10496000D9FB002070BD00005C000020EFBA0008F9
:1049700030B51E4887B0C568C478E8B2022803D0B5
:10498000032801D0042803D14FF0FF3007B030BD19
:10499000012C1FD0641EE4B22146684600F01AFFC5
:1049A0000098C0B20228F3D0214602A800F012FFFE
:1049B0000298C0B20328EBD0214604A800F00AFFF9
:1049C0000498C0B20428E3D000F06CFEE8B20128DD
:1049D00002D003E00D24DFE700F03EFE204603F0A6
:1049E0001BFB03F097FB0020D0E700005C000020D9
:1049F00000B5DFED0E0A89B0002020EE200A082164
:104A00000290CDE9030106900790BDEEC00A48016F
:104A1000009010EE100A08ABADF8180006AA69461F
:104A20000348FCF729FE09B000BD000000007A44ED
:104A3000B80200201CB5684600F0A6FE9DF80000F4
:104A4000012802D04FF0FF301CBD9DF802109DF8E8
:104A50000100012901D0491EC8B203F0C5FA00F0D7
:104A600021FE03F0B9FB00201CBD1CB5684600F018
:104A70008BFE9DF80000012802D04FF0FF301CBDD6
:104A80009DF801109DF80200884201D1012001E04B
:104A9000401CC0B203F0A8FA00F004FE03F09CFB37
:104AA00000201CBD012003F0D9FDFBE710B54FF03D
:104AB000E020006904F04EFE012803D0BDE810405C
:104AC00004F0FAB910BD000030B593B0302168464B
:104AD000FBF7A5FF14210CA8FBF7A1FF1D4800253B
:104AE000016841F080510160006800F08050119031
:104AF0001948016841F4804101600068022400F413
:104B00008040119001200090000401908001CDE9C7
:104B1000064008AA0420A82182E813000B906846EA
:104B2000FDF796FF08B172B6FEE70CA90F2081E8E9
:104B300031004FF4A0500F904FF480501090052199
:104B40000CA8FDF77BFE002801D072B6FEE713B07B
:104B500030BD00004038024000700040024801684B
:104B600041F470010160704788ED00E00148FEF7F4
:104B700096B900008C080020F0B50268294C2A4D37
:104B80002A4E2B4F2B4B4FF0804CA04209D0604552
:104B900007D0A84205D0B04203D0B84201D0984215
:104BA00004D122F0700E4A6842EA0E02A0421BD0E5
:104BB000604519D0A84217D0B04215D0B84213D0E2
:104BC000984211D01C4DA8420ED01C4DA8420BD0CB
:104BD0001B4DA84208D01B4DA84205D01A4DA84233
:104BE00002D01A4DA84203D122F44075CA682A4364
:104BF0004D6922F080022A4302608A68C2620A6814
:104C00008262A04201D0984201D109690163012169
:104C100041610169C90703D0016921F00101016106
:104C2000F0BD00000000014000040040000800400A
:104C3000000C0040000401400040014000440140DD
:104C40000048014000180040001C004000200040C7
:104C500010B5806B0021C185C184FEF7C7F910BD76
:104C600001680C3151E8002F22F4907241E80023D2
:104C7000002BF5D10168143151E8002F22F0010218
:104C800041E80023002BF5D1016B012909D101680E
:104C90000C3151E8002F22F0100241E80023002BD4
:104CA000F5D1202180F8421000210163704708B53A
:104CB00090F84210222901D0022008BD82684FF4EA
:104CC00080539A4201D1016921B1816A9A421BD075
:104CD0004AB10AE00268816A5268C2F308020A8097
:104CE000816A891C08E0026972B10268526802F0A8
:104CF0007F020A70816A491C8162C18D491E0904C4
:104D0000090CC18503D01BE002685268F1E7016815
:104D1000CA6822F02002CA600168CA6822F4807260
:104D2000CA6001684A6922F001024A61202180F8C4
:104D3000421000214163026B012A03D0FEF72EFBD3
:104D4000002008BD016301680C3151E8002F22F0FA
:104D5000100241E80023002BF5D101680A68D20651
:104D600002D50A6849680091818DFEF73EF9E7E7B0
:104D700070B5044600680169E26821F440511143AE
:104D800001612169A068E269084361691143084330
:104D90002168CA6849F20C639A430243CA602068DA
:104DA0004169A26921F44071114341613149206890
:104DB000884202D03049884202D1FDF709FE01E065
:104DC000FDF7F6FDE2690023192164253226B2F5CC
:104DD000004F626828D0A0FB0101930F9200FBF7FF
:104DE000EAFA0146B0FBF5F06FF01802504301EB10
:104DF000800006EB0010B0FBF5F000F0F002B1FB14
:104E0000F5F002EB0012B1FBF5F06FF01803584318
:104E100001EB800006EB0010B0FBF5F000F00F0096
:104E200021681044886070BDA0FB010192185B41AD
:104E3000FBF7C1FA0146B0FBF5F00201B1FBF5F05A
:104E40006FF01803584301EB800006EBC000B0FB85
:104E5000F5F000F0F80002EB4002B1FBF5F058432A
:104E600001EB800006EBC000B0FBF5F000F007009E
:104E7000D6E70000001001400014014081628285E5
:104E8000C28500214164222180F84210016921B1CC
:104E90000168CA6842F48072CA6001684A6942F0D7
:104EA00001024A610068C16841F02001C160002030
:104EB00070472DE9F843984617460D460446089E6C
:104EC00024E0701C22D0FDF759FAA0EB0800B04294
:104ED0001AD8CEB12068C168490717D5802D15D0E2
:104EE000402D13D00168C94309070FD4016800257C
:104EF000406800902046FFF7B3FE0820606484F805
:104F000040500120BDE8F8830320FBE720680068DB
:104F100035EA000004D00020B842D2D00020F1E7EA
:104F20000120F9E72DED0A8B88B0DFEDD58AD54F4A
:104F3000CDED008A4FF0FF369FEDD3BB9FEDD4CA75
:104F40009FEDD4ABDFF85493DFF854A3DFF854831C
:104F5000DFF854B3D54D3146286804F0ADFA324637
:104F60006946386804F072F900F016FC044601A89E
:104F700000F00AFC0198C0B2022807D001A800F096
:104F800003FC0198C0B2032870D072E1A41E062C65
:104F9000FBD2DFE804F01B0335364D88009805F09E
:104FA000B1FA53EC1A2B05F0B7F941EC190B00F0EC
:104FB000F9FB10EE100A05F0A5FA53EC192B05F0D9
:104FC00075F9E2D24FF47A71022083E0009805F07F
:104FD00099FA53EC1B2B05F09FF941EC190B00F0EB
:104FE000E1FB10EE100A05F08DFA53EC192B05F0D9
:104FF00023F8CAD24FF47A7103204FE001F076FE15
:1050000037E1009805F07EFA9FEDA91B53EC112BB8
:1050100005F082F941EC190B00F0C4FB10EE100A08
:1050200005F070FA53EC192B05F006F8ADD24EE0FE
:10503000009805F067FA9FEDA01B53EC112B05F0CB
:105040006BF941EC190B00F0ADFB10EE100A05F006
:1050500059FA53EC192B05F029F908D24FF47A715B
:105060000520DDED000A9FED960AC7E737E00098BE
:1050700005F048FA53EC1B2B05F04EF941EC190BE7
:1050800000F090FB10EE100A05F03CFA53EC192BDF
:1050900004F0D2FFB4D24FF47A710720DDED000A9C
:1050A000B0EE4C0AAAE7009805F02CFA53EC1A2B44
:1050B00005F032F941EC190B00F074FB10EE100A08
:1050C00005F020FA53EC192B05F0F0F898D24FF4C4
:1050D0007A710620DDED000AB0EE680A8EE704A8BA
:1050E00000F052FB0098019005F00CFA9FED751B43
:1050F00053EC112B05F010F904F032FD02900198E9
:1051000005F000FA9FED711B53EC112B05F004F92B
:1051100004F026FD039000F045FBDDED000A30EEC3
:10512000200AB1EE400A10EE100A05F0EBF99FEDEF
:10513000691B53EC112B04F0BBFF9FED680B53EC84
:10514000102B04F03FFD04F00BFD08EE100A18EEE2
:10515000100A484573D818EE100A50456FDA00213E
:10516000D8F8000004F0A8F90120B0EE680AFFF7B3
:105170003FFCB5EEC08A0020F1EE10FA01900CD38E
:1051800018EE100A5749884201DD642004E0BCEEA5
:10519000C80A10EE100AC0B2019002F025FF0B2CD5
:1051A00004D00C2C06D00D2C3DD11DE0019800F050
:1051B000AFFC38E006A800F0E7FA0698C0F3074015
:1051C00000EE100AB8EE400A10EE100A05F09AF947
:1051D0009FED451B53EC112B04F06AFF04F0FEFE1B
:1051E000C0B202F049FF1EE006A800F0CDFA069812
:1051F000C0F3074000EE100AB8EE400A10EE100AA5
:1052000005F080F99FED3A1B53EC112B04F050FF91
:105210009FED391B53EC112B04F0D4FC04F0DEFE9F
:10522000C0B202F005FF03F01FF806A800F0ACFAC8
:105230000698000C40B202F035FF1AE0FFE718EEC6
:10524000100A484503D90223002202A906E018EEFD
:10525000100A50450DDB0223002203A9DBF80000F1
:1052600003F0E4FE00231A461946D8F8000003F0C4
:10527000DDFE00231A461946286803F0D7FE6AE6C9
:10528000000000000800002008274354FB21E9BF6C
:10529000DB0F49C0320D337F7CD902C00000A0C0B3
:1052A0000000D2421C00002004000020200000204A
:1052B000320D337F7CD9024008274354FB21E93F5C
:1052C000DB0F4940EA2E4454FB210940EA2E4454A6
:1052D000FB2109C0FE468BABBBD42F400000000071
:1052E000000049400000C842666666666666044083
:1052F0009A9999999999D93F00000000000034408B
:1053000010B5FFF7D1FABDE810404FF47A7003F002
:10531000A5B900002DED068B88B09FED710A8DEDCB
:10532000010A8DED040AFFF7EBFF9FED6E9B9FEDE9
:105330006F8B704E704F714C4FF0FF3502A800F02C
:1053400023FA029810F0FF0014D0012812D0009523
:10535000002301220F21206803F0B0FC29463068A9
:1053600004F0AAF802A800F00FFA0298C0B20328CD
:105370007ED0AAE00095002301221F21206803F0BF
:105380009DFC0028DAD0410702D5FFF70DFA88E02E
:10539000010702D5FFF7ECFA83E0810702D5FFF79A
:1053A00049FB7EE0C10702D0FFF75FFB79E0C00652
:1053B00077D5002201A9386803F048FF00F0ECF926
:1053C000FFF732FA00F0E8F9804602A800F0DCF9B5
:1053D0000298C0B2022807D002A800F0D5F90298BE
:1053E000C0B2032824D04FE0A8F1020006284BD217
:1053F000DFE800F00F164A030F16019805F082F857
:1054000053EC182B41EC100B51EC100B04F084FF03
:1054100037E09DED010AB1EE400A8DED040A33E05C
:10542000019805F06FF841EC100B53EC192BEBE7EA
:10543000019805F067F841EC1A0B02A800F0A4F9F6
:105440000298C0F3074000EE100AB8EE400AB1EE31
:10545000400A10EE100A05F055F853EC182B04F032
:1054600027FE9FED271B53EC112B04F05FFC00E09F
:105470001AE053EC182B04F0A5FB53EC1A2B04F0A4
:1054800057FF04F06DFB04901F480223002204A97B
:10549000006803F0CBFD00231A461946306803F07C
:1054A000C5FD4FF42F7014E0184800231A46194622
:1054B000006803F0BBFD00F075F98DED010A0223D1
:1054C000002201A9386803F0B1FDFFF707FA4FF495
:1054D000FA7003F0C3F81F21206803F073FB2DE777
:1054E00000000000EA2E4454FB2109C0EA2E445477
:1054F000FB2109402000002004000020240000209F
:105500000000000000004940080000201C000020AE
:10551000034900204870C8210248FBF780BA000008
:10552000300000203403002010B5034C034962789A
:10553000FBF7D4F9607810BD300000203403002060
:1055400013460A4601460148FDF748BF44040020BF
:10555000074810B50068800605D50548001D00689D
:10556000C0B2FBF7DBFCBDE810400248FDF740BDD0
:105570000014014044040020FEE7000001B584B09F
:105580000121642204A88DE807000B46002278213F
:105590000248FCF7BDFF05B000BD0000E00200209E
:1055A00001B584B00121642204A88DE807000B46F0
:1055B000402278210248FCF7ABFF05B000BD000097
:1055C000E00200200907090E002804DB00F1E020BA
:1055D00080F80014704700F00F0000F1E02080F820
:1055E000141D704730380A2801D20120704700206E
:1055F00070475060C0E900210860704770470000A4
:1056000030B5044606480023026803E012F8015B47
:1056100025705B1C8B42F9DB0260084630BD000040
:105620008401002010B50B482DED028BB0EE418AAD
:10563000FFF770F80748F0EE480A90ED070A2438A3
:10564000FFF768F80348243890ED070ABDEC028B99
:1056500010BD0000880A002070B50024A01DC1B252
:105660000020FEF7D7FF00250020FFF799FF6D1CF3
:10567000EDB2102DF8D3641CE4B2022CEED300245A
:10568000A01DC1B27020FEF7C5FF00250020FFF766
:1056900087FF6D1CEDB2102DF8D3641CE4B2022C10
:1056A000EED370BD70B50B4E002470782044C1B2AB
:1056B000307AFEF7AFFF002504E00020FFF770FF0F
:1056C0006D1CEDB2707A8542F7D3641CE4B2022CF3
:1056D000EBD370BD5C000020704700000EB5086C75
:1056E000074BC26800780091CDE901020F2205A1A5
:1056F0000EA0FAF7D7FEBDE80E4018A0FAF7D2BE0A
:1057000004BB00082E2E5C6D717474636C69656E49
:10571000745C6D717474636C69656E745C6D7174C6
:1057200074636C69656E742E6300000025733A25FE
:105730006420257328292E2E2E0A746F7069633A0F
:105740002025732C20716F733A2025642C200A6D5C
:105750006573736167653A25730000000D0A0000E8
:1057600010B5FBF715F8BDE81040FAF7E9BD0000E9
:1057700013B50A23012269460248FDF72FFE00985F
:105780001CBD0000FC030020024AD2E90312C0E95C
:10579000001270475C0000200148C078704700008C
:1057A0005C00002008B5044800226946006803F048
:1057B0004DFD9DED000A08BD1800002008B5044805
:1057C00000226946006803F041FD9DED000A08BD16
:1057D00014000020034A02EBC10151E90221C0E993
:1057E000002170470C010020064901EBC00050F871
:1057F000080CC1B2012902D040F3074070474FF0B6
:10580000FF3070470C01002010B502F0C1FD4FF4CD
:105810007A720023FAF7CFFD10BDFCF74DFFFFF7BA
:1058200053F9FEF777FCFEF791FBFEF76DFBFEF7F1
:10583000EFFCFEF72DFBFEF7CBFCFEF705FDFBF7BB
:105840002BFD01F0C1FCFEF797FB01F0CFFCFEE75A
:1058500070B515460446FFF7C7FF0246012C0BD072
:10586000042C11D00B2C1FD1642A1DD82846BDE86A
:1058700070400EA1FAF722BE012A03D0022813D1EC
:105880000EA108E00FA106E0012A09D0022A09D0E2
:10589000032809D10EA12846BDE87040FAF70EBED4
:1058A0000DA1F8E70EA1F6E770BD0000427269672E
:1058B00068746E6573732564000000004C69676846
:1058C000746F6E004C696768746F66660000000054
:1058D0004C6576656C3300004C6576656C31000074
:1058E0004C6576656C32000010B5040006D000F0FF
:1058F000A3FC2046BDE8104001F0F8BC10BD00003C
:10590000FEB505460C4602A801F01EFE02A8E96A93
:1059100001F012FE04F10800E96A01F00DFE05F144
:105920005000064601F0ECFC228BE169286AFAF788
:10593000D5FF218B02AA284600F088FF218AE06863
:10594000CDE90001074B40F26512074907A0FAF7BD
:10595000A9FD05485C30FAF7A5FD304601F0D5FCFD
:10596000FEBD000018BB0008986D000825733A259D
:105970006420257328292E2E2E20726573656E648F
:10598000202564207061636B6167652C2070616302
:105990006B65745F696420697320256420000000D2
:1059A0002DE9F84F04466030DDF828A099461546E9
:1059B0000E464FF0000B0746009000F04BFC78B904
:1059C000206E0AE0038AAB4206D1C268B24203D11C
:1059D0006FF01600BDE8F88F0846B8420168F1D1B3
:1059E000B0464E462F46D14606F1200001F05EFC3F
:1059F000050029D000F02BFC05F10800824601F0DB
:105A0000A3FD5046E16A01F097FDC5F80C802F8296
:105A10002E8305F12000C5F81490E8613246216A12
:105A2000FAF75CFF04F15400064601F069FCA06A35
:105A300000F58070A062304601F067FC28460099AE
:105A400000F0F5FB5846C5E76FF00200C2E72DE90C
:105A5000F041054660308846064600F0FBFB002812
:105A60001DD195F84C00012819D1286E14E0074685
:105A7000083001F06CFD10B9B8F1010F0BD0F868D7
:105A800004280ED005280CD006280AD0072808D0F4
:105A90003846FFF729FF2046B0420468E7D1BDE849
:105AA000F08139462846FFF72BFFF4E72DE9F04750
:105AB000054660309A4690468946074600F0CAFB84
:105AC00010BB286E05F1540604681BE0028A4245AB
:105AD00016D1C2684A4513D1BAF1000F02D042690B
